:020000040800F2
:1000000000100020DD0100081D1F0008211F00084E
:1000100000000000000000000000000000000000E0
:10002000000000000000000000000000251F000884
:100030000000000000000000291F00082D1F00081C
:100040001502000800000000150200081502000853
:1000500015020008A91F000815020008951F0008D6
:100060000000000015020008150200081502000833
:100070001502000815020008150200080000000023
:100080001502000800000000000000001502000832
:10009000150200081502000815020008411F00089B
:1000A000150200081502000815020008491F000883
:1000B0001502000800000000000000000000000021
:1000C0005FF808F130B583B000F06EFD314B324A75
:1000D0001360324A1360324B324A03E011681960F0
:1000E0000433043230498B42F8D32B4B1A682F4B20
:1000F0009A4204D1294B1A682D4B9A4200D0FEE750
:10010000244B2C4A13602C4A13602C4B02E0002233
:100110001A6004332A4A9342F9D3264B1B68002BFA
:1001200003D1254B1B68002B00D0FEE700F040FDFB
:1001300001A8694600F030FD224C234B1C1BA41083
:10014000002504E0AA001F4BD35898470135AC4264
:10015000F8DC1E4C1E4B1C1BA410002504E0AA005A
:100160001A4BD35898470135AC42F8DC01980099F6
:1001700001F03EFC051C174C174B1C1BA41004E09F
:10018000013CA200134BD3589847002CF8DC281CE4
:1001900000F000FDBABADECA0000002034000020E2
:1001A00000000020D04300083800002078563412A8
:1001B0003254769838000020700600203800002065
:1001C00074060020400200084002000840020008B7
:1001D00040020008400200084002000808B5FFF78E
:1001E00071FFC04600BEFEE704207146084202D0FF
:1001F000EFF3098001E0EFF308807146044A1047ED
:1002000000BEFEE700BEFEE700BEFEE7704700004E
:080210000102000800BEFEE738
:10021800D04300080000002038000020D043000828
:1002280000000000000000003800002074060020D4
:080238000000000000000000BE
:100240000268264B13400360002303604360836011
:10025000C360234B984205D1224A51680F230B43B8
:10026000536039E0204B984205D11E4A5168F02373
:100270000B43536030E01D4B984206D1194A536836
:10028000F02109010B43536026E0194B984206D137
:10029000144A5368F02109020B4353601CE0154BCC
:1002A000984206D10F4A5368F02109030B4353606B
:1002B00012E0114B984206D10A4A5368F021090412
:1002C0000B43536008E00D4B984205D1054A536833
:1002D000F02109050B4353607047C046FEFF000044
:1002E00008000240000002401C00024030000240B2
:1002F00044000240580002406C000240800002406E
:1003000010B502680C4B1A408B680C6A23430C69C9
:1003100023434C6923438C692343CC6923434C6AB0
:1003200023438C6A234313430360CB6843600B6809
:1003300083604B68C36010BD0F80FFFF002904D0AD
:10034000026801231343036003E00268014B13407A
:1003500003607047FEFF0000034B1B68184201D08A
:10036000012000E0002070470000024010B58379B2
:10037000002B2CD01A4B1A6801688A431A605A68FD
:1003800001688A435A6002799C4662441168046895
:10039000214311609A6801688A439A60DA680168AB
:1003A0008A43DA604379102B09D163469A68016861
:1003B0000A439A60D96802680A43DA600FE0084A83
:1003C00094466344196802680A431A6007E0037997
:1003D000034A944663441A6801688A431A6010BD50
:1003E00000040140F0B500223CE0012393400C687A
:1003F0001C409C4235D10B79013B012B18D88468F5
:1004000056000325B540AC43846085684C79231CB5
:10041000B3402B43836083881404240C0125A5403A
:10042000AB43838086888D79A540ABB2334383800C
:10043000036857000326341CBC40A34303600368D1
:100440000D792C1CBC401C430460C3681404E40BED
:10045000A640B343C360C568CC79231CBB402B4383
:10046000C36001320F2AC0D9F0BDC04610B50C4B95
:1004700098420AD18024A403201C012100F01EF917
:10048000201C002100F01AF909E08024E403201C5C
:10049000012100F013F9201C002100F00FF910BD1C
:1004A0000054004030B503680124A3430360026890
:1004B000124B1A408B681B024D682B431343036099
:1004C0000F4B0A681340036103681C430460002358
:1004D0008360C3608B690A691343836083688022E9
:1004E0001202134383600368CA68134303604268BF
:1004F000044B13404A691343436030BDFFE0CF0013
:10050000FFFFFFF0FF7FFF07002904D002680123EF
:100510001343036003E003680122934303607047C1
:1005200070B5041C5D4B5B680C221340042B0CD08F
:1005300002D8002B05D028E0082B0AD00C2B20D0A5
:1005400023E0574B0360002022E0564B036000205D
:100550001EE0524B586880025A68000F851CC02369
:100560005B021A4202D15048684308E04B4BDB6AF9
:100570000F21194001314B4803F018FC68432060FB
:1005800006E04A4B0360002002E0454B2360002058
:1005900042494B681B061B0F454DEB5CDBB22668DE
:1005A000321CDA4062604B685B055B0FEB5CDBB2D0
:1005B000DA40131CA2600A6BD20502D43D4AE26005
:1005C00008E0364A5268520402D45A08E26001E058
:1005D0009A08E260314A126B520602D4364A22610E
:1005E00002E08022120222612C4A126BD20602D44F
:1005F0002B4A626100E06661284A126B920701D1C2
:10060000A36119E0254A126B03210A40012A01D196
:10061000A66111E0214A126B03210A40022A03D18C
:1006200080221202A26107E01C4A126B03210A40D9
:10063000032A01D11A4AA261184A116BC022920200
:10064000114201D1E36120E0144B1A6BC0239B02DD
:10065000134080225202934201D1E66115E00F4B14
:100660001A6BC0239B02134080229202934203D153
:1006700080231B02E36108E0084B1B6BC02292023F
:100680001340934201D1064BE361044B1B6B1B06E5
:1006900002D4064B236200E0206270BD00100240CD
:1006A00000127A000024F40000093D00006CDC0216
:1006B00004000020809FD50012800000002904D093
:1006C000044B1A691043186103E0024A136983431B
:1006D0001361704700100240002303E00133DBB2D6
:1006E0000A38C0B20928F9D81B01DBB21843704799
:1006F00002099300D3185A000F2318401018C0B2F3
:100700007047C046002303607F33436080338360BB
:100710007047C04682B000230193104BDB685B0634
:1007200017D4012252420D4BDA600C4BDB68402299
:100730001A40019B0133019301998023DB01994207
:1007400001D0002AF1D0054BDB685B0603D5012000
:1007500002E0012000E0002002B0704700280040C5
:10076000024AD36880218B43D36070470028004041
:1007700010B5041C104BCA225A62773A5A62FFF72E
:10078000C9FF002813D00C4B9A6840218A439A6015
:100790009A6821680A439A60A2681A6119696268B6
:1007A00012040A431A61FFF7DBFF012000E000207A
:1007B000FF22014B5A6210BD0028004082B0002386
:1007C0000193144B9B689B0621D4124BCA225A6298
:1007D000773A5A62DA68A0218A43DA600D4BDB6807
:1007E00020221A40019B01330193019980231B02AF
:1007F000994201D0002AF1D0064BDB689B0601D557
:10080000012000E00020FF22024B5A6200E001209C
:1008100002B070470028004038B50C1C002806D1F3
:10082000254B9B685B0608D40023CB7005E0224B68
:100830009B685B0601D40023CB7000280BD0237883
:10084000180463781B020343A0781843E3781B0461
:100850001843041C10E02078FFF73EFF0504607881
:10086000FFF73AFF00020543A078FFF735FF054385
:10087000E3781B042C1C1C430F4BCA225A62773AA4
:100880005A62FFF747FF00280DD00C4804400A4D7C
:100890002C60FFF765FFAB689B0606D4FFF78EFF61
:1008A000002804D104E0002002E0012000E0012043
:1008B000FF22014B5A6238BD002800407F7F7F0035
:1008C000F8B5104B1A689702BF0E0F705604760EDB
:1008D0004E707F2515408D708023DB0313401B0C69
:1008E000CB7000280CD10C1C381CFFF701FF2070C6
:1008F000301CFFF7FDFE6070281CFFF7F9FEA070AA
:10090000F8BDC0460028004038B50C1C002806D1B0
:100910004B78DA0603D5102293430A334B70002834
:100920000BD0E378180463781B020343A0781843C4
:1009300023785B031843041C10E0E078FFF7CCFE3B
:1009400005046078FFF7C8FE00020543A078FFF7B2
:10095000C3FE054323785B032C1C1C430F4BCA22A8
:100960005A62773A5A62FFF7D5FE00280DD00C483C
:1009700004400A4D6C60FFF7F3FEAB689B0606D49B
:10098000FFF71CFF002804D104E0002002E0012052
:1009900000E00120FF22014B5A6238BD00280040D0
:1009A0003FFFFF0070B50F4B5B681A02120ECA7052
:1009B000DE04F60E4E703F251D408D701B045B0F4C
:1009C0000B7000280CD10C1C101CFFF791FEE0707E
:1009D000301CFFF78DFE6070281CFFF789FEA070A9
:1009E00070BDC04600280040F0B50688C1239B01B9
:1009F0001E400C88CD89CB889C460A894B898F89FB
:100A00002C4365462C4322431A433B1C1343334378
:100A100003808288084B13408A88134383800B8AA3
:100A200003820388042293434A8813430380828B02
:100A3000024B13408383F0BDFFF0FFFFFFF7FFFF82
:100A4000002904D0028840231343038003E0038875
:100A50004022934303807047002904D082881023EA
:100A60001343838003E0838810229343838070477D
:100A7000002905D0028880239B011343038003E0F3
:100A80000288024B134003807047C046FFDFFFFF20
:100A9000F0B58DB0041C0D1C036801229343036064
:100AA0004268284B13408A68134343600268264B10
:100AB0001A404B68C9680B4329690B431343036011
:100AC0008268224B13406A691343836003A8FFF7CF
:100AD00027FD1F4B9C4201D1099E05E01D4B9C4206
:100AE00001D10A9E00E0059E23681B040CD5760008
:100AF0002B68301C0193191C03F058F9071C301C9B
:100B0000019903F0D9F90AE02B68301C0193191CF4
:100B100003F04CF9071C301C019903F0CDF92B6848
:100B20005B088B4200D8013723681B0405D53B07BF
:100B30005B0F094A3A401A43171CBBB2A3810DB0A0
:100B4000F0BDC046FFCFFFFFF3E9FFFFFFFCFFFF53
:100B50000038014000440040F0FF0000002904D0AC
:100B6000026801231343036003E0036801229343F7
:100B700003607047808CC005C00D7047002A03D009
:100B800083681943816002E083688B438360704708
:100B900001627047FEE7C04601230360014B0B6012
:100BA0007047C0461400002008B500F05DF808BD8D
:100BB00008B500F08BF808BD82B0002301930093C4
:100BC000264A1368802149020B431360234B1A689D
:100BD00080239B0213400093019B01330193009BF0
:100BE000002B04D1019AA023DB019A42EED11B4BCA
:100BF0001B689B0302D50123009301E000230093AF
:100C0000009B012B28D11122154B1A60134B5A68F7
:100C10005A605A685A605968124A0A405A605A68BB
:100C2000A021C9020A435A601A68802149040A4374
:100C30001A600A4B1B689B01FBD5084B5A680321BD
:100C40008A435A60596802220A435A60034B5B6820
:100C50000C221340082BF9D102B07047001002405B
:100C600000200240FF7FC0FF08B5124B1A68012127
:100C70000A431A605868104A02405A6018680F4ABE
:100C800002401A6018680E4A02401A6058680D4AFD
:100C900002405A60DA6A0F208243DA62186B0A4A0D
:100CA00002401A635A6B8A435A6300229A60FFF724
:100CB00083FF08BD001002400CB8FF08FFFFF6FEDE
:100CC000FFFFFBFFFFFFC0FFACFEFFFF10B51E4B99
:100CD0005B680C221340042B07D0082B09D0002B93
:100CE00022D11A4A1A4B1A6021E01A4A184B1A608C
:100CF0001DE0154B5C68A4025A68240F0234C0231F
:100D00005B021A4204D114484443114B1C600EE0AC
:100D10000D4BDB6A0F21194001310E4803F046F8F4
:100D200044430B4B1C6002E0084A094B1A60064B17
:100D30005B681B061B0F094AD35CDBB2044A1168CF
:100D4000D940116010BDC0460010024000127A0068
:100D50002C0000200024F40000093D001C000020AD
:100D600008B5324B9B699B054DD4314B1A686432F0
:100D700003E02F4B1B68934245D82C4B9B691B0407
:100D8000F7D42A4B59682B4A0A405A605968C20363
:100D9000D20F0A4350210A435A605968264A0A4032
:100DA0005A605A68802189020A435A605A68802131
:100DB00089010A435A601E4B1A68643203E01C4BD7
:100DC0001B6893421FD8194B9B699B07F7D50304F7
:100DD0001B0E16498B6203E0154B1B68934212D819
:100DE000124B9B699B07F7D5FF2318400F4B986266
:100DF00003E00F4B1B68934205D80C4B9B695B06C5
:100E0000F7D5012010E009480021FFF77DFB802184
:100E100009048023094AD150062000F00FFE042166
:100E2000074B084AD154042040B208BD005400408A
:100E3000400000200098FFFCFFFF00FF00E100E001
:100E40000B0200001C03002038B5314B314AD35C43
:100E5000012B01D0D8B258E002242D4B2D4AD45496
:100E60002D4B1A68F034A2431A605C682B4A22406A
:100E70005A605C68FF220A40120422435A605C6890
:100E8000274A22405A605A688024A40422435A60A8
:100E90005C68244A22405A605A688024A401224394
:100EA0005A60214B1A68643200240DE01E4B1B6807
:100EB000934219D8184B9B699B07F7D50578164BB9
:100EC0009D620134A4B201308C42F3D3164B1A68F0
:100ED000643203E0144B1B68934205D80E4B9B69A8
:100EE0005B06F7D5012010E00B480021FFF70CFB53
:100EF0008021090480230D4AD150062000F09EFD78
:100F00000421034B034AD154042040B238BDC046EB
:100F10000B0200001C03002000540040FFFF00FFF4
:100F2000FFFFFFFEFFFBFFFF4000002000E100E0AD
:100F300070B50C4B0C4EF35C012B0ED1141C0D1C28
:100F4000FFF70EFFC0B2074B074AD054012806D165
:100F5000281C211CFFF778FF02E0FF2000E0FF20A3
:100F600040B270BD0B0200001C03002010B53A4BCC
:100F70003A4AD35C012B01D0D8B26BE0374B022444
:100F8000354A9C54CAB2364C1A55364C1A558122F1
:100F900092009850344B1868133AFF3A02431A6093
:100FA0005868324A02405A605A68FF2001400904DA
:100FB0001143596059682E4A0A405A605A68802184
:100FC00089040A435A605A688021C9000A435A605A
:100FD0005A68802189010A435A60264B1A68643294
:100FE00018E0244B1B68934231D81F4B9B695B0769
:100FF000F7D51A4B8120800019584C1C1C501A48F8
:10100000406A08701748195C013919541448195C72
:1010100001311954134B1149CB5C002BE5D103E08E
:10102000144B1B68934214D80F4B9B699B06F7D453
:101030000D4B1A68F2218A431A60D96920220A43AB
:10104000DA6159680C4A0A405A60002002E0032025
:1010500000E0032040B210BD0B0200001C03002082
:10106000090200000A02000000540040FFFF00FFD8
:10107000FFFFFFFE4000002000E800FE70B5061CE8
:101080000F4B104CE05C012818D1141C0D1C301CB7
:10109000FFF766FEC0B20A4B0A4AD05401280DD1B0
:1010A000281C211CFFF762FFC0B2054B054AD05433
:1010B000002802D10121D15400E0002070BDC046BB
:1010C0000B0200001C030020194BDA69802080030A
:1010D0000243DA615A69802189020A435A619023E6
:1010E000DB051A688021090311431960998889B2C8
:1010F0009980D9680F4A1140D96099680A409A606E
:101100005A6A4021114359621A6802431A609A8848
:1011100092B29A80D968084A1140D96099680A4009
:101120009A605A6A8021C9000A435A627047C046D1
:1011300000100240FFFFF3FFFFFFCFFF30B589B083
:101140000F4AD369802189030B43D361FFF7BCFFAA
:101150000C4B0193002307930493059380231B02F8
:101160000693094C23680125AB432360201C01A989
:10117000FFF798F923681D43256009B030BDC046CC
:10118000001002404B1AB0000054004010B50E4C45
:10119000201CFFF76BF9FFF7D1FF22688023134370
:1011A00023600A4AC521890053581B021B0A80206C
:1011B00000060343535080231B0413600121044B9A
:1011C000044AD154002010BD0054004000E100E06A
:1011D0000B0200001C030020024AD36902490B43A2
:1011E000D361704700540040303F000008B5274BE2
:1011F0009B699B070DD5264B802149005A58501CEE
:1012000058501178214A916222495A5C013A5A5445
:1012100039E01E4B9B695B0612D51E4B1C4AD35C02
:10122000002B06D1194A53688021C9010B43536032
:1012300029E00421184B164AD154FFF7CDFF22E0D4
:10124000124B9B699B0611D5104B1A68F2218A43F9
:101250001A60D96920220A43DA6159680F4A0A40A4
:101260005A6001210C4B0A4AD1540CE0074B9B6990
:10127000DB0608D5054AD16910230B43D36104214D
:10128000054B034AD154FFF7A7FF08BD00540040A7
:101290001C0300200A0200000B02000000E800FE10
:1012A00070B586B0041C43001B18DB002C4AD31811
:1012B0001A685B68111C19430BD1022000F0BEFBB9
:1012C00063001C19E400264B1C190323A37303209D
:1012D00043E003A955200870483868440270150A95
:1012E0004570150C8570120EC27003711A0A427196
:1012F0001A0C82711B0EC37100230093FF330193FC
:1013000001200922002300F023FD051E032D0BD12F
:10131000134E63001A19D200B21800200021106089
:1013200051600323937317E00D4A60000319DB003B
:10133000D318191C01269E7309361E72094B4B8166
:10134000FA23DB008B810419E400A418201C00F0B0
:1013500041FE201C00F058FE281C06B070BDC0469F
:101360008005002090FCFFFF70B586B00022234B63
:101370001A7000F08DFC68460021182202F0F2FE7F
:101380006846032100F01EFD051C1D4B187000224D
:10139000002114E0D3006B4458681C681B78282B8C
:1013A0000BD10023002B08D14B1C4E007118C90033
:1013B000144E71180C604860D9B20132D2B2AA4200
:1013C000E8D3002904D1022000F038FB022013E00A
:1013D000032910D1002404E0201CFFF761FF013431
:1013E000E4B2022CF8D9FA239B00074A1360074A9B
:1013F0001360002000E0032006B070BDD10500207E
:101400006C05002080050020300500202C05002000
:1014100010B51C4B59698020C002014359615A69BB
:1014200002435A61184B1A68032082431A60998854
:10143000012291439980D9688143D960D9681143C9
:10144000D9609968814399601968093081431960AE
:1014500099880224A1439980D9688143D960DC68C6
:1014600004212143D960996881439960074B1A7020
:101470005A709A70DA70FA235B00054A1360054AC5
:10148000136010BD001002400004004870050020E9
:10149000280500203C05002008B50023274A53609A
:1014A000274A5360FFF772FE002832D18020800067
:1014B00022491022FFF7E2FD002805D11F4B5A6890
:1014C00084239B009A420BD01C4B00221A705A7046
:1014D0009A700C321A721B4ADA60842292005A60A7
:1014E000194817491022FFF7C9FDC0B2002804D1DE
:1014F000134B5A68154B9A420CD0114B00221A70AC
:101500005A709A7008321A72114ADA600F4A5A6099
:1015100000E004200F49CA7B02231343DBB21022F0
:101520001343FE221340F63A9343CB730A4B0B4A04
:1015300013600B4A136040B208BDC046400500204E
:10154000500500206027000080DA010090DA0100D9
:1015500088130000F005002060EA00003405002038
:1015600038050020054BFF225A7200229A72DA7267
:101570001A735A739A7300207047C046F005002012
:1015800010B5041C40782378984204D1A278012A2F
:1015900001D1013323702378E268934201D1002303
:1015A0002370227A504363689C46604492B2FFF7EE
:1015B000BFFC002818DB63780133DBB26370E2689C
:1015C000934201D100236370627823789A4201D15B
:1015D0000123A37060681038211C1022FFF7A8FCBB
:1015E000002803DAFF2002E0FF2000E0012040B2E3
:1015F00010BDC04610B503784278934202D182787C
:10160000002A16D0041C00228270027A53434068DC
:10161000C01892B2FFF732FD00280CD123780133B5
:10162000DBB22370E268934207D1002323700130BC
:1016300004E0002002E0024800E0012000B210BDFA
:10164000FFFF000010B584B000F024FF01900023DC
:101650000293039300211EE04A005318DB00124856
:10166000C3181B8A1B051B0D5218920020204042F4
:10167000101803D41C1C8440201C03E02024A41A4E
:10168000181CE0409340029A1343039A10430293BC
:1016900003900131C9B20229DED9044801A9FFF73C
:1016A0006FFF04B010BDC04680050020400500203B
:1016B00030B585B0051C164801A9FFF79BFFC4B2E1
:1016C00063B2013302D0002C06D00BE0281CFF21AE
:1016D0000C2202F047FD17E0281C00210C2202F02A
:1016E00041FD11E0019B2B6000220BE0029BA91839
:1016F0000B71039908051B0B0343090B029303911C
:101700000132D2B2032AF1D960B205B030BDC04671
:101710004005002000B583B000F0BCFE009000231F
:101720006A4613710AE059000B4A8A5C9A4069467E
:1017300009790A4369460A710133DBB2012BF2D9F8
:10174000002B04D005486946FFF71AFF00E000208F
:1017500040B203B000BDC046700500205005002017
:1017600038B5051C0B48291CFFF744FFC4B263B20F
:10177000013302D0002C06D00AE0281CFF210822E9
:1017800002F0F0FC04E0281C0021082202F0EAFC30
:1017900060B238BD5005002008B50E4B5B7A18408A
:1017A00013D00C4B9A7A02439A721A7B1043187327
:1017B000DA7A0132DA725A7B01325A735B78002B83
:1017C00005D001F03DFF002002E0FF2000E00020F6
:1017D00040B208BDF005002030B587B0051C0C1CD8
:1017E0000022214B1A7001A80021113202F0BAFC2C
:1017F000002D11D01D4BDB7B9B070DD501A8FFF7FA
:1018000057FF002803DA4020FFF7C6FF04E0002856
:1018100002DD0122144B1A70002C11D0134BDB7B1C
:10182000DB060DD504A8FFF79BFF002803DA402054
:10183000FFF7B2FF04E0002802DD01220A4B1A7014
:10184000094B1B78002B03D1094B1B78002B07D0C9
:1018500001A8112101F0B4FF034B1A78044B1A7050
:10186000002007B030BDC0463D000020F00500203C
:101870003E00002000B58DB000230B930A93424A2E
:101880001368802149020B4313603F4B1A68802381
:101890009B0213400A930B9B01330B930A9B002B73
:1018A00004D10B9AA023DB019A42EED1364B1B6880
:1018B0009B0302D501230A9301E000230A930A9BAC
:1018C000012B31D11122314B1A602F4B5968032063
:1018D000814359605A685A605A685A60DA6A02430A
:1018E000DA6219682A4A0A401A601A685968294A4D
:1018F0000A405A605A68A021C9020A435A601A680D
:10190000802149040A431A601F4B1B689B01FBD5C9
:101910001D4A536802210B4353601B4B5B680C222A
:101920001340082BF9D101E000F0FAFA01A8FEF704
:10193000F7FD0298FA21890002F038FA0138164BB7
:1019400098420DD8154A506015490B6A1B021B0AB4
:10195000C020000603430B6200239360073313602B
:101960000F4A136A1B021B0AC02109060B431362AC
:10197000802212060B4B1A60084A116804230B439D
:1019800013600DB000BDC0460010024000200240B0
:10199000FFFFFFFEFF7FC0FFFFFFFF0010E000E042
:1019A00000ED00E000E100E008B5104B1B78002BD3
:1019B00004D001F08FFD00220C4B1A700B4B5B78AA
:1019C000002B12D0094BDB7B1821194018394A42F1
:1019D0005141C9B203200340D81E43425841C0B20E
:1019E000031C0B4301D0FFF7F7FE08BDF0050020F4
:1019F00008B500220F4B1A60FFF73CFF00F008FC0F
:101A0000FFF7B0FDFFF7B0FCFFF702FDFFF744FD65
:101A100002F03CF801F046F901F016FDFF2802D172
:101A2000FF22054B1A7401F069F900F05FFDFFF722
:101A3000BBFFF8E740000020F005002008B50328B0
:101A400004D0062817D002280ED018E02020FFF777
:101A5000A3FE15E05A00D218D2000A498A180321C1
:101A600091730133DBB200E00023022BF2D9202076
:101A7000FFF792FE04E04020FFF78EFE00E0FEE755
:101A800008BDC0468005002000230AE0C20702D539
:101A9000FF220A7001E000220A7001314008013380
:101AA000DBB2072BF2D97047002300220AE052086C
:101AB0000178FF2903D18039FF390A43D2B20130BE
:101AC0000133DBB2072BF2D9101C7047F0B54F463B
:101AD0004646C0B48DB0051C344F381CFEF7B0FB31
:101AE000334B0193334B994602930024039404959E
:101AF00005948023984606930794089409940A94C1
:101B00000B94381C01A9FEF7FBFB2B4E301CFEF793
:101B100097FB2A4B01934B460293102303930495A2
:101B20000594434606930794089409940A940B94E9
:101B3000301C01A9FEF7E4FB3A6801231A433A601E
:101B40003268134333601E4C201CA021FFF720F89D
:101B5000226A402313432362201CC0210122FFF785
:101B60000DF8184B1C68F534FF3403E0154B1B6867
:101B7000A34214D880208000FEF7EEFB0028F5D0A9
:101B80000D480021FEF7DAFB08480021FEF7D6FBDE
:101B90000B48C0210022FEF7F1FFE8B200E0FF2071
:101BA00040B20DB00CBC90469946F0BD30000240EA
:101BB00024380140C80500201C000240283801409C
:101BC000003801404000002030B587B096239B01CB
:101BD0000093002301930293039305930C33049322
:101BE000284C201C6946FEF753FF201C0121FEF7FC
:101BF000B5FFF0232385234BDB695B06FBD5214A28
:101C0000116A40230B4313621F4B1A68F532FF32EF
:101C100011E01D4B1B6893420DD909E04B005B1886
:101C2000DB001A48C318032098730131C9B200E0E1
:101C300000210229F2D9134BDB699B06E9D5114833
:101C4000FEF798FFC4B20F4BDB699B06FBD4E12380
:101C50005B020093002301930293039305930C33DB
:101C60000493084D281C6946FEF712FF281C012129
:101C7000FEF774FFF02C01D0002000E0032007B035
:101C800030BDC046003801404000002080050020E3
:101C900010B586B02C4B9A698021C9010A439A611C
:101CA0005A69802189020A435A6159690122114304
:101CB000596199690A439A619023DB0519682022CA
:101CC0000A431A609A8804218A439A80DA682C3180
:101CD0008A43DA60D86810220243DA609A688A433D
:101CE0009A601A6AD0310A431A62196880220A433C
:101CF0001A609A8808218A439A80DA68B8318A4340
:101D0000DA60D86840220243DA609A688A439A60AF
:101D10001A6A802149010A431A62E1235B02009397
:101D2000002301930293039305930C330493074C10
:101D3000201C6946FEF7ACFE201C0121FEF70EFFB9
:101D4000002006B010BDC04600100240003801401F
:101D5000F0B5474680B40E1C141C984606AB1F789D
:101D600007AB1D78012823D1FFF72EFF03281FD1D1
:101D700023E030781249FFF787FE0136013CE4B2D8
:101D80000820FFF7A3FE002816DB002D0CD1002F42
:101D90000AD00B48FFF788FE4346187001239C4683
:101DA000E044013FFFB203E0FF2D01D0013DEDB261
:101DB000002CDED1002000E0FF2004BC9046F0BDE6
:101DC000C8050020F0B557464E464546E0B482B0FF
:101DD00081468A46051C0026002398467CE00023A5
:101DE0000093FF3301930120424901220023FFF7B2
:101DF000AFFF0027012460E0FF203F49FFF744FECA
:101E00000220FFF763FE00286ADB3B4B1B78FF2BA9
:101E100005D1394B5B78FF2B1BD1404663E0364B35
:101E20005B78FF2B17D0B4420DD2631EDA104946FF
:101E30008A5C07210B401A41131CDB070DD5A74212
:101E40000DD3012312E0B4420CD0A7420CD30123DE
:101E50000CE001230AE0002308E0002306E0271C31
:101E6000012303E0002301E0271C0123012B0FD1F4
:101E7000631ED910691807221340063A9A40131CB2
:101E80000A7813430B7001201B49FFF7FDFD0DE09D
:101E9000621ED310EB1807210A40063991401A78C8
:101EA0008A431A7000201449FFF7EEFD0120FFF766
:101EB0000DFE002816DB0134E4B2402C9CD94046CC
:101EC0000130C3B298462B1C0833002F01D1404685
:101ED00009E03E1CA9461D1CD04580D3404602E0C7
:101EE000FF2000E0FF2002B01CBC90469946A246AD
:101EF000F0BDC046DC420008C80500200549088A3C
:101F0000054A0123034013700B8A9B07DB0F937074
:101F10007047C04600040048700500207047C04666
:101F2000FEE7C0467047C0467047C04608B5034A42
:101F300013680133136000F0BDFA08BD40000020B3
:101F400008B5FFF753F908BD80210905C0235B00E0
:101F50000B4AD1500B4BDB699B0607D50A4A137815
:101F60000849888C0949C85401331370054BDB6953
:101F70001B0603D5064A1378013313707047C04619
:101F800000E100E00038014074050020C805002091
:101F9000D00500200122014B1A7070474400002038
:101FA00008B500F0F7FE08BD08B5084B5B69DB0714
:101FB00005D50122054B5A610120FFF7F1FF2021D1
:101FC000C0235B00024AD15008BDC0460004014056
:101FD00000E100E000B585B003A94E230B702F335C
:101FE0004B704C338B70037A093B5B011F22134308
:101FF000CB7000230093FF330193022004220023BF
:10200000FFF7A6FE05B000BDF0B55F4656464D464B
:102010004446F0B487B003AD55232B700168426885
:10202000483B6B44002081461970080A5870080C20
:102030009870090ED9701A71110A5971110CFF208C
:1020400080469971120EDA714B4600930190FE386A
:10205000291C09220023FFF77BFE9024E405236856
:102060001A4A92461360C027BB43194A934640263A
:102070003343136048232B704B4600934346019330
:102080000220291C01220023FFF762FEA269082317
:102090001343A3612368BB431E435B461E60266057
:1020A0000B2000F05BFA2368BB43802213435246A7
:1020B00013602360228D08231343238507B03CBCA3
:1020C00090469946A246AB46F0BDC0466805002042
:1020D0007805002008B5002200200AE053009B1874
:1020E000DB000849CB181B7A834200D9181C013247
:1020F000D2B2022AF2D909385F238340181C00F0BB
:102100002DFA08BD8005002070B588B005A9CC2344
:102110000B70883B4B7000230093FF330193012029
:1021200002220023FFF714FE9024E405A26908238D
:102130001343A3612368C025AB4340221343314AB4
:1021400013602360FFF7C6FF2368AB43802213436D
:102150002D4A13602360228D082313432385002515
:102160004CE06B005B19DB00284AD3181A685B68E7
:10217000111C194340D005A9552008704038684407
:102180000270160A4670160C8670120EC270037129
:102190001A0A42711A0C82711B0EC371002300933C
:1021A000FF330193012009220023FFF7D1FD03280B
:1021B0000BD1164E6B005A19D200B2180020002124
:1021C000106051600323937316E001235B42059373
:1021D00005A9BF330B7002AEBC3B0093013B0193DA
:1021E00002200322331CFFF7B3FD33886A00541921
:1021F000E400064A141923820135EDB2022DB0D94C
:1022000008B070BD7805002068050020800500201A
:1022100000B587B03B4AD369802149050B43D361A0
:10222000394A1368802149000B4313600022374B61
:102230001A600CE0354B1A68A023DB019A4202D1E8
:102240000720FFF7FBFB314A1368013313602E4B65
:102250001B68DB05EED52B4A516A01230B43536201
:1022600000222A4B1A600CE0284B1A68A023DB01DD
:102270009A4202D10720FFF7E1FB244A1368013399
:102280001360204B5B6A9B07EED51E4B196A204AF0
:102290000A40196A8020400201431962186A1D49E8
:1022A00001401962802189000A431A621A6A80215A
:1022B00009020A431A6203A8FEF724FA03A8FEF7EC
:1022C00057FA02A91023CB700A3B4B70053B8B7069
:1022D00002330B700020FEF717FB012802D0072005
:1022E000FFF7ACFB01A900230B704B708B70CB7018
:1022F0000398FEF791FA012802D00720FFF79EFB12
:1023000007B000BD001002400070004040000020F7
:10231000FFFCFFFFFFFFFEFF30B54478013CC278B1
:10232000151C643563329210AB0703D1002D03D125
:10233000104B02E00F4B00E00F4B64001C5F1219C2
:10234000013A6E23FF336B439B188078C3180B4A06
:10235000944663440878E12212014243141C4878F1
:102360000201101A800000198A78121804484343A9
:10237000981830BDF8420008E0420008219CFFFF99
:1023800080510100F8B5051C0F1C002A02DB161C49
:10239000324C02E0324BD6180024301C314901F097
:1023A00005FD0419301C2F4901F086FD0E1C081C88
:1023B000E121090101F0FAFC3870301CE12109012A
:1023C00001F07AFD0E1C081C3C2101F0EFFC787036
:1023D000301C3C2101F070FDB970601C072101F038
:1023E0005BFE2970201C6E21FF3101F06FFD00E0C3
:1023F000381C471EFB179B0FDB199B100321014064
:1024000003D1002803D1184A02E0174A00E0174A16
:102410000026965F9E196E23FF334343F318A342B1
:10242000E6DCE31A021C643AEA70002903D10028B2
:1024300003D10D4C02E00C4C00E00C4C0C21013996
:102440004A00A2180026905F9842F8DC01316970BA
:1024500014881B1B0133AB70F8BDC046DF6300005E
:10246000807EAA8380510100F8420008E042000803
:1024700000B583B0021C684601A9FFF783FF002066
:1024800001A9FEF7C9F900206946FEF73DFA03B03D
:1024900000BDC04600B583B0002001A9FEF710FAC8
:1024A00000206946FEF77EFA684601A9FFF734FF6F
:1024B00003B000BD0A4B1B68012B02D9013B084A3F
:1024C0001360084B1B68012B02D9013B054A1360BE
:1024D000054B1B68012B02D9013B034A136070476F
:1024E000380500202C0500203C05002008B5154BC0
:1024F0001B68012B0AD1144A12689B18114A1360F9
:10250000FFF7A0F801F06EF901F082F90F4B1B689C
:10251000012B08D10E4A12689B180C4A1360FFF772
:10252000F3FD01F0E7F80B4B1B68012B08D10A4AB9
:1025300012689B18074A1360FFF7E0FC01F012F9DC
:1025400008BDC04638050020340500202C050020B9
:10255000300500203C05002028050020034B1B68A7
:102560001818024B1B688342FBD3704740000020C1
:10257000F0B58DB00F1C0092019305AD287003AE2D
:10258000301C0021072201F0D9F906AC201C0021E3
:10259000182201F0D3F93F2323804B336380A560D9
:1025A000893BE360266106336361201C002100F053
:1025B0007BFC002811DB03AB187800280ED1039CAC
:1025C000220A3A80D9781A7912020A4300990A80BD
:1025D0005B681B0A019A138000E0FF200DB0F0BD7C
:1025E000F0B595B000931AAB1F781BAB1E781DABEE
:1025F0001C786B46D98001AB1A8033190E33282B17
:102600004CD803AD28700D2068446B46991D0222FA
:1026100001F090F90F20684401A9022201F08AF923
:10262000009B6B71AF71EE7105A81C99321C01F013
:1026300081F90836F6B2AC550136F6B2A8191E99E2
:10264000221C01F077F93419E4B228191FA90222DB
:1026500001F070F9A01CC0B2281820A9022201F0D4
:1026600069F90434E4B20EAE301C0021182201F0E6
:1026700065F93F23338044337380B560F4604C3B8D
:102680006B44336101237361301C002100F00CFCAA
:10269000002805DB37236B44187802E0422000E075
:1026A000FF2015B0F0BDC046F0B54F464646C0B459
:1026B0008FB0994616AB1B78984617AB1F78189CBD
:1026C00019AB1E7801AD287069706B46981D111CFE
:1026D000102201F02FF94B46AB744346EB742F7573
:1026E00019236B441C70220A5A70220C9A70240E13
:1026F000DC706E7608AC201C0021182201F01EF957
:102700003F23238047336380A5606C3BE3606B46C7
:102710000333236101236361201C002100F0C4FB0B
:10272000002802DB6B46D87800E0FF200FB00CBC1D
:1027300090469946F0BDC04630B589B001AD68708D
:10274000297002AC201C0021182201F0F7F83F2369
:1027500023804D336380A5608A3BE3606B4603337F
:10276000236101236361201C002100F09DFB0028F0
:1027700002DB6B46D87800E0FF2009B030BDC046D0
:1027800010B588B002AC201C0021182201F0D6F848
:102790003F2323800223FF3363806B46073323618B
:1027A00001236361201C002100F07EFB002802DB76
:1027B0006B46D87900E0FF2008B010BD70B58CB032
:1027C000161C1D1C6B461870012801D1022400E064
:1027D00010246B46581C221C01F0ACF801346B46E7
:1027E0001E550134E4B21D550134E4B205AE301C6F
:1027F0000021032201F0A2F806AD281C00211822B6
:1028000001F09CF83F232B80C3336B806B46AB6099
:10281000EC602E6103236B61281C002100F044FB57
:10282000002808DB05AB1878002805D1059B1B0A9A
:10283000109A138000E0FF200CB070BDF0B55F4629
:1028400056464D464446F0B491B00C1C00929B464F
:102850001AAB1B789A461BAB1B7899461CAB1B78AE
:1028600098461DAB1F781EAB1E786B46991D0880DD
:1028700002AD281C022201F05DF8AC70012C01D1E0
:10288000013400E0102402AD0B2068440099221CA2
:1028900001F050F803345B462B550134E3B2524645
:1028A000EA540133DBB24A46EA540133DBB2424612
:1028B000EA540133DBB2EF540133DBB2EE5401339F
:1028C000DCB209AF381C0021032201F037F80AAE50
:1028D000301C0021182201F031F83F233380C5332A
:1028E0007380B560F4603761023BFF3B7361301C5D
:1028F000002100F0D9FA002808DB09AB187800287D
:1029000005D1099B1B0A1F9A138000E0FF2011B01C
:102910003CBC90469946A246AB46F0BDF0B55F463A
:1029200056464D464446F0B4ADB0151C009336AB48
:102930001B789A4637AB1C7839AB1B7899463AAB73
:102940001B7898463BAB1B789B463CAB1B780193AE
:102950003DAB1B78029302ABD880063303AF3980BE
:1029600005AE301C191C022200F0E4FF0E2002AB61
:102970009C466044391C022200F0DCFF3571012DB9
:1029800001D1022600E0102605AD112002AB9C46C5
:1029900060440099321C00F0CDFF05365346AB551C
:1029A0000136F6B2AC550136F6B2A3190533802BC9
:1029B00043DC05ADA8193899221C00F0BBFF36197D
:1029C000F3B24A46EA540133DBB24246EA540133D9
:1029D000DBB25A46EA540133DBB26A461279EA5452
:1029E0000133DBB26A46127AEA540133DCB225AF16
:1029F000381C0021032200F0A1FF26AE301C00216C
:102A0000182200F09BFF3F2333800623FF3373809F
:102A1000B560F4603761033BFF3B7361301C0021FC
:102A200000F042FA00280ADB25AB1878002807D10D
:102A3000259B1B0A3E9A138002E0422000E0FF2003
:102A40002DB03CBC90469946A246AB46F0BDC04670
:102A500070B5AAB0161C1C1C6B46D88001AB19803F
:102A6000A31D802B31DC03AD281C6B46991D02226F
:102A700000F060FF0E20684401A9022200F05AFF16
:102A80002E716C71122068442E99221C00F052FFA6
:102A90000634E4B224AE301C0021182200F04EFFB0
:102AA0003F233380C7337380B560F460773B6B445A
:102AB000336101237361301C002100F0F5F9002817
:102AC00005DB8F236B44187802E0422000E0FF20F2
:102AD0002AB070BDF0B5ABB0171C1E1C30AB1C7813
:102AE0006B46D88001AB1980E31D802B32DC03AD2F
:102AF000281C6B46991D022200F01CFF0E20684422
:102B000001A9022200F016FF2F716E71AC71132023
:102B100068443199221C00F00DFF0734E4B224AE62
:102B2000301C0021182200F009FF3F233380E733D7
:102B30007380B560F460973B6B443361012373612C
:102B4000301C002100F0B0F9002805DB8F236B4416
:102B5000187802E0422000E0FF202BB0F0BDC04614
:102B600030B589B001AD288002AC201C00211822AC
:102B700000F0E4FE3F2323802823FF336380A56019
:102B8000263BFF3BE3606B46033323610123636114
:102B9000201C002100F088F9002802DB6B46D87861
:102BA00000E0FF2009B030BD70B5A8B00C1C8B1C34
:102BB000802B25DC01AD287069706B46981D111CB7
:102BC000221C00F0B7FE0234E4B222AE301C002119
:102BD000182200F0B3FE3F233380333B7380B5608F
:102BE000F4607B336B44336101237361301C00213B
:102BF00000F05AF9002805DB87236B44187802E0BF
:102C0000422000E0FF2028B070BDC04630B589B03A
:102C100001AD2870697002AC201C0021182200F060
:102C20008DFE3F232380303B6380A5600D3BE36036
:102C30006B460333236101236361201C002100F0F4
:102C400033F9002802DB6B46D87800E0FF2009B09A
:102C500030BDC0464160024B1B6803607047C046F0
:102C600040000020044B1A680368D21A01324368FE
:102C700093428041404270474000002030B583B00D
:102C8000051C0C1C07E0201C01A900F013FA281CED
:102C9000019900F0FFF9201C00F0EEF90028F2D0B5
:102CA00003B030BD10B50A4800F0E2F9094800F061
:102CB000DFF9002408E08C216143074B59180448D0
:102CC00000F0E8F90134E4B2042CF4D910BDC04698
:102CD000D8050020E405002048000020037A042BDA
:102CE00007D1827A8433C35C033B9A4203D002202B
:102CF00002E0012000E000207047C04610B5A2B0FD
:102D00000023019300F01EFF1A4800F0B5F913E00C
:102D1000184C201C01A900F0CDF900F00DFF01981E
:102D2000083000F09BFD00F00DFF1348019900F002
:102D3000B1F9201C00F0A0F90028E9D00F4B1B7856
:102D4000002B0BD111E00E4802A9802200F07AFF7F
:102D5000C0B2002802D002A800F080FD00F0E2FE20
:102D60000028F0D10022054B1A7000F0E5FE22B0D9
:102D700010BDC046E4050020D80500200403002053
:102D80000030014008B5024800F076F908BDC046A1
:102D9000E405002030B583B000230193224B1D6869
:102DA000FA239B009C46654400F0D4FE36E01F48A1
:102DB00000F062F9002829D11C4801A900F07AF935
:102DC000019908311A48802200F03CFFC0B2002867
:102DD00011D0019C8823E054201CFFF77FFF0028BE
:102DE00004D11448211C00F055F908E00F48211CBB
:102DF00000F048F903E00D48019900F043F90A4B4F
:102E00001B68AB4208D900F0A5FE0BE001220A4B7B
:102E10001A7000F09FFE05E000F09CFE00F082FEBC
:102E20000028C4D103B030BD40000020D8050020E8
:102E300000300140E405002004030020F0B585B017
:102E4000061C0D1C03921C1C084B1F686437009461
:102E50000748311C2A1C039B00F050FF002803D0B8
:102E6000024B1B68BB42F2D905B0F0BD4000002008
:102E70000030014030B583B0141C1D1C8002890550
:102E8000890D084301A908808A7001236A461370DE
:102E9000501C032200F04EFD6846291C0422231C0E
:102EA000FFF7CCFF03B030BD70B586B0041C0E1C1C
:102EB000418803889A028B059B0D13439DB2002322
:102EC000039301A800F0D4F820886188227BA368CE
:102ED000FFF7D0FF002E00D084E004A86421FFF7A4
:102EE000B9FE04A8FFF7BEFE002872D1FFF74AFF23
:102EF0000028F6D100F026FE414803A900F0DAF8D8
:102F000003990B7A042B05D001A800F0C3F800F058
:102F100013FEE6E70E1C0B368823CA5CD01E4B7AE4
:102F20000F2B08D002D80E2B1ED03FE0102B50D014
:102F30003E2B2CD03AE00B1C4A7B0B33DB781B0278
:102F40001343AB4245D163680F2B03D0CB7A002BE0
:102F50002CD03EE06269824200DD021C6261206981
:102F6000311C00F0E7FC3DE00B1C087B0B339B7829
:102F70001B020343AB422CD10E31931F62699A426C
:102F800000DD1A1C6261206900F0D4FC2AE0CB7AD3
:102F9000606883420AD1131F62699A4200DD1A1CDD
:102FA00062610C31206900F0C5FC1BE001A800F053
:102FB00071F8144800F060F8002807D010486946FE
:102FC00000F078F80F48009900F064F800F0B4FDC4
:102FD00087E70B4801A9FFF751FE00F0ADFD012086
:102FE00040420AE00748039900F04CF8044801A960
:102FF000FFF744FE00F0A0FD002006B070BDC04603
:10300000E4050020D805002070B590B0041C0E1C0B
:1030100002AD281C0021202200F090FC2C701F2CF7
:1030200001D8221C00E01F2209206844311C00F056
:1030300081FC0AAC201C0021182200F07FFC082330
:1030400023800133638002ABA3602023E3606B46DF
:103050000733236101236361201C0021FFF724FF54
:10306000002802DB6B46D87900E0FF2010B070BD6D
:10307000006040607047C0460368181A42424241EF
:10308000D0B2704703680B60486001600B685960FC
:103090007047C046086043684B6041604B681960E8
:1030A0007047C046436802681A60036842685A6005
:1030B0007047C04610B50C1C03680B600068FFF732
:1030C000F1FF2268002313602268536010BDC046E0
:1030D00030B5114B1B88013398421CD10B881B055E
:1030E0001C0D002B02DAF0231B021C434B881B052E
:1030F0001D0D002B02DAF0231B021D43002208E005
:10310000064853009918C90041184C818D8101323D
:10311000D2B2022AF4D930BD1A0300208005002063
:1031200030B5B1B08A4C2CA8211C102200F0DCFF75
:10313000211C103128A8102200F0D6FF211C2031BC
:1031400024A8102200F0D0FF211C303120A810222A
:1031500000F0CAFF211C40311CA8102200F0C4FF5F
:10316000211C503118A8102200F0BEFF211C603134
:1031700014A8102200F0B8FF211C703110A81022F2
:1031800000F0B2FF0CA87349102200F0ADFF724AA4
:103190002E236B441A80714B009302202CA901222C
:1031A0002423FFF70BFB002800D0BBE06B4B1888F3
:1031B000062300930023019301330293102203920C
:1031C0000493674B0593022128AA0A23FFF736FBD5
:1031D000002800D0A8E0614B18880A230093002340
:1031E0000193012202920F32039204935D4B0593E7
:1031F000022124AA0423FFF721FB002800D095E038
:10320000564B188822230093002301930293102227
:1032100003920493544B0593022120AA0623FFF73F
:103220000DFB002800D083E04C4B1888222300932C
:103230000023019302931022039204934B4B0593B6
:1032400002211CAA0123FFF7F9FA002872D1434B8F
:103250001888022100910023019302931022039207
:103260000493434B059318AA0123FFF7E7FA0028BC
:1032700062D13A4B18881223009300230193042251
:1032800002920C32039204933A4B0593022114AA42
:103290000B1CFFF7D3FA002850D1304B18881223AB
:1032A000009300230193042202920C3203920493B0
:1032B000314B0593022110AA0B1CFFF7BFFA00281F
:1032C0003ED1264B18881223009300230193042239
:1032D00002920C3203920493284B059302210CAA0C
:1032E0001123FFF7ABFA041E2CD12D256D440023CA
:1032F0002B701A4A1088214A1188012200920192EB
:10330000029503930325049505920D3506950793C1
:103310001B4B08932E236B44FFF700FB002C13D1AB
:10332000002012E0472010E047200EE047200CE08C
:1033300047200AE0472008E0472006E0472004E055
:10334000472002E0472000E0472031B030BDC046B2
:103350001043000890430008FF29000018030020D4
:10336000060300201A0300200E0300201003002093
:103370000A03002014030020120300200803002089
:103380001603002070B582B0013880B2284B1B882C
:10339000984207D12749CA7B1023134302221343C3
:1033A000CB7343E0244B1988884203D0234B1B88FE
:1033B00098423BD188421FD11E4B9B7B002B1BD0D8
:1033C0001C4C227B9A432273637B013B6373002373
:1033D000A3731B4D2888231C0A330093002201236A
:1033E000FFF736FB2888144B19880B340094012210
:1033F0000123FFF72DFB07E00E4B9B7B002B03D136
:103400000C4B00221A735A730D4E30880B4D2988CD
:103410000C4C009400220123FFF71AFB3088298806
:103420000134009401220123FFF712FB02B070BDAA
:1034300008030020F00500201403002012030020E0
:1034400018030020FC05002000B589B006A81D491E
:103450001031062200F048FE00F052FB0020062149
:1034600006AAFFF7A1FBFFF78BF90120162169449B
:1034700005AA12236B44FFF77BF8134B1B680293DA
:1034800010230093002301930133039301200021B3
:1034900000220633FFF708F9FFF742FE002803D1A8
:1034A00001300421FFF7B2FB084B01221A70002201
:1034B0005A701A725A6096218900054A1180187450
:1034C00009B000BD9043000830000020F005002046
:1034D0006205002030B58FB00AAB00220C920D922D
:1034E00009211970403159700B3199700739D97021
:1034F0002039197103315971013199710339D97129
:1035000008A90A704A708A70CA700A7101200A32CA
:1035100000F0E6FD06E008AB5A789A701A785A7007
:1035200030221A7008AB9B78002BF4D008A9002435
:10353000CC700AAD281C00F05BFE00200021FFF7D4
:1035400063FD009410230193029503940494059461
:1035500006940020002100220023FFF741F80FB05D
:1035600030BDC04638B5264B1B88013398420FD179
:10357000117853781B020B43917809040B43D278DE
:10358000120613431F4A13601068FEF771FF36E0FE
:103590001D4B1B88984210D11378DB0704D51B49BB
:1035A000C87B01230343CB7313789B0727D5174AA6
:1035B000D17B08230B43D37321E0154B1B880133C8
:1035C00098421CD113881B051C0D002B02DAF02336
:1035D0001B021C4353881B051D0D002B02DAF02330
:1035E0001B021D43002208E00A4853009918C90035
:1035F00041184C818D810132D2B2022AF4D938BDF2
:1036000006030020D405002016030020F00500204A
:103610001A03002080050020064A0023537013720D
:10362000536001211170044A137096229200034BDB
:103630001A807047F00500200C030020620500206E
:1036400070B582B01F4B18881F4B19881F4B009311
:1036500000220123FFF7FCF900232FE01C4A927A95
:10366000002A29D0174D28881A4E31881A4C009408
:1036700000220123FFF7ECF928883188631C0093AE
:1036800001220123FFF7E4F923782371002323703B
:103690000A3C2888114E3188231C0C3300930022E9
:1036A0000123FFF7D5F9288831880D3400940122D1
:1036B0000123FFF7CDF903E00133DBB2072BCDD9AE
:1036C00002B070BD180300200A030020F905002095
:1036D000F005002014030020FA050020120300204A
:1036E00008B5034B01225A705980FFF7A9FF08BDA6
:1036F000F005002010B584B000241FE061000B1914
:10370000DB00154AD3181A8A02A80A5211B20C20FB
:103710001B5E994203DD0420FEF73EF80CE06300D7
:103720001B19DB000C49CB1812B20A215B5E9A42CE
:1037300002DA0420FEF730F80134E4B2022CDDD9BD
:10374000064B1888064B198802AB0093002206230B
:10375000FFF77EF904B010BD80050020180300209B
:103760000E03002010B584B0124C2178A3785B00C2
:103770000F226A440B4313700F4B18880F4B1988A4
:10378000009200220123FFF763F9227863789A42BE
:1037900004D1084B9A78DB789A4209D00220FDF7D1
:1037A000FBFFFDF7B7FF034B1A785A709A78DA706F
:1037B00004B010BD70050020180300201003002085
:1037C00000B583B00B1C054A128805490988009092
:1037D000101C0022FFF73CF903B000BD18030020C5
:1037E0000803002000B585B0FEF754FE0390064B99
:1037F0001888064B198803AB009300220423FFF7B7
:1038000027F905B000BDC0461803002006030020BC
:1038100070B584B00E494B890E226A441B051B0DFE
:1038200013808B8903AC1B051B0D2380094E308848
:10383000094D2988009200220223FFF709F93088F8
:103840002988009402220223FFF702F904B070BD18
:1038500080050020180300201A03002030B583B033
:103860000378042B59D1041C43783E2B0AD0FF2B3C
:1038700016D0052B51D1FFF7CFFE00200021FEF717
:103880005BFF4AE0C378012B47D10022244B1A800A
:1038900009306379A17909021943FFF721FF3CE060
:1038A000C27803791B0213431E4A93420FD01E4A6B
:1038B000934227D01D4A93422FD1021C0A32C3796A
:1038C000007A00021843617AFFF74CFE25E0021CE3
:1038D0000A32174B5888E379217A09021943637A2F
:1038E0000093019200220023FFF7F4F8637AE27953
:1038F000207A00021043211C0B31013BDAB2FFF7A2
:10390000E7FB0AE00A4B5888FFF72AF9E379207AA7
:1039100000021843A17AFFF735FD03B030BDC04661
:1039200062050020130C0000140C0000010C0000C4
:10393000F005002008B500F0D7FB08BD08B500F081
:1039400011FC08BDF0B55F4656464D464446F0B4FE
:1039500085B0484B984200D084E0474B9A6980215B
:1039600049010A439A615A69802189020A435A61CE
:103970005A6901273A435A619A693A439A6102ACFB
:103980000223029327710026A671E7719025ED05A9
:10399000281C211CFCF726FD66712B8D0222134387
:1039A0009BB22B8520239846029302239B462271CB
:1039B000A671E37103239A466371281C211CFCF74E
:1039C00011FD2B6B2D4A914613402B63402302932C
:1039D0005B462371A671E67153466371281C211C56
:1039E000FCF700FD2A6C264B13402B6480230293C6
:1039F0005B462371A671E67153466371281C211C36
:103A0000FCF7F0FC2B6E1B011B092B6610230293A5
:103A10002771A671E77153466371281C211CFCF7BE
:103A2000E1FC2B6B4A4613402B6302972671E6712B
:103A3000281C211CFCF7D6FC00976B461E7108233E
:103A40006A46537197716846FCF790FC0D4AC12194
:103A5000890050580C4B0340802000020343535010
:103A60004346136005B03CBC90469946A246AB461F
:103A7000F0BDC0460030014000100240FFFF0FFFC4
:103A8000FFFFFFF000E100E0FF00FFFF30B587B06F
:103A900001AC00232380822252006280E022D20007
:103AA000A280E3802381802292006281F93AFF3A6A
:103AB000A281E381073323820F4D281CFFF742FFC9
:103AC000281C211CFCF790FF281C0021FCF7C4FFD8
:103AD000281C0021FCF7CCFFAA88084B1340AB80C0
:103AE000AA8880235B011343AB80281C0121FCF7CB
:103AF000A7FF07B030BDC04600300140FFEFFFFF19
:103B000010B59024E405228D02231343238505205C
:103B1000FEF724FDA26902231343A3610520FEF7EB
:103B20001DFD10BD9023DB051B8ADB0701D501209D
:103B300000E000207047C0462022014B1A60704709
:103B400000E100E020218023014AD1507047C046A7
:103B500000E100E00122014B5A617047000401407E
:103B6000F0B5474680B4069D344C2468A046A8446E
:103B7000002958D0002A58D0002B58D0DBB2012B96
:103B800004D987882E4C3C40848004E087888024B8
:103B900064013C4384800488640603D4078840247D
:103BA0003C4304801F1C32E0002F0FD00489A4077F
:103BB0000CD5012F05D90C8884810231023FFFB258
:103BC00004E00C780473013FFFB20131002B18D0E0
:103BD0000489E40715D5012B0ED98489148002329B
:103BE000023BDBB2012B0CD88488A44680246401FC
:103BF00066463443848004E0047B1470013BDBB2EE
:103C00000132002D03D00D4C2468444511D23C1CD8
:103C10001C43E4B2002CC7D1102303810289134056
:103C20000381032006E0032004E0032002E00320D8
:103C300000E0012004BC9046F0BDC04640000020DA
:103C4000FFEFFFFFF0B58BB0051C03900F1C141C99
:103C5000FF221F2302A98C4663441A7008A90B2374
:103C60000B7000234B708B70CB700B719022D205C0
:103C7000108D10330343138506AE0F230093281CC9
:103C8000321C0A3BFFF76CFF3378022B20D106AAC7
:103C900013791B02D27813431CD0A5B29D4200D3E6
:103CA0001D1C002410E01E2602AB9C4666440F2318
:103CB000009303981F216144321C0123FFF750FF3A
:103CC00033783B550134E4B2A3B2AB42EBD302E00C
:103CD000002400E000249022D205916910230B43B8
:103CE00093610023059303E0C046059B01330593D0
:103CF000059B012BF8DD201C0BB0F0BDF0B5CBB05F
:103D00000390059104921E1C50AB1F7848AD0A2306
:103D10002B7000226A70AA70EA702A7146ACA03338
:103D200023706270A270E2702271FFF70BFF902186
:103D3000C9050A8D10231A430A85013B0093039895
:103D4000291C221C0A3BFFF70BFF2378022B1AD1F8
:103D500046AB5A78F3199A4218DB002E07D0B3B25B
:103D60000F2200920398059906AAFFF7F9FE002F8B
:103D70000FD0BBB20F2200920398049906AAFFF756
:103D8000EFFE002406E00124644203E002246442C2
:103D900000E000249022D205916910230B43936127
:103DA000FFF7CAFE201C4BB0F0BDC04600224308FE
:103DB0008B4274D303098B425FD3030A8B4244D3F3
:103DC000030B8B4228D3030C8B420DD3FF22090235
:103DD00012BA030C8B4202D31212090265D0030BF4
:103DE0008B4219D300E0090AC30B8B4201D3CB03EA
:103DF000C01A5241830B8B4201D38B03C01A52412C
:103E0000430B8B4201D34B03C01A5241030B8B422D
:103E100001D30B03C01A5241C30A8B4201D3CB0218
:103E2000C01A5241830A8B4201D38B02C01A5241FD
:103E3000430A8B4201D34B02C01A5241030A8B4200
:103E400001D30B02C01A5241CDD2C3098B4201D318
:103E5000CB01C01A524183098B4201D38B01C01A96
:103E6000524143098B4201D34B01C01A524103090D
:103E70008B4201D30B01C01A5241C3088B4201D3BC
:103E8000CB00C01A524183088B4201D38B00C01A69
:103E9000524143088B4201D34B00C01A5241411A90
:103EA00000D20146524110467047FFE701B500209D
:103EB00000F0FCF802BDC0460029F7D003B5FFF7BB
:103EC00075FF0EBC4243891A1847C04603460B4390
:103ED0007FD4002243088B4274D303098B425FD303
:103EE000030A8B4244D3030B8B4228D3030C8B422F
:103EF0000DD3FF22090212BA030C8B4202D3121215
:103F0000090265D0030B8B4219D300E0090AC30BE9
:103F10008B4201D3CB03C01A5241830B8B4201D396
:103F20008B03C01A5241430B8B4201D34B03C01A7F
:103F30005241030B8B4201D30B03C01A5241C30AF7
:103F40008B4201D3CB02C01A5241830A8B4201D368
:103F50008B02C01A5241430A8B4201D34B02C01A52
:103F60005241030A8B4201D30B02C01A5241CDD2F7
:103F7000C3098B4201D3CB01C01A524183098B4242
:103F800001D38B01C01A524143098B4201D34B012B
:103F9000C01A524103098B4201D30B01C01A52418E
:103FA000C3088B4201D3CB00C01A524183088B4215
:103FB00001D38B00C01A524143088B4201D34B00FE
:103FC000C01A5241411A00D2014652411046704770
:103FD0005DE0CA0F00D04942031000D34042534075
:103FE00000229C4603098B422DD3030A8B4212D335
:103FF000FC22890112BA030A8B420CD38901921167
:104000008B4208D3890192118B4204D389013AD0A3
:10401000921100E08909C3098B4201D3CB01C01A78
:10402000524183098B4201D38B01C01A524143098B
:104030008B4201D34B01C01A524103098B4201D379
:104040000B01C01A5241C3088B4201D3CB00C01AE6
:10405000524183088B4201D38B00C01A5241D9D2FE
:1040600043088B4201D34B00C01A5241411A00D27F
:104070000146634652415B10104601D34042002B7B
:1040800000D54942704763465B1000D3404201B5FA
:10409000002000F00BF802BD0029F8D003B5FFF7AF
:1040A00015FF0EBC4243891A1847C0467047C046E8
:1040B000931E10B5222B0FD80A2A06D000230C1C01
:1040C000C91800F0C5F8201C10BD0028F6DA2D2311
:1040D00040420B702C3BF2E7002300200B70F3E70B
:1040E00008B5FFF7E5FF08BD70B50F2A32D9041CEB
:1040F0000C430B1CA40731D1151C041C103D2D09C9
:1041000001352D0149191E6826605E6866609E684B
:10411000A660DE681033E66010349942F3D10F23B5
:1041200045191340032B1BD91C1F0023A40801347D
:10413000A400CE58EE500433A342FAD1ED18C918AA
:1041400003231A4005D00023CC5CEC540133934286
:10415000FAD170BD051C002AF5D1FAE7051CF2E77B
:104160001A1CF8E770B583073FD0541E002A3BD0D5
:10417000CEB2031C032503E0621E002C34D0141CB5
:1041800001335A1E16702B42F6D1032C24D9FF2579
:104190000D402A0215432A0415430F2C11D9261C61
:1041A000103E3609013636011A1C9B191560556000
:1041B0009560D56010329342F8D10F221440032C41
:1041C0000AD9261FB6080136B6001A1C9B1920C250
:1041D0009342FCD103221440002C05D0C9B21C1913
:1041E00019700133A342FBD170BD141C031CCCE732
:1041F00038B5051CAB0716D12A680F4B0F4CD318E6
:104200009343234216D1043002680B4BD3189343D7
:10421000234208D104300268074BD318934323424A
:10422000F1D000E001300378002BFBD100F008F85A
:10423000281C38BD281CF6E7FFFEFEFE808080802B
:10424000031C0A7801311A700133002AF9D1704732
:10425000F0B5574645464E46E0B48AB090466A46A9
:104260001D4B0D1C061C13CB13C213CB13C213CB57
:1042700013C21B78EA4613704346023B2F1C0024EE
:10428000222B01D924E04C46631C301C4146994640
:10429000FFF712FE53465B5C301C3B704146FFF754
:1042A00085FD0137061EEED14B46E8540023002C55
:1042B00007D0EA5C295DE9542A550133013CA34249
:1042C000F7DB281C0AB01CBC90469946A246F0BDFC
:1042D0002C700020F6E7C046A8430008F00000005C
:1042E00000001F003C005B0079009800B600D5007C
:1042F000F400120131014F0100001F003B005A0081
:1043000078009700B500D400F300110130014E0190
:10431000669A0C200008969EE2119EB130F273D985
:10432000669A0C200008969EE2119EB131F273D974
:10433000669A0C200008969EE2119EB132F273D963
:10434000669A0C200008969EE2119EB133F273D952
:10435000669A0C200008969EE2119EB134F273D941
:10436000669A0C200008969EE2119EB141F273D924
:10437000669A0C200008969EE2119EB142F273D913
:10438000669A0C200008969EE2119EB143F273D902
:10439000669A0C200008969EE2119EB152F273D9E3
:1043A000010000E18002000030313233343536370D
:1043B00038396162636465666768696A6B6C6D6EE3
:1043C0006F707172737475767778797A0000000077
:1043D00078563412000000000102030401020304B5
:1043E000060708093C000020000000000000000053
:1043F000000000000102030406070809006CDC024B
:0844000040E2010032547698FD
:04000005080000C52A
:00000001FF
