:020000040800F2
:1000000000100020DD010008B5160008B916000830
:1000100000000000000000000000000000000000E0
:10002000000000000000000000000000BD160008F5
:100030000000000000000000C1160008C5160008FE
:100040001502000800000000150200081502000853
:1000500015020008451700081502000825170008BA
:100060000000000015020008150200081502000833
:100070001502000815020008150200080000000023
:100080003117000800000000000000001502000801
:100090001502000835170008391700081502000876
:1000A000150200081502000815020008D9160008FC
:1000B0001502000800000000000000000000000021
:1000C0005FF808F130B583B000F002FD314B324AE1
:1000D0001360324A1360324B324A03E011681960F0
:1000E0000433043230498B42F8D32B4B1A682F4B20
:1000F0009A4204D1294B1A682D4B9A4200D0FEE750
:10010000244B2C4A13602C4A13602C4B02E0002233
:100110001A6004332A4A9342F9D3264B1B68002BFA
:1001200003D1254B1B68002B00D0FEE700F0D4FC68
:1001300001A8694600F0C4FC224C234B1C1BA410F0
:10014000002504E0AA001F4BD35898470135AC4264
:10015000F8DC1E4C1E4B1C1BA410002504E0AA005A
:100160001A4BD35898470135AC42F8DC01980099F6
:1001700001F042F9051C174C174B1C1BA41004E09E
:10018000013CA200134BD3589847002CF8DC281CE4
:1001900000F094FCBABADECA00000020340000204F
:1001A00000000020A43700083800002078563412E0
:1001B000325476983800002058060020380000207D
:1001C0005C060020400200084002000840020008CF
:1001D00040020008400200084002000808B5FFF78E
:1001E00071FFC04600BEFEE704207146084202D0FF
:1001F000EFF3098001E0EFF308807146044A1047ED
:1002000000BEFEE700BEFEE700BEFEE7704700004E
:080210000102000800BEFEE738
:10021800A43700080000002038000020A437000898
:100228000000000000000000380000205C060020EC
:080238000000000000000000BE
:100240000268264B13400360002303604360836011
:10025000C360234B984205D1224A51680F230B43B8
:10026000536039E0204B984205D11E4A5168F02373
:100270000B43536030E01D4B984206D1194A536836
:10028000F02109010B43536026E0194B984206D137
:10029000144A5368F02109020B4353601CE0154BCC
:1002A000984206D10F4A5368F02109030B4353606B
:1002B00012E0114B984206D10A4A5368F021090412
:1002C0000B43536008E00D4B984205D1054A536833
:1002D000F02109050B4353607047C046FEFF000044
:1002E00008000240000002401C00024030000240B2
:1002F00044000240580002406C000240800002406E
:1003000010B502680C4B1A408B680C6A23430C69C9
:1003100023434C6923438C692343CC6923434C6AB0
:1003200023438C6A234313430360CB6843600B6809
:1003300083604B68C36010BD0F80FFFF002904D0AD
:10034000026801231343036003E00268014B13407A
:1003500003607047FEFF0000034B1B68184201D08A
:10036000012000E0002070470000024010B58379B2
:10037000002B2CD01A4B1A6801688A431A605A68FD
:1003800001688A435A6002799C4662441168046895
:10039000214311609A6801688A439A60DA680168AB
:1003A0008A43DA604379102B09D163469A68016861
:1003B0000A439A60D96802680A43DA600FE0084A83
:1003C00094466344196802680A431A6007E0037997
:1003D000034A944663441A6801688A431A6010BD50
:1003E00000040140F0B500223CE0012393400C687A
:1003F0001C409C4235D10B79013B012B18D88468F5
:1004000056000325B540AC43846085684C79231CB5
:10041000B3402B43836083881404240C0125A5403A
:10042000AB43838086888D79A540ABB2334383800C
:10043000036857000326341CBC40A34303600368D1
:100440000D792C1CBC401C430460C3681404E40BED
:10045000A640B343C360C568CC79231CBB402B4383
:10046000C36001320F2AC0D9F0BDC04610B50C4B95
:1004700098420AD18024A403201C012100F0E0F856
:10048000201C002100F0DCF809E08024E403201C9B
:10049000012100F0D5F8201C002100F0D1F810BD9A
:1004A0000054004070B5041C5D4B5B680C22134087
:1004B000042B0CD002D8002B05D028E0082B0AD042
:1004C0000C2B20D023E0574B0360002022E0564B3A
:1004D000036000201EE0524B586880025A68000FEB
:1004E000851CC0235B021A4202D15048684308E0D1
:1004F0004B4BDB6A0F21194001314B4802F042FEA1
:100500006843206006E04A4B0360002002E0454B50
:100510002360002042494B681B061B0F454DEB5CD6
:10052000DBB22668321CDA4062604B685B055B0F09
:10053000EB5CDBB2DA40131CA2600A6BD20502D47A
:100540003D4AE26008E0364A5268520402D45A0832
:10055000E26001E09A08E260314A126B520602D46E
:10056000364A226102E08022120222612C4A126B7A
:10057000D20602D42B4A626100E06661284A126BFF
:10058000920701D1A36119E0254A126B03210A40A9
:10059000012A01D1A66111E0214A126B03210A4010
:1005A000022A03D180221202A26107E01C4A126BC8
:1005B00003210A40032A01D11A4AA261184A116B89
:1005C000C0229202114201D1E36120E0144B1A6B68
:1005D000C0239B02134080225202934201D1E66164
:1005E00015E00F4B1A6BC0239B021340802292022E
:1005F000934203D180231B02E36108E0084B1B6B8D
:10060000C02292021340934201D1064BE361044B96
:100610001B6B1B0602D4064B236200E0206270BDF8
:100620000010024000127A000024F40000093D008E
:10063000006CDC0204000020809FD50012800000C6
:10064000002904D0044B1A691043186103E0024AE0
:10065000136983431361704700100240002303E0D5
:100660000133DBB20A38C0B20928F9D81B01DBB26A
:100670001843704702099300D3185A000F231840FB
:100680001018C0B27047C04682B000230193104BCF
:10069000DB685B0617D4012252420D4BDA600C4B2B
:1006A000DB6840221A40019B0133019301998023AA
:1006B000DB01994201D0002AF1D0054BDB685B06D3
:1006C00003D5012002E0012000E0002002B07047C5
:1006D00000280040024AD36880218B43D3607047D2
:1006E0000028004082B000230193144B9B689B06B6
:1006F00021D4124BCA225A62773A5A62DA68A02190
:100700008A43DA600D4BDB6820221A40019B0133DB
:100710000193019980231B02994201D0002AF1D054
:10072000064BDB689B0601D5012000E00020FF227C
:10073000024B5A6200E0012002B0704700280040DE
:1007400038B50C1C002806D1254B9B685B0608D4E5
:100750000023CB7005E0224B9B685B0601D400238D
:10076000CB7000280BD02378180463781B02034356
:10077000A0781843E3781B041843041C10E0207889
:10078000FFF76CFF05046078FFF768FF0002054380
:10079000A078FFF763FF0543E3781B042C1C1C4380
:1007A0000F4BCA225A62773A5A62FFF76DFF002850
:1007B0000DD00C4804400A4D2C60FFF78BFFAB684E
:1007C0009B0606D4FFF78EFF002804D104E000202A
:1007D00002E0012000E00120FF22014B5A6238BDF7
:1007E000002800407F7F7F00F8B5104B1A68970201
:1007F000BF0E0F705604760E4E707F2515408D701B
:100800008023DB0313401B0CCB7000280CD10C1C85
:10081000381CFFF72FFF2070301CFFF72BFF607094
:10082000281CFFF727FFA070F8BDC0460028004035
:1008300038B50C1C002806D14B78DA0603D51022F7
:1008400093430A334B7000280BD0E3781804637885
:100850001B020343A078184323785B031843041C4E
:1008600010E0E078FFF7FAFE05046078FFF7F6FE87
:1008700000020543A078FFF7F1FE054323785B03F0
:100880002C1C1C430F4BCA225A62773A5A62FFF75C
:10089000FBFE00280DD00C4804400A4D6C60FFF7A9
:1008A00019FFAB689B0606D4FFF71CFF002804D194
:1008B00004E0002002E0012000E00120FF22014BC3
:1008C0005A6238BD002800403FFFFF0070B50F4B53
:1008D0005B681A02120ECA70DE04F60E4E703F25D7
:1008E0001D408D701B045B0F0B7000280CD10C1C7D
:1008F000101CFFF7BFFEE070301CFFF7BBFE6070FE
:10090000281CFFF7B7FEA07070BDC046002800404D
:10091000F0B50688C1239B011E400C88CD89CB8889
:100920009C460A894B898F892C4365462C43224378
:100930001A433B1C1343334303808288084B134004
:100940008A88134383800B8A03820388042293439B
:100950004A8813430380828B024B13408383F0BD8C
:10096000FFF0FFFFFFF7FFFF002904D002884023BC
:100970001343038003E003884022934303807047BE
:10098000002904D0828810231343838003E08388E6
:100990001022934383807047002905D0028880236A
:1009A0009B011343038003E00288024B1340038042
:1009B0007047C046FFDFFFFFF0B58DB0041C0D1C73
:1009C00003680122934303604268284B13408A68FE
:1009D000134343600268264B1A404B68C9680B43B7
:1009E00029690B43134303608268224B13406A69F1
:1009F0001343836003A8FFF755FD1F4B9C4201D1B1
:100A0000099E05E01D4B9C4201D10A9E00E0059E17
:100A100023681B040CD576002B68301C0193191C2D
:100A200002F0B0FB071C301C019902F031FC0AE017
:100A30002B68301C0193191C02F0A4FB071C301C0E
:100A4000019902F025FC2B685B088B4200D8013726
:100A500023681B0405D53B075B0F094A3A401A433C
:100A6000171CBBB2A3810DB0F0BDC046FFCFFFFF86
:100A7000F3E9FFFFFFFCFFFF0038014000440040A6
:100A8000F0FF0000002904D0026801231343036033
:100A900003E003680122934303607047808CC00524
:100AA000C00D7047002A03D083681943816002E0BB
:100AB00083688B438360704701627047FEE7C046DE
:100AC00001230360014B0B607047C04614000020F7
:100AD00008B500F05DF808BD08B500F08BF808BD5A
:100AE00082B0002301930093264A136880214902B3
:100AF0000B431360234B1A6880239B02134000931F
:100B0000019B01330193009B002B04D1019AA02388
:100B1000DB019A42EED11B4B1B689B0302D50123DC
:100B2000009301E000230093009B012B28D11122A8
:100B3000154B1A60134B5A685A605A685A605968C4
:100B4000124A0A405A605A68A021C9020A435A60F0
:100B50001A68802149040A431A600A4B1B689B01EA
:100B6000FBD5084B5A6803218A435A605968022210
:100B70000A435A60034B5B680C221340082BF9D1DF
:100B800002B070470010024000200240FF7FC0FF0B
:100B900008B5124B1A6801210A431A605868104AB6
:100BA00002405A6018680F4A02401A6018680E4ADC
:100BB00002401A6058680D4A02405A60DA6A0F20F3
:100BC0008243DA62186B0A4A02401A635A6B8A43FC
:100BD0005A6300229A60FFF783FF08BD00100240AD
:100BE0000CB8FF08FFFFF6FEFFFFFBFFFFFFC0FF93
:100BF000ACFEFFFF10B51E4B5B680C221340042BAC
:100C000007D0082B09D0002B22D11A4A1A4B1A60A0
:100C100021E01A4A184B1A601DE0154B5C68A402CB
:100C20005A68240F0234C0235B021A4204D11448CC
:100C30004443114B1C600EE00D4BDB6A0F21194041
:100C400001310E4802F09EFA44430B4B1C6002E057
:100C5000084A094B1A60064B5B681B061B0F094AC2
:100C6000D35CDBB2044A1168D940116010BDC046A4
:100C70000010024000127A002C0000200024F40032
:100C800000093D001C00002010B50B4C201CFFF794
:100C9000EDFB2268802313432360084AC5218900A5
:100CA00053581B021B0AC0200006034353508023E5
:100CB0001B041360002010BD0054004000E100E060
:100CC000294B2A4AD35C012B01D0D8B24AE0284BE9
:100CD0005A68920A92025A605968C203D20F0A43B4
:100CE00050210A435A605968224A0A405A605A6899
:100CF000802189020A435A6059681F4A0A405A6093
:100D00005A68802189010A435A601C4B1A68643270
:100D100003E01A4B1B6893421FD8154B9B699B0736
:100D2000F7D503041B0E12498B6203E0134B1B68BB
:100D3000934214D80E4B9B699B07F7D5FF231840AD
:100D40000B4B986203E00D4B1B68934209D8084B8C
:100D50009B695B06F7D5012004E0032002E0032035
:100D600000E0032040B270470B0200002003002087
:100D700000540040FFFF00FFFFFBFFFC400000208D
:100D800070B5061C0C1C1F4B1F4AD05C012801D0FB
:100D9000C0B234E01C4D02221A4BEA54281C311C0C
:100DA000221C02F08DFBE3B282229200AB54174A60
:100DB000AB5480235B00ED50154B1968193AFF3A8C
:100DC0000A431A605968134A0A405A605A68FF2158
:100DD0000C40240414435C6059680F4A0A405A606E
:100DE0005A68802189040A435A6059680B4A0A40AC
:100DF0005A605A68802189010A435A60002040B233
:100E000070BDC0460B020000200300200A02000053
:100E100000540040FFFF00FFFFFFFFFEFFFBFFFF4E
:100E200038B50D1C141CFFF74BFF031CC0B2064A5B
:100E300006498854012804D1281C211CFFF7A0FF73
:100E4000031C58B238BDC0460B020000200300202E
:100E500010B53A4B3A4AD35C012B01D0D8B26BE0C3
:100E6000374B0224354A9C54CAB2364C1A55364C7C
:100E70001A55812292009850344B1868133AFF3A61
:100E800002431A605868324A02405A605A68FF208A
:100E9000014009041143596059682E4A0A405A60BA
:100EA0005A68802189040A435A605A688021C9001F
:100EB0000A435A605A68802189010A435A60264BC6
:100EC0001A68643218E0244B1B68934231D81F4BD8
:100ED0009B695B07F7D51A4B8120800019584C1C81
:100EE0001C501A48406A08701748195C0139195497
:100EF0001448195C01311954134B1149CB5C002B78
:100F0000E5D103E0144B1B68934214D80F4B9B6947
:100F10009B06F7D40D4B1A68F2218A431A60D969EF
:100F200020220A43DA6159680C4A0A405A600020BC
:100F300002E0032000E0032040B210BD0B020000DD
:100F400020030020090200000A02000000540040B3
:100F5000FFFF00FFFFFFFFFE4000002000E800FE53
:100F600038B50D1C141CFFF7ABFEC0B2094B0A4A82
:100F7000D05401280DD1281C211CFFF769FFC0B2F5
:100F8000044B054AD054002802D10121D15400E07D
:100F9000002038BD0B0200002003002008B500230C
:100FA0001E4A53601E4A5360FFF76EFE002832D17E
:100FB0008020800019491022FFF7D2FF002805D1B8
:100FC000164B5A6884239B009A420BD0134B002285
:100FD0001A705A709A7008321A72124ADA608422B1
:100FE00092005A6010480E491022FFF7B9FFC0B2B4
:100FF000002804D10A4B5A680C4B9A420CD0084B7B
:1010000000221A705A709A7008321A72084ADA600E
:10101000064A5A6000E0042040B208BD480500209E
:101020005805002060270000003D0100103D010030
:1010300088130000054B3F225A7200229A72DA721E
:101040001A735A739A7300207047C046DC0500205B
:1010500010B5041C40782378984204D1A278012A64
:1010600001D1013323702378E268934201D1002338
:101070002370227A504363689C46604492B2FFF723
:10108000CFFE002818DB63780133DBB26370E268BF
:10109000934201D100236370627823789A4201D190
:1010A0000123A37060681038211C1022FFF7B8FEDE
:1010B000002803DAFF2002E0FF2000E0012040B218
:1010C00010BDC04610B503784278934202D18278B1
:1010D000002A16D0041C00228270027A5343406812
:1010E000C01892B2FFF73CFF00280CD123780133DF
:1010F000DBB22370E268934207D1002323700130F2
:1011000004E0002002E0024800E0012000B210BD2F
:10111000FFFF000010B584B000F062FC01900023D6
:101120000293039300211EE04A005318DB0012488B
:10113000C3181B8A1B051B0D521892002020404229
:10114000101803D41C1C8440201C03E02024A41A83
:10115000181CE0409340029A1343039A10430293F1
:1011600003900131C9B20129DED9044801A9FFF772
:101170006FFF04B010BDC046880500204805002060
:1011800030B585B0051C164801A9FFF79BFFC4B216
:1011900063B2013302D0002C06D00BE0281CFF21E3
:1011A000082202F0CBF917E0281C0021082202F0E7
:1011B000C5F911E0019B2B6000220BE0029BA918EE
:1011C0000B71039908051B0B0343090B0293039151
:1011D0000132D2B2032AF1D960B205B030BDC046A7
:1011E0004805002008B50C4B5B7A184010D00A4B1C
:1011F0009A7A02439A721A7B10431873DA7A013290
:10120000DA725A7B01325A7301F066FC002000E06A
:10121000FF2040B208BDC046DC05002010B584B0F8
:101220000C1C00280CD0164BDB7B9B070DD56846A9
:10123000FFF7A6FF002808DA4020FFF7D3FF04E0FD
:10124000684600210C2202F079F9002C0CD00C4BDE
:10125000DB7BDB060DD503A8FFF792FF002808DA39
:101260004020FFF7BFFF04E003A80021032202F0A3
:1012700065F968460F2101F0CDFC002004B010BDD7
:10128000DC05002000B58DB000230B930A93444A7F
:101290001368802149020B431360414B1A68802375
:1012A0009B0213400A930B9B01330B930A9B002B69
:1012B00004D10B9AA023DB019A42EED1384B1B6874
:1012C0009B0302D501230A9301E000230A930A9BA2
:1012D000012B31D11122334B1A60314B5968032055
:1012E000814359605A685A605A685A60DA6A024300
:1012F000DA6219682C4A0A401A601A6859682B4A3F
:101300000A405A605A68A021C9020A435A601A6802
:10131000802149040A431A60214B1B689B01FBD5BD
:101320001F4A536802210B4353601D4B5B680C221C
:101330001340082BF9D101E000F0BEF901A8FFF736
:10134000B1F80298FA21890001F01CFF0138184B0E
:1013500098420DD8174A506017490B6A1B021B0AA6
:10136000C020000603430B62002393600733136021
:10137000114A136A1B021B0A1362802109060F4BD4
:101380001960136A1B021B0AC02109060B43136272
:10139000084A116804230B4313600DB000BDC0461A
:1013A0000010024000200240FFFFFFFEFF7FC0FF51
:1013B000FFFFFF0010E000E000ED00E000E100E0D2
:1013C00008B50C4B1B78002B04D001F0E5FA002285
:1013D000084B1A70074BDB7B09221A4208D0054BD9
:1013E000D97BC807C00FC0B20907C90FFFF716FFA6
:1013F00008BDC046DC05002008B5FFF743FF002309
:101400000A4A13600A4A1360FFF7C8FDFFF712FE8D
:1014100001F028FD00F0C4FE01F07CFA00F00CFBA6
:1014200000F0EAFEFFF7CCFFF8E7C04640050020D9
:1014300030050020FEE7C04600230AE0C20702D5BF
:10144000FF220A7001E000220A70013140080133D6
:10145000DBB2072BF2D97047002300220AE05208C2
:101460000178FF2903D18039FF390A43D2B2013014
:101470000133DBB2072BF2D9101C7047F0B54F4691
:101480004646C0B48DB0051C344F381CFEF7D8FE5C
:10149000334B0193334B99460293002403940495F4
:1014A00005948023984606930794089409940A9417
:1014B0000B94381C01A9FEF723FF2B4E301CFEF7BE
:1014C000BFFE2A4B01934B460293102303930495CE
:1014D0000594434606930794089409940A940B9440
:1014E000301C01A9FEF70CFF3A6801231A433A6049
:1014F0003268134333601E4C201CA021FFF7DCFA36
:10150000226A402313432362201CC0210122FFF7DB
:10151000C9FA184B1C68F534FF3403E0154B1B68FF
:10152000A34214D880208000FEF716FF0028F5D0D3
:101530000D480021FEF702FF08480021FEF7FEFEDD
:101540000B48C0210022FFF7ADFAE8B200E0FF200F
:1015500040B20DB00CBC90469946F0BD3000024040
:1015600024380140B80500201C0002402838014002
:10157000003801404000002030B587B096239B0121
:101580000093002301930293039305930C33049378
:10159000224C201C6946FFF70FFA201C0121FFF79F
:1015A00071FAF02323851D4BDB695B06FBD51B4AD3
:1015B000116A40230B431362194B1C68F534FF3446
:1015C00005E0174B1B68A34201D9FFF733FF134B0C
:1015D000DB699B06F5D51148FFF760FAC4B20F4BE3
:1015E000DB699B06FBD4E1235B020093002301939C
:1015F0000293039305930C330493084D281C69460A
:10160000FFF7DAF9281C0121FFF73CFAF02C01D092
:10161000002000E0022007B030BDC0460038014085
:1016200040000020F0B5474680B40E1C141C9846BC
:1016300006AB1F7807AB1D78012823D1FFF79CFF6D
:1016400002281FD123E030781249FFF7F5FE01365A
:10165000013CE4B20820FFF711FF002816DB002D43
:101660000CD1002F0AD00B48FFF7F6FE4346187046
:1016700001239C46E044013FFFB203E0FF2D01D06F
:10168000013DEDB2002CDED1002000E0FF2004BCC3
:101690009046F0BDB80500200448028A04490123A1
:1016A0001A400A70028A13408B7070470004004889
:1016B000780500207047C046FEE7C0467047C04628
:1016C0007047C04608B5034A13680133136000F041
:1016D00097F908BD4000002080210905C0235B0068
:1016E0000B4AD1500B4BDB699B0607D50A4A13788E
:1016F0000849888C0949C85401331370054BDB69CC
:101700001B0603D5064A1378013313707047C04691
:1017100000E100E0003801407C050020B805002011
:10172000C00500200122014B1A70704744000020C0
:101730007047C0467047C0467047C04608B500F0C5
:10174000A7FD08BD08B5084B5B69DB0705D501227D
:10175000054B5A610120FFF7F1FF2021C0235B00F8
:10176000024AD15008BDC0460004014000E100E03B
:1017700070B586B003A9CC230B70883B4B70002357
:101780000093FF330193012002220023FFF74AFF59
:101790009024E405A3698025ED002B43A3612E4B23
:1017A0001B682360BE2000F07BF92C4B1B68236074
:1017B000238D1D432585002449E063001B19DB00B0
:1017C000274AD3181A685B68111C19433DD003A936
:1017D00055200870483868440270160A4670160C86
:1017E0008670120EC27003711A0A42711A0C82714D
:1017F0001B0EC37100230093FF33019301200922C4
:101800000023FFF70FFF02280BD1154E63001A19B2
:10181000D200B2180020002110605160022393739F
:1018200013E003A9BE230B7002AEBC3B0093013B47
:10183000019302200322331CFFF7F4FE3388620079
:101840001519ED00064A55192B820134E4B2012C1A
:10185000B3D906B070BDC0468005002070050020D9
:101860008805002070B54478651EC3785C1EE217B9
:10187000920F121992109C0703D1002B03D1114E25
:1018800002E0104E00E0104E6C00345F1219013A75
:101890006E24FF3463439B188078C3180B4A944628
:1018A00063440878E12212014243141C4878020183
:1018B000101A800000198A781218054843439818B6
:1018C00070BDC046CC360008B4360008219CFFFF2E
:1018D00080510100F8B5051C0F1C002A02DB161C04
:1018E000314C02E0314BD6180024301C304901F055
:1018F00049FC0419301C2E4901F0CAFC0E1C081CBE
:10190000E121090101F03EFC3870301CE1210901A0
:1019100001F0BEFC0E1C081C3C2101F033FC787069
:10192000301C3C2101F0B4FCB970201D072101F0EE
:101930009FFD2970201C6E21FF3101F0B3FC00E0F7
:10194000301C461EF3179B0F9B199B10032101406F
:1019500003D1002803D1174A02E0164A00E0164AD4
:101960000027D75FDF196E23FF334343FB18A342E1
:10197000E6DCE31AE870002903D1002803D10D4CFE
:1019800002E00C4C00E00C4C0C2101394A00A2187A
:101990000026905F9842F8DC0131697014881B1BA7
:1019A0000133AB70F8BDC046DF630000807EAA83C0
:1019B00080510100CC360008B436000800B583B071
:1019C000021C684601A9FFF785FF002001A9FEF768
:1019D000B7FE00206946FEF72BFF03B000BDC046EE
:1019E00000B583B0002001A9FEF7FEFE0020694685
:1019F000FEF76CFF684601A9FFF734FF03B000BD96
:101A00000A4B1B68012B02D9013B084A1360084BA3
:101A10001B68012B02D9013B054A1360054B1B686B
:101A2000012B02D9013B034A136070474005002097
:101A3000300500204405002008B5134B1B68012B1E
:101A400006D1124B1B6801330F4A1360FFF762FB8C
:101A50000F4B1B68012B08D10E4A12689B180C4AC9
:101A60001360FFF785FE01F073F80B4B1B68012B29
:101A700008D10A4A12689B18074A1360FFF70CFE48
:101A800001F09CF808BDC046400500203805002044
:101A90003005002034050020440500202C050020DE
:101AA000034B1B681818024B1B688342FBD370471B
:101AB00040000020F0B58DB00F1C0092019305ADE1
:101AC000287003AE301C0021072201F023F906AC78
:101AD000201C0021182201F01DF93F2323804B33E5
:101AE0006380A560893BE360266106336361201C47
:101AF000002100F049FC002811DB03AB1878002816
:101B00000ED1039C220A3A80D9781A7912020A432C
:101B100000990A805B681B0A019A138000E0FF208D
:101B20000DB0F0BDF0B595B000931AAB1F781BABAC
:101B30001E781DAB1C786B46D98001AB1A80331917
:101B40000E33282B4CD803AD28700D2068446B460B
:101B5000991D022201F0DAF80F20684401A902223F
:101B600001F0D4F8009B6B71AF71EE7105A81C9960
:101B7000321C01F0CBF80836F6B2AC550136F6B29D
:101B8000A8191E99221C01F0C1F83419E4B22819D1
:101B90001FA9022201F0BAF8A01CC0B2281820A97F
:101BA000022201F0B3F80434E4B20EAE301C00217E
:101BB000182201F0AFF83F23338044337380B560BF
:101BC000F4604C3B6B44336101237361301C002192
:101BD00000F0DAFB002805DB37236B44187802E0BD
:101BE000422000E0FF2015B0F0BDC046F0B54F46E2
:101BF0004646C0B48FB0994616AB1B78984617ABD3
:101C00001F78189C19AB1E7801AD287069706B465F
:101C1000981D111C102201F079F84B46AB74434615
:101C2000EB742F7519236B441C70220A5A70220C16
:101C30009A70240EDC706E7608AC201C00211822ED
:101C400001F068F83F23238047336380A5606C3B35
:101C5000E3606B460333236101236361201C002191
:101C600000F092FB002802DB6B46D87800E0FF20F2
:101C70000FB00CBC90469946F0BDC04630B589B057
:101C800001AD6870297002AC201C0021182201F0FF
:101C900041F83F2323804D336380A5608A3BE36096
:101CA0006B460333236101236361201C002100F094
:101CB0006BFB002802DB6B46D87800E0FF2009B000
:101CC00030BDC04610B588B002AC201C00211822DF
:101CD00001F020F83F2323800223FF3363806B460B
:101CE0000733236101236361201C002100F04CFBBA
:101CF000002802DB6B46D87900E0FF2008B010BD59
:101D000070B58CB0161C1D1C6B461870012801D1D3
:101D1000022400E010246B46581C221C00F0F6FF41
:101D200001346B461E550134E4B21D550134E4B252
:101D300005AE301C0021032200F0ECFF06AD281C8C
:101D40000021182200F0E6FF3F232B80C3336B8075
:101D50006B46AB60EC602E6103236B61281C002195
:101D600000F012FB002808DB05AB1878002805D12D
:101D7000059B1B0A109A138000E0FF200CB070BD79
:101D8000F0B55F4656464D464446F0B491B00C1C43
:101D900000929B461AAB1B789A461BAB1B78994660
:101DA0001CAB1B7898461DAB1F781EAB1E786B468C
:101DB000991D088002AD281C022200F0A7FFAC701C
:101DC000012C01D1013400E0102402AD0B20684445
:101DD0000099221C00F09AFF03345B462B55013416
:101DE000E3B25246EA540133DBB24A46EA540133C5
:101DF000DBB24246EA540133DBB2EF540133DBB2CB
:101E0000EE540133DCB209AF381C0021032200F08C
:101E100081FF0AAE301C0021182200F07BFF3F2317
:101E20003380C5337380B560F4603761023BFF3B9C
:101E30007361301C002100F0A7FA002808DB09AB11
:101E40001878002805D1099B1B0A1F9A138000E00F
:101E5000FF2011B03CBC90469946A246AB46F0BD6F
:101E6000F0B55F4656464D464446F0B4ADB0151C3D
:101E7000009336AB1B789A4637AB1C7839AB1B788E
:101E800099463AAB1B7898463BAB1B789B463CABDC
:101E90001B7801933DAB1B78029302ABD8800633CD
:101EA00003AF398005AE301C191C022200F02EFF52
:101EB0000E2002AB9C466044391C022200F026FF33
:101EC0003571012D01D1022600E0102605AD11204B
:101ED00002AB9C4660440099321C00F017FF0536A7
:101EE0005346AB550136F6B2AC550136F6B2A319DE
:101EF0000533802B43DC05ADA8193899221C00F06E
:101F000005FF3619F3B24A46EA540133DBB24246C2
:101F1000EA540133DBB25A46EA540133DBB26A4673
:101F20001279EA540133DBB26A46127AEA54013379
:101F3000DCB225AF381C0021032200F0EBFE26AEF8
:101F4000301C0021182200F0E5FE3F2333800623D9
:101F5000FF337380B560F4603761033BFF3B73610F
:101F6000301C002100F010FA00280ADB25AB18789D
:101F7000002807D1259B1B0A3E9A138002E04220CD
:101F800000E0FF202DB03CBC90469946A246AB46EF
:101F9000F0BDC04670B5AAB0161C1C1C6B46D8809C
:101FA00001AB1980A31D802B31DC03AD281C6B46CF
:101FB000991D022200F0AAFE0E20684401A9022207
:101FC00000F0A4FE2E716C71122068442E99221C20
:101FD00000F09CFE0634E4B224AE301C002118222E
:101FE00000F098FE3F233380C7337380B560F46000
:101FF000773B6B44336101237361301C002100F097
:10200000C3F9002805DB8F236B44187802E04220D7
:1020100000E0FF202AB070BDF0B5ABB0171C1E1C4D
:1020200030AB1C786B46D88001AB1980E31D802B48
:1020300032DC03AD281C6B46991D022200F066FEBF
:102040000E20684401A9022200F060FE2F716E711B
:10205000AC71132068443199221C00F057FE0734FC
:10206000E4B224AE301C0021182200F053FE3F23BE
:102070003380E7337380B560F460973B6B44336122
:1020800001237361301C002100F07EF9002805DB7C
:102090008F236B44187802E0422000E0FF202BB031
:1020A000F0BDC04670B5A8B00C1C8B1C802B25DC85
:1020B00001AD287069706B46981D111C221C00F040
:1020C00025FE0234E4B222AE301C0021182200F0BA
:1020D00021FE3F233380333B7380B560F4607B3354
:1020E0006B44336101237361301C002100F04CF913
:1020F000002805DB87236B44187802E0422000E0CB
:10210000FF2028B070BDC04630B589B001AD287041
:10211000697002AC201C0021182200F0FBFD3F2357
:102120002380303B6380A5600D3BE3606B46033347
:10213000236101236361201C002100F025F90028A0
:1021400002DB6B46D87800E0FF2009B030BDC04606
:102150004160024B1B6803607047C046400000208E
:10216000044B1A680368D21A0132436893428041D3
:10217000404270474000002030B583B0051C0C1C65
:1021800007E0201C01A900F005FA281C019900F0C5
:10219000F1F9201C00F0E0F90028F2D003B030BDC6
:1021A00010B50A4800F0D4F9094800F0D1F900242C
:1021B00008E08C216143074B5918044800F0DAF914
:1021C0000134E4B2042CF4D910BDC046C805002087
:1021D000D005002048000020037A042B07D1827A22
:1021E0008433C35C033B9A4203D0022002E0012007
:1021F00000E000207047C04610B5A2B00023019354
:1022000000F08CFE1A4800F0A7F913E0184C201CCF
:1022100001A900F0BFF900F07BFE0198083000F042
:102220000BFD00F07BFE1348019900F0A3F9201C80
:1022300000F092F90028E9D00F4B1B78002B0BD14E
:1022400011E00E4802A9802200F0E8FEC0B200288A
:1022500002D002A800F0F0FC00F050FE0028F0D1FF
:102260000022054B1A7000F053FE22B010BDC0468C
:10227000D0050020C80500200403002000300140E4
:1022800008B5024800F068F908BDC046D005002036
:1022900010B582B00023019300F048FE30E01B48E7
:1022A00000F05AF9002823D1184801A900F072F96A
:1022B000019908311648802200F0B0FEC0B2002813
:1022C00011D0019C8823E054201CFFF785FF0028D3
:1022D00004D11048211C00F04DF90FE00B48211CDF
:1022E00000F040F90AE00948019900F03BF905E0E7
:1022F0000122094B1A7000F019FE05E000F016FEED
:1023000000F0FCFD0028CAD102B010BDC8050020B5
:1023100000300140D005002004030020F0B585B056
:10232000061C0D1C03921C1C084B1F68643700948C
:102330000748311C2A1C039B00F0CCFE002803D068
:10234000024B1B68BB42F2D905B0F0BD4000002033
:102350000030014030B583B0141C1D1C800289057B
:10236000890D084301A908808A7001236A46137009
:10237000501C032200F0CAFC6846291C0422231CBE
:10238000FFF7CCFF03B030BD70B586B0041C0E1C47
:10239000418803889A028B059B0D13439DB200234D
:1023A000039301A800F0D4F820886188227BA368F9
:1023B000FFF7D0FF002E00D084E004A86421FFF7CF
:1023C000C7FE04A8FFF7CCFE002872D1FFF758FF24
:1023D0000028F6D100F0A2FD414803A900F0DAF888
:1023E00003990B7A042B05D001A800F0C3F800F084
:1023F0008FFDE6E70E1C0B368823CA5CD01E4B7A95
:102400000F2B08D002D80E2B1ED03FE0102B50D03F
:102410003E2B2CD03AE00B1C4A7B0B33DB781B02A3
:102420001343AB4245D163680F2B03D0CB7A002B0B
:102430002CD03EE06269824200DD021C62612069AC
:10244000311C00F063FC3DE00B1C087B0B339B78D8
:102450001B020343AB422CD10E31931F62699A4297
:1024600000DD1A1C6261206900F050FC2AE0CB7A82
:10247000606883420AD1131F62699A4200DD1A1C08
:1024800062610C31206900F041FC1BE001A800F002
:1024900071F8144800F060F8002807D01048694629
:1024A00000F078F80F48009900F064F800F030FD73
:1024B00087E70B4801A9FFF75FFE00F029FD012027
:1024C00040420AE00748039900F04CF8044801A98B
:1024D000FFF752FE00F01CFD002006B070BDC046A4
:1024E000D0050020C805002070B590B0041C0E1C5B
:1024F00002AD281C0021202200F00CFC2C701F2CA7
:1025000001D8221C00E01F2209206844311C00F081
:10251000FDFB0AAC201C0021182200F0FBFB082365
:1025200023800133638002ABA3602023E3606B460A
:102530000733236101236361201C0021FFF724FF7F
:10254000002802DB6B46D87900E0FF2010B070BD98
:10255000006040607047C0460368181A424242411A
:10256000D0B2704703680B60486001600B68596027
:102570007047C046086043684B6041604B68196013
:102580007047C046436802681A60036842685A6030
:102590007047C04610B50C1C03680B600068FFF75D
:1025A000F1FF2268002313602268536010BDC0460B
:1025B00030B5B1B0924C2CA8211C102200F080FF45
:1025C000211C103128A8102200F07AFF211C203194
:1025D00024A8102200F074FF211C303120A8102202
:1025E00000F06EFF211C40311CA8102200F068FF93
:1025F000211C503118A8102200F062FF211C60310C
:1026000014A8102200F05CFF211C703110A81022C9
:1026100000F056FF0CA87B49102200F051FF7A4AC7
:102620002E236B441A80794B009302202CA901229F
:102630001823FFF765FB002800D0CBE0734B188808
:102640000623009300230193012202920F3203928A
:1026500004936F4B0593022128AA0423FFF790FBF4
:10266000002800D0B8E0694B18880A2300930023A3
:102670000193012202920F3203920493654B05935A
:10268000022124AA0423FFF77BFB002800D0A5E049
:102690005E4B18882223009300230193029310229B
:1026A000039204935C4B0593022120AA0423FFF7B5
:1026B00067FB002800D093E0544B18882223009336
:1026C000002301930293102203920493534B05932A
:1026D00002211CAA0123FFF753FB002800D081E050
:1026E0004A4B188802210091002301930293102283
:1026F000039204934A4B059318AA0123FFF740FB6A
:10270000002871D1414B18881223009300220192B6
:102710000E3B0293102103910492424A05920E3916
:1027200014AAFFF72DFB002860D1384B188812231C
:10273000009300230193042202920C32039204932B
:10274000394B0593022110AA0B1CFFF719FB002837
:102750004ED1364AFF2353720023D37253732B4A50
:1027600010881222009201930E3A02920C320392C8
:1027700004932F4B059302210CAA0F23FFF700FBB4
:10278000041E37D12D256D4400232B701F4A10885D
:10279000274A118801220092019202950393042591
:1027A0000495013D05950D3506950793214B08933A
:1027B0002E236B44FFF754FB002C1DD11B4AD37B07
:1027C00001218B4301318B4306318B43AB43D373E0
:1027D000002012E0472010E047200EE047200CE0E8
:1027E00047200AE0472008E0472006E0472004E0B1
:1027F000472002E0472000E0472031B030BDC0460E
:10280000E436000864370008FF2900001A0300209E
:10281000060300201C0300201003002012030020E8
:102820000A0300201803002014030020DC05002008
:10283000080300200E03002070B582B0013880B27A
:102840001D4B1B88984207D11C49CA7B1023134398
:1028500002221343CB732CE0194B1B88984203D000
:10286000184A1288904224D198420CD1134B9A7B7B
:10287000002A08D0197B914319735A7B013A5A7385
:1028800000229A7303E00D4B00221A735A730E4E06
:1028900030880B4D29880D4C009400220123FFF74E
:1028A00079FB308829880134009401220123FFF745
:1028B00071FB02B070BDC04608030020DC0500209B
:1028C00018030020140300201A030020E80500204C
:1028D00008B50C4B1B880133984205D108780A4B88
:1028E0001860FFF76BF80CE0084B1B88984208D182
:1028F000002906D00649CA7B08231343012213434B
:10290000CB7308BD06030020C40500200E03002081
:10291000DC05002030B589B006A81B49103106221D
:1029200000F0CEFD00F0D8FA0020062106AAFFF73D
:10293000B9FBFFF7C7F901201621694405AA122344
:102940006B44FFF7B7F8114B1B68029310230093F9
:102950000024019401250395012000210022093B58
:10296000FFF744F9FFF724FE01200421FFF7CCFB19
:10297000074B1D705C701C725C6096229200054BC8
:102980001A8009B030BDC04664370008300000200E
:10299000DC0500206A05002030B58FB00AAB0022AC
:1029A0000C920D9209211970403159700B319970B8
:1029B0000739D97020391971033159710131997171
:1029C0000339D97108A90A704A708A70CA700A71ED
:1029D00001200A3200F070FD06E008AB5A789A70C8
:1029E0001A785A7030221A7008AB9B78002BF4D0FA
:1029F00008A90024CC700AAD281C00F0E5FD0020D9
:102A00000021FFF771FD00941023019302950394B8
:102A10000494059406940020002100220023FFF76F
:102A200081F80FB030BDC04630B5194B1B8801335B
:102A3000984218D113E01488164D5900C818C000E8
:102A400028182405240D448102321088C918C900B1
:102A500069180005000D88810133DBB200E0002316
:102A6000012BE8D913E00C4B1B8898420FD1137847
:102A7000DB0704D50949C87B01230343CB731378D3
:102A80009B0704D5054AD17B08230B43D37330BD84
:102A90001C030020880500200E030020DC05002018
:102AA000024B01225A7059807047C046DC05002055
:102AB000064A002353701372536001211170044AB7
:102AC000137096229200034B1A807047DC05002099
:102AD0000C0300206A05002070B582B0164B1888E0
:102AE000164B1988164B009300220123FFF752FA68
:102AF00000231CE0134A927A002A16D00E4E30882A
:102B0000114D2988114C009400220123FFF742FA4D
:102B100030882988631C009301220123FFF73AFAC9
:102B2000237823710023237003E00133DBB2072BEA
:102B3000E0D902B070BDC0461A0300200A0300208D
:102B4000E5050020DC05002018030020E605002034
:102B500010B584B000241CE061000B19DB00144A9E
:102B6000D3181A8A03A80A5212B29B899A4203DD2B
:102B70000420FEF737FB0AE063001B19DB000C4959
:102B8000CB185B899A4202DA0420FEF72BFB013452
:102B9000E4B2012CE0D9074B1888074B198803AB26
:102BA000009300220423FFF7F5F904B010BDC046DE
:102BB000880500201A0300201003002010B584B0FF
:102BC000114C2178A3785B000F226A440B431370E9
:102BD0000E4B18880E4B1988009200220123FFF734
:102BE000D9F9227863789A4204D1074B9A78DB7836
:102BF0009A4202D00220FEF7F5FA034B1A785A7077
:102C00009A78DA7004B010BD780500201A0300200D
:102C10001203002000B583B00B1C054A1288054939
:102C200009880090101C0022FFF7B4F903B000BD22
:102C30001A0300200803002030B583B00378042B6A
:102C400058D1041C43783E2B0AD0FF2B18D0052BFB
:102C500050D1FFF72DFF00200021FFF70FF849E0CA
:102C6000C378012B46D10022234B1A8009306379A7
:102C7000A17909021943FFF713FFFFF72DFF39E090
:102C8000C27803791B0213431C4A93420FD01C4A9B
:102C9000934228D01B4A93422CD1021C0A32C3799A
:102CA000007A00021843617AFFF7BEFE22E0164B5D
:102CB000188880B2221C0A32E379217A090219436A
:102CC000637A009301920022FE23FFF7A5F9637A4D
:102CD000E279207A00021043211C0B31013BDAB269
:102CE000FFF7F6FD06E0C379007A00021843A17AE7
:102CF000FFF7A2FD03B030BD6A050020130C0000F1
:102D0000140C0000010C00001603002008B500F0B0
:102D1000D7FB08BD08B500F011FC08BDF0B55F4653
:102D200056464D464446F0B485B0484B984200D0D4
:102D300084E0474B9A69802149010A439A615A69A4
:102D4000802189020A435A615A6901273A435A612C
:102D50009A693A439A6102AC0223029327710026D2
:102D6000A671E7719025ED05281C211CFDF73AFBA3
:102D700066712B8D022213439BB22B85202398462C
:102D8000029302239B462271A671E37103239A46A4
:102D90006371281C211CFDF725FB2B6B2D4A9146E6
:102DA00013402B63402302935B462371A671E671A7
:102DB00053466371281C211CFDF714FB2A6C264B1B
:102DC00013402B64802302935B462371A671E67146
:102DD00053466371281C211CFDF704FB2B6E1B015D
:102DE0001B092B66102302932771A671E7715346C6
:102DF0006371281C211CFDF7F5FA2B6B4A46134022
:102E00002B6302972671E671281C211CFDF7EAFA54
:102E100000976B461E7108236A4653719771684686
:102E2000FDF7A4FA0D4AC121890050580C4B03400C
:102E3000C0200002034353504346136005B03CBC1E
:102E400090469946A246AB46F0BDC04600300140D0
:102E500000100240FFFF0FFFFFFFFFF000E100E066
:102E6000FF00FFFF30B587B001AC00232380822232
:102E700052006280E022D200A280E380238180227F
:102E800092006281F93AFF3AA281E38107332382FB
:102E90000F4D281CFFF742FF281C211CFDF738FDB1
:102EA000281C0021FDF76CFD281C0021FDF774FD96
:102EB000AA88084B1340AB80AA8880235B01134388
:102EC000AB80281C0121FDF74FFD07B030BDC04687
:102ED00000300140FFEFFFFF10B59024E405228D84
:102EE0000223134323850520FEF7DAFDA26902239E
:102EF0001343A3610520FEF7D3FD10BD9023DB052E
:102F00001B8ADB0701D5012000E000207047C04686
:102F10002022014B1A60704700E100E0202180234D
:102F2000014AD1507047C04600E100E00122014B48
:102F30005A61704700040140F0B5474680B4069DD1
:102F4000344C2468A046A844002958D0002A58D000
:102F5000002B58D0DBB2012B04D987882E4C3C4083
:102F6000848004E08788802464013C438480048852
:102F7000640603D4078840243C4304801F1C32E0CD
:102F8000002F0FD00489A4070CD5012F05D90C8878
:102F900084810231023FFFB204E00C780473013FE8
:102FA000FFB20131002B18D00489E40715D5012B9D
:102FB0000ED9848914800232023BDBB2012B0CD87B
:102FC0008488A4468024640166463443848004E0F7
:102FD000047B1470013BDBB20132002D03D00D4C99
:102FE0002468444511D23C1C1C43E4B2002CC7D1D8
:102FF00010230381028913400381032006E003208C
:1030000004E0032002E0032000E0012004BC90461D
:10301000F0BDC04640000020FFEFFFFFF0B58BB0D1
:10302000051C03900F1C141CFF221F2302A98C46B1
:1030300063441A7008A90B230B7000234B708B702C
:10304000CB700B719022D205108D10330343138582
:1030500006AE0F230093281C321C0A3BFFF76CFFBF
:103060003378022B20D106AA13791B02D27813439E
:103070001CD0A5B29D4200D31D1C002410E01E26CA
:1030800002AB9C4666440F23009303981F216144C2
:10309000321C0123FFF750FF33783B550134E4B273
:1030A000A3B2AB42EBD302E0002400E00024902264
:1030B000D205916910230B4393610023059303E02C
:1030C000C046059B01330593059B012BF8DD201CB1
:1030D0000BB0F0BDF0B5CBB00390059104921E1C6F
:1030E00050AB1F7848AD0A232B7000226A70AA707B
:1030F000EA702A7146ACA03323706270A270E2704D
:103100002271FFF70BFF9021C9050A8D10231A4386
:103110000A85013B00930398291C221C0A3BFFF7F8
:103120000BFF2378022B1AD146AB5A78F3199A4237
:1031300018DB002E07D0B3B20F2200920398059936
:1031400006AAFFF7F9FE002F0FD0BBB20F220092A4
:103150000398049906AAFFF7EFFE002406E0012475
:10316000644203E00224644200E000249022D2057D
:10317000916910230B439361FFF7CAFE201C4BB0EB
:10318000F0BDC046002243088B4274D303098B4232
:103190005FD3030A8B4244D3030B8B4228D3030C27
:1031A0008B420DD3FF22090212BA030C8B4202D3C9
:1031B0001212090265D0030B8B4219D300E0090AF1
:1031C000C30B8B4201D3CB03C01A5241830B8B42FA
:1031D00001D38B03C01A5241430B8B4201D34B03E3
:1031E000C01A5241030B8B4201D30B03C01A524148
:1031F000C30A8B4201D3CB02C01A5241830A8B42CD
:1032000001D38B02C01A5241430A8B4201D34B02B5
:10321000C01A5241030A8B4201D30B02C01A524119
:10322000CDD2C3098B4201D3CB01C01A52418309CD
:103230008B4201D38B01C01A524143098B4201D307
:103240004B01C01A524103098B4201D30B01C01A32
:103250005241C3088B4201D3CB00C01A52418308AC
:103260008B4201D38B00C01A524143088B4201D3D9
:103270004B00C01A5241411A00D201465241104639
:103280007047FFE701B5002000F0FCF802BDC04622
:103290000029F7D003B5FFF775FF0EBC4243891A2A
:1032A0001847C04603460B437FD4002243088B4295
:1032B00074D303098B425FD3030A8B4244D3030BBD
:1032C0008B4228D3030C8B420DD3FF22090212BA82
:1032D000030C8B4202D31212090265D0030B8B42FE
:1032E00019D300E0090AC30B8B4201D3CB03C01AE8
:1032F0005241830B8B4201D38B03C01A5241430BC3
:103300008B4201D34B03C01A5241030B8B4201D3B2
:103310000B03C01A5241C30A8B4201D3CB02C01A1D
:103320005241830A8B4201D38B02C01A5241430A95
:103330008B4201D34B02C01A5241030A8B4201D384
:103340000B02C01A5241CDD2C3098B4201D3CB012B
:10335000C01A524183098B4201D38B01C01A5241DA
:1033600043098B4201D34B01C01A524103098B42DE
:1033700001D30B01C01A5241C3088B4201D3CB00C9
:10338000C01A524183088B4201D38B00C01A5241AC
:1033900043088B4201D34B00C01A5241411A00D25C
:1033A00001465241104670475DE0CA0F00D04942C5
:1033B000031000D34042534000229C4603098B4235
:1033C0002DD3030A8B4212D3FC22890112BA030ABD
:1033D0008B420CD3890192118B4208D3890192113F
:1033E0008B4204D389013AD0921100E08909C309C4
:1033F0008B4201D3CB01C01A524183098B4201D3C6
:103400008B01C01A524143098B4201D34B01C01AB0
:10341000524103098B4201D30B01C01A5241C30828
:103420008B4201D3CB00C01A524183088B4201D397
:103430008B00C01A5241D9D243088B4201D34B00B2
:10344000C01A5241411A00D20146634652415B10F4
:10345000104601D34042002B00D5494270476346D5
:103460005B1000D3404201B5002000F00BF802BD14
:103470000029F8D003B5FFF715FF0EBC4243891AA7
:103480001847C0467047C046931E10B5222B0FD870
:103490000A2A06D000230C1CC91800F0C5F8201C0D
:1034A00010BD0028F6DA2D2340420B702C3BF2E7CA
:1034B000002300200B70F3E708B5FFF7E5FF08BD18
:1034C00070B50F2A32D9041C0C430B1CA40731D150
:1034D000151C041C103D2D0901352D0149191E68CC
:1034E00026605E6866609E68A660DE681033E660EF
:1034F00010349942F3D10F2345191340032B1BD9E4
:103500001C1F0023A4080134A400CE58EE5004333D
:10351000A342FAD1ED18C91803231A4005D000239D
:10352000CC5CEC5401339342FAD170BD051C002AE7
:10353000F5D1FAE7051CF2E71A1CF8E770B5830726
:103540003FD0541E002A3BD0CEB2031C032503E01B
:10355000621E002C34D0141C01335A1E16702B42EC
:10356000F6D1032C24D9FF250D402A0215432A0445
:1035700015430F2C11D9261C103E36090136360191
:103580001A1C9B19156055609560D56010329342E6
:10359000F8D10F221440032C0AD9261FB608013691
:1035A000B6001A1C9B1920C29342FCD1032214407E
:1035B000002C05D0C9B21C1919700133A342FBD1EC
:1035C00070BD141C031CCCE738B5051CAB0716D125
:1035D0002A680F4B0F4CD3189343234216D1043063
:1035E00002680B4BD3189343234208D1043002687E
:1035F000074BD31893432342F1D000E00130037806
:10360000002BFBD100F008F8281C38BD281CF6E779
:10361000FFFEFEFE80808080031C0A7801311A7054
:103620000133002AF9D17047F0B5574645464E465A
:10363000E0B48AB090466A461D4B0D1C061C13CBA5
:1036400013C213CB13C213CB13C21B78EA461370F9
:103650004346023B2F1C0024222B01D924E04C4678
:10366000631C301C41469946FFF712FE53465B5CD3
:10367000301C3B704146FFF785FD0137061EEED139
:103680004B46E8540023002C07D0EA5C295DE9543E
:103690002A550133013CA342F7DB281C0AB01CBCAD
:1036A00090469946A246F0BD2C700020F6E7C04631
:1036B0007C37000800001F003C005B007900980088
:1036C000B600D500F400120131014F0100001F00C7
:1036D0003B005A0078009700B500D400F3001101B8
:1036E00030014E01669A0C200008969EE2119EB1B0
:1036F00030F273D9669A0C200008969EE2119EB1B2
:1037000031F273D9669A0C200008969EE2119EB1A0
:1037100032F273D9669A0C200008969EE2119EB18F
:1037200033F273D9669A0C200008969EE2119EB17E
:1037300034F273D9669A0C200008969EE2119EB16D
:1037400041F273D9669A0C200008969EE2119EB150
:1037500042F273D9669A0C200008969EE2119EB13F
:1037600043F273D9669A0C200008969EE2119EB12E
:1037700052F273D9010000E180020000303132338F
:103780003435363738396162636465666768696AFB
:103790006B6C6D6E6F707172737475767778797A01
:0437A0000000000025
:1037A40078563412000000000102030401020304ED
:1037B400060708093C00002000000000000000008B
:1037C400000000000102030406070809006CDC0283
:0837D40040E201003254769836
:04000005080000C52A
:00000001FF
