:020000040800F2
:1000000000100020DD010008C10E0008C50E000828
:1000100000000000000000000000000000000000E0
:10002000000000000000000000000000C90E0008F1
:100030000000000000000000CD0E0008D10E0008F6
:100040001502000800000000150200081502000853
:100050001502000815020008150200081502000824
:100060000000000015020008150200081502000833
:100070001502000815020008150200080000000023
:10008000E50E000800000000000000001502000856
:1000900015020008E90E0008ED0E00081502000820
:1000A000150200081502000815020008E10E0008FC
:1000B0001502000800000000000000000000000021
:1000C0005FF808F130B583B000F0B6FA314B324A30
:1000D0001360324A1360324B324A03E011681960F0
:1000E0000433043230498B42F8D32B4B1A682F4B20
:1000F0009A4204D1294B1A682D4B9A4200D0FEE750
:10010000244B2C4A13602C4A13602C4B02E0002233
:100110001A6004332A4A9342F9D3264B1B68002BFA
:1001200003D1254B1B68002B00D0FEE700F088FAB6
:1001300001A8694600F078FA224C234B1C1BA4103E
:10014000002504E0AA001F4BD35898470135AC4264
:10015000F8DC1E4C1E4B1C1BA410002504E0AA005A
:100160001A4BD35898470135AC42F8DC01980099F6
:1001700000F0A2FC051C174C174B1C1BA41004E03C
:10018000013CA200134BD3589847002CF8DC281CE4
:1001900000F048FABABADECA0000002030000020A1
:1001A00000000020A010000834000020785634120F
:1001B0003254769838000020BC000020380000201F
:1001C000C000002040020008400200084002000871
:1001D00040020008400200084002000808B5FFF78E
:1001E00071FFC04600BEFEE704207146084202D0FF
:1001F000EFF3098001E0EFF308807146044A1047ED
:1002000000BEFEE700BEFEE700BEFEE7704700004E
:080210000102000800BEFEE738
:10021800A01000080000002034000020A0100008F2
:10022800000000000000000038000020C00000208E
:080238000000000000000000BE
:100240000268264B13400360002303604360836011
:10025000C360234B984205D1224A51680F230B43B8
:10026000536039E0204B984205D11E4A5168F02373
:100270000B43536030E01D4B984206D1194A536836
:10028000F02109010B43536026E0194B984206D137
:10029000144A5368F02109020B4353601CE0154BCC
:1002A000984206D10F4A5368F02109030B4353606B
:1002B00012E0114B984206D10A4A5368F021090412
:1002C0000B43536008E00D4B984205D1054A536833
:1002D000F02109050B4353607047C046FEFF000044
:1002E00008000240000002401C00024030000240B2
:1002F00044000240580002406C000240800002406E
:1003000010B502680C4B1A408B680C6A23430C69C9
:1003100023434C6923438C692343CC6923434C6AB0
:1003200023438C6A234313430360CB6843600B6809
:1003300083604B68C36010BD0F80FFFF002904D0AD
:10034000026801231343036003E00268014B13407A
:1003500003607047FEFF0000034B1B68184201D08A
:10036000012000E0002070470000024070B5041C2E
:100370005D4B5B680C221340042B0CD002D8002B81
:1003800005D028E0082B0AD00C2B20D023E0574BB7
:100390000360002022E0564B036000201EE0524B19
:1003A000586880025A68000F851CC0235B021A42FD
:1003B00002D15048684308E04B4BDB6A0F211940DB
:1003C00001314B4800F094FD6843206006E04A4B41
:1003D0000360002002E0454B2360002042494B6847
:1003E0001B061B0F454DEB5CDBB22668321CDA4066
:1003F00062604B685B055B0FEB5CDBB2DA40131CA1
:10040000A2600A6BD20502D43D4AE26008E0364A97
:100410005268520402D45A08E26001E09A08E2608D
:10042000314A126B520602D4364A226102E080221F
:10043000120222612C4A126BD20602D42B4A62614C
:1004400000E06661284A126B920701D1A36119E0AE
:10045000254A126B03210A40012A01D1A66111E04D
:10046000214A126B03210A40022A03D18022120280
:10047000A26107E01C4A126B03210A40032A01D142
:100480001A4AA261184A116BC0229202114201D18C
:10049000E36120E0144B1A6BC0239B0213408022BF
:1004A0005202934201D1E66115E00F4B1A6BC02353
:1004B0009B02134080229202934203D180231B02AD
:1004C000E36108E0084B1B6BC02292021340934289
:1004D00001D1064BE361044B1B6B1B0602D4064B98
:1004E000236200E0206270BD0010024000127A001A
:1004F0000024F40000093D00006CDC020400002030
:10050000809FD50012800000F0B58DB0041C0D1C3A
:1005100003680122934303604268284B13408A68B2
:10052000134343600268264B1A404B68C9680B436B
:1005300029690B43134303608268224B13406A69A5
:100540001343836003A8FFF711FF1F4B9C4201D1A7
:10055000099E05E01D4B9C4201D10A9E00E0059ECC
:1005600023681B040CD576002B68301C0193191CE2
:1005700000F0BEFC071C301C019900F03FFD0AE0B2
:100580002B68301C0193191C00F0B2FC071C301CB6
:10059000019900F033FD2B685B088B4200D80137CE
:1005A00023681B0405D53B075B0F094A3A401A43F1
:1005B000171CBBB2A3810DB0F0BDC046FFCFFFFF3B
:1005C000F3E9FFFFFFFCFFFF00380140004400405B
:1005D000F0FF0000002904D00268012313430360E8
:1005E00003E003680122934303607047C905C90D06
:1005F00001857047808CC005C00D7047002A03D06C
:1006000083681943816002E083688B43836070478D
:10061000C369194201D0012000E000207047C046A4
:1006200001627047FEE7C04601230360014B0B6087
:100630007047C0461400002008B500F05DF808BD02
:1006400008B500F08BF808BD82B000230193009339
:10065000264A1368802149020B431360234B1A6812
:1006600080239B0213400093019B01330193009B65
:10067000002B04D1019AA023DB019A42EED11B4B3F
:100680001B689B0302D50123009301E00023009324
:10069000009B012B28D11122154B1A60134B5A686D
:1006A0005A605A685A605968124A0A405A605A6831
:1006B000882149030A435A601A68802149040A4381
:1006C0001A600A4B1B689B01FBD5084B5A68032133
:1006D0008A435A60596802220A435A60034B5B6896
:1006E0000C221340082BF9D102B0704700100240D1
:1006F00000200240FF7FC0FF08B5124B1A6801219D
:100700000A431A605868104A02405A6018680F4A33
:1007100002401A6018680E4A02401A6058680D4A72
:1007200002405A60DA6A0F208243DA62186B0A4A82
:1007300002401A635A6B8A435A6300229A60FFF799
:1007400083FF08BD001002400CB8FF08FFFFF6FE53
:10075000FFFFFBFFFFFFC0FFACFEFFFF10B51E4B0E
:100760005B680C221340042B07D0082B09D0002B08
:1007700022D11A4A1A4B1A6021E01A4A184B1A6001
:100780001DE0154B5C68A4025A68240F0234C02394
:100790005B021A4204D114484443114B1C600EE022
:1007A0000D4BDB6A0F21194001310E4800F0A0FB10
:1007B00044430B4B1C6002E0084A094B1A60064B8D
:1007C0005B681B061B0F094AD35CDBB2044A116845
:1007D000D940116010BDC0460010024000127A00DE
:1007E0002C0000200024F40000093D001C00002023
:1007F000024B1B6818188342FDD37047400000204D
:10080000F0B587B0041C03AD55232B7001012F4BAD
:10081000C9180D206844082200F0FCFB0023009357
:10082000FF3301930120291C0922002300F07EFAE6
:10083000061E022E08D12401244B1C19002200237D
:100840000CC40223A3713DE003AD4E232B702F3364
:100850006B704C33AB7024011C4B1C19237A093B81
:100860005B011F221343EB7000270097FF240194C4
:100870000220291C0422002300F058FA48232B7080
:10088000009701940220291C0122002300F04EFA57
:100890009024E40523680E4D2B40236023688022BA
:1008A000520313432360A2690A231343A3610C205C
:1008B000FFF79EFF23681D40256023688022920376
:1008C00013432360301C07B0F0BDC0467000002009
:1008D000FFFFCFFFF0B58BB000222B4B1A7000F05A
:1008E000D1F96846052100F057FA051C274B18700E
:1008F0000022002100201CE0D3006B445C681E68CD
:100900001B78282B0AD10023002B07D1431C0001A0
:100910001F4F381806604460D8B208E04F1C4B00E7
:100920005B18DB001B49CB181E605C60F9B201321A
:10093000D2B2AA42E0D303281DD900291DD0042831
:100940001DD101291DD1002404E0201CFFF758FF10
:100950000134E4B2032CF8D90F4A104B1A60FA2381
:100960009B000F4A13600F4A1360FA2252000E4B8D
:100970001A60002006E0012004E0012002E00220CD
:1009800000E002200BB0F0BDB800002054000020B1
:10099000700000205800002060EA0000480000209D
:1009A000440000204C0000205000002000B58DB015
:1009B00000230B930A933A4A1368802149020B43A0
:1009C0001360374B1A6880239B0213400A930B9BDA
:1009D00001330B930A9B002B04D10B9AA023DB015C
:1009E0009A42EED12E4B1B689B0302D501230A933A
:1009F00001E000230A930A9B012B2DD11122294BE0
:100A00001A60274B5A685A605A685A60DA6A03219A
:100A10000A43DA625968244A0A405A605A688821AF
:100A200049030A435A601A68802149040A431A603C
:100A30001B4B1B689B01FBD5194B5A6803218A434A
:100A40005A605A6801390A435A60154B5B680C2298
:100A50001340082BF9D101E000F034FA01A8FFF7A8
:100A600085FC0298FA21890000F042FA01380F4B08
:100A700098420DD80E4A50600E490B6A1B021B0AA1
:100A8000C020000603430B6200239360073313600A
:100A9000084A136A1B021B0A13620DB000BDC04650
:100AA0000010024000200240FF7FC0FFFFFFFF0058
:100AB00010E000E000ED00E000B585B0FFF776FF44
:100AC000FFF708FFFFF706FF00230093FF330193B2
:100AD00001200A490222002300F028F9002300E047
:100AE0000133074A9342FBD902230093019301206B
:100AF0000449042203AB00F019F9FEE79010000846
:100B00003F420F009410000800230AE0C20702D5FC
:100B1000FF220A7001E000220A700131400801330F
:100B2000DBB2072BF2D97047002300220AE05208FB
:100B30000178FF2903D18039FF390A43D2B201304D
:100B40000133DBB2072BF2D9101C7047F0B58DB022
:100B5000051C2848FFF774FB274B0193274E02968C
:100B6000002403940495059480270697079408941D
:100B700009940A940B941F4801A9FFF7C1FB204870
:100B8000FFF75EFB1F4B019302961023039304951E
:100B9000059406970794089409940A940B941848AE
:100BA00001A9FFF7ADFB184C201CE021FFF738FD31
:100BB000201CC0210122FFF721FD0E480121FFF773
:100BC000BDFB0F480121FFF7B9FB80208002FFF732
:100BD000C3FB0028F9D00A480021FFF7AFFB054806
:100BE0000021FFF7ABFB0848C0210022FFF706FDFC
:100BF0000DB0F0BD3000024024440040B0000020A1
:100C00001C000240284400400038014030B587B045
:100C100096239B0100930023019302930393059372
:100C20000C330493164C201C6946FFF76DFC201C06
:100C30004021FFF7F5FC201CF021FFF7D7FC1048FE
:100C40004021FFF7E5FC0028F9D00D4D281CFFF7E7
:100C5000D1FCC4B2E1235B02009300230193029311
:100C6000039305930C330493281C6946FFF74CFC4F
:100C7000F02C01D0002000E0022007B030BDC046BB
:100C80000038014010B586B0244B9A698021C90113
:100C90000A439A615A69802189020A435A61596953
:100CA00001220A435A619023DB051A688021090357
:100CB0000A431A609A8892B29A80DA6818490A4000
:100CC000DA609960596A10220A435A621A688021D0
:100CD00089030A431A609A8892B29A80DA681149A5
:100CE0000A40DA6099605A6A802149000A435A62D0
:100CF000E1235B0200930023019302930393059386
:100D00000C330493084C201C6946FFF7FDFB201CA4
:100D10000121FFF75FFC002006B010BD001002406B
:100D2000FFFFF3FFFFFFCFFF00380140F0B547465C
:100D300080B40F1C141C984606AB1E7807AB1D78B8
:100D4000012821D1FFF762FF02281DD11FE038786A
:100D50001049FFF7D9FE0137013CE4B20820FFF744
:100D6000F5FE002D0CD1002E0AD00A48FFF7DCFE5C
:100D70004346187001239C46E044013EF6B203E06E
:100D8000FF2D01D0013DEDB2002CE0D1002004BCCC
:100D90009046F0BDB0000020F0B55F4656464D4687
:100DA0004446F0B483B080468A46051C00260023E2
:100DB000994677E000230093FF33019301203E49D9
:100DC00001220023FFF7B2FF00239B4601245BE0D2
:100DD0003A4FFF20391CFFF797FE0220FFF7B6FEBF
:100DE0003B78FF2B04D1354B5B78FF2B1AD15BE0AE
:100DF000324B5B78FF2B17D0B4420DD2631EDA1052
:100E000041468A5C07210B401A41131CDB070DD5B4
:100E1000A3450DD3012312E0B4420CD0A3450CD35B
:100E200001230CE001230AE0002308E0002306E090
:100E3000A346012303E0002301E0A3460123012B85
:100E40000FD1631ED910691807221340063A9A4041
:100E5000131C0A7813430B7001201849FFF754FE46
:100E60000DE0621ED310EB1807210A4006399140AD
:100E70001A788A431A7000201049FFF745FE0120B6
:100E8000FFF764FE0134E4B2402CA1D94B46013394
:100E9000DBB299462B1C08335A46002A04D05E4622
:100EA000A8461D1CD14585D3484603B03CBC90469E
:100EB0009946A246AB46F0BD9C100008B000002049
:100EC0007047C046FEE7C0467047C0467047C04600
:100ED000024A1368013313607047C0464000002087
:100EE0007047C0467047C0467047C0467047C0460E
:100EF000002243088B4274D303098B425FD3030A59
:100F00008B4244D3030B8B4228D3030C8B420DD36B
:100F1000FF22090212BA030C8B4202D312120902F9
:100F200065D0030B8B4219D300E0090AC30B8B4237
:100F300001D3CB03C01A5241830B8B4201D38B03E5
:100F4000C01A5241430B8B4201D34B03C01A52418A
:100F5000030B8B4201D30B03C01A5241C30A8B42CD
:100F600001D3CB02C01A5241830A8B4201D38B02B8
:100F7000C01A5241430A8B4201D34B02C01A52415C
:100F8000030A8B4201D30B02C01A5241CDD2C309CE
:100F90008B4201D3CB01C01A524183098B4201D34A
:100FA0008B01C01A524143098B4201D34B01C01A35
:100FB000524103098B4201D30B01C01A5241C308AD
:100FC0008B4201D3CB00C01A524183088B4201D31C
:100FD0008B00C01A524143088B4201D34B00C01A08
:100FE0005241411A00D20146524110467047FFE774
:100FF00001B5002000F00CF802BDC0460029F7D072
:1010000003B5FFF775FF0EBC4243891A1847C04667
:101010007047C04670B50F2A32D9041C0C430B1C14
:10102000A40731D1151C041C103D2D0901352D01DB
:1010300049191E6826605E6866609E68A660DE6864
:101040001033E66010349942F3D10F234519134051
:10105000032B1BD91C1F0023A4080134A400CE5865
:10106000EE500433A342FAD1ED18C91803231A40F5
:1010700005D00023CC5CEC5401339342FAD170BD0F
:10108000051C002AF5D1FAE7051CF2E71A1CF8E75F
:10109000CC440000CCBEFFFF00000000F0000000C8
:1010A0007856341200000000010203040102030418
:1010B000060708093C0000200000000000000000B6
:1010C000000000000102030406070809006CDC02AE
:0410D0003254769888
:04000005080000C52A
:00000001FF
