:020000040800F2
:1000000000100020DD010008A5130008A913000856
:1000100000000000000000000000000000000000E0
:10002000000000000000000000000000AD13000808
:100030000000000000000000B1130008B513000824
:100040001502000800000000150200081502000853
:1000500015020008351400081502000815140008E0
:100060000000000015020008150200081502000833
:100070001502000815020008150200080000000023
:100080002114000800000000000000001502000814
:10009000150200082514000829140008150200089C
:1000A000150200081502000815020008C91300080F
:1000B0001502000800000000000000000000000021
:1000C0005FF808F130B583B000F0F8FB314B324AED
:1000D0001360324A1360324B324A03E011681960F0
:1000E0000433043230498B42F8D32B4B1A682F4B20
:1000F0009A4204D1294B1A682D4B9A4200D0FEE750
:10010000244B2C4A13602C4A13602C4B02E0002233
:100110001A6004332A4A9342F9D3264B1B68002BFA
:1001200003D1254B1B68002B00D0FEE700F0CAFB73
:1001300001A8694600F0BAFB224C234B1C1BA410FB
:10014000002504E0AA001F4BD35898470135AC4264
:10015000F8DC1E4C1E4B1C1BA410002504E0AA005A
:100160001A4BD35898470135AC42F8DC01980099F6
:1001700000F084FE051C174C174B1C1BA41004E058
:10018000013CA200134BD3589847002CF8DC281CE4
:1001900000F08AFBBABADECA000000203800002056
:1001A00000000020442E00083C0000207856341245
:1001B0003254769840000020440600204000002081
:1001C00048060020400200084002000840020008E3
:1001D00040020008400200084002000808B5FFF78E
:1001E00071FFC04600BEFEE704207146084202D0FF
:1001F000EFF3098001E0EFF308807146044A1047ED
:1002000000BEFEE700BEFEE700BEFEE7704700004E
:080210000102000800BEFEE738
:10021800442E0008000000203C000020442E000866
:1002280000000000000000004000002048060020F8
:080238000000000000000000BE
:100240000268264B13400360002303604360836011
:10025000C360234B984205D1224A51680F230B43B8
:10026000536039E0204B984205D11E4A5168F02373
:100270000B43536030E01D4B984206D1194A536836
:10028000F02109010B43536026E0194B984206D137
:10029000144A5368F02109020B4353601CE0154BCC
:1002A000984206D10F4A5368F02109030B4353606B
:1002B00012E0114B984206D10A4A5368F021090412
:1002C0000B43536008E00D4B984205D1054A536833
:1002D000F02109050B4353607047C046FEFF000044
:1002E00008000240000002401C00024030000240B2
:1002F00044000240580002406C000240800002406E
:1003000010B502680C4B1A408B680C6A23430C69C9
:1003100023434C6923438C692343CC6923434C6AB0
:1003200023438C6A234313430360CB6843600B6809
:1003300083604B68C36010BD0F80FFFF002904D0AD
:10034000026801231343036003E00268014B13407A
:1003500003607047FEFF0000034B1B68184201D08A
:10036000012000E0002070470000024010B58379B2
:10037000002B2CD01A4B1A6801688A431A605A68FD
:1003800001688A435A6002799C4662441168046895
:10039000214311609A6801688A439A60DA680168AB
:1003A0008A43DA604379102B09D163469A68016861
:1003B0000A439A60D96802680A43DA600FE0084A83
:1003C00094466344196802680A431A6007E0037997
:1003D000034A944663441A6801688A431A6010BD50
:1003E00000040140F0B500223CE0012393400C687A
:1003F0001C409C4235D10B79013B012B18D88468F5
:1004000056000325B540AC43846085684C79231CB5
:10041000B3402B43836083881404240C0125A5403A
:10042000AB43838086888D79A540ABB2334383800C
:10043000036857000326341CBC40A34303600368D1
:100440000D792C1CBC401C430460C3681404E40BED
:10045000A640B343C360C568CC79231CBB402B4383
:10046000C36001320F2AC0D9F0BDC04610B50C4B95
:1004700098420AD18024A403201C012100F0E0F856
:10048000201C002100F0DCF809E08024E403201C9B
:10049000012100F0D5F8201C002100F0D1F810BD9A
:1004A0000054004070B5041C5D4B5B680C22134087
:1004B000042B0CD002D8002B05D028E0082B0AD042
:1004C0000C2B20D023E0574B0360002022E0564B3A
:1004D000036000201EE0524B586880025A68000FEB
:1004E000851CC0235B021A4202D15048684308E0D1
:1004F0004B4BDB6A0F21194001314B4802F06EFA79
:100500006843206006E04A4B0360002002E0454B50
:100510002360002042494B681B061B0F454DEB5CD6
:10052000DBB22668321CDA4062604B685B055B0F09
:10053000EB5CDBB2DA40131CA2600A6BD20502D47A
:100540003D4AE26008E0364A5268520402D45A0832
:10055000E26001E09A08E260314A126B520602D46E
:10056000364A226102E08022120222612C4A126B7A
:10057000D20602D42B4A626100E06661284A126BFF
:10058000920701D1A36119E0254A126B03210A40A9
:10059000012A01D1A66111E0214A126B03210A4010
:1005A000022A03D180221202A26107E01C4A126BC8
:1005B00003210A40032A01D11A4AA261184A116B89
:1005C000C0229202114201D1E36120E0144B1A6B68
:1005D000C0239B02134080225202934201D1E66164
:1005E00015E00F4B1A6BC0239B021340802292022E
:1005F000934203D180231B02E36108E0084B1B6B8D
:10060000C02292021340934201D1064BE361044B96
:100610001B6B1B0602D4064B236200E0206270BDF8
:100620000010024000127A000024F40000093D008E
:10063000006CDC0204000020809FD50012800000C6
:10064000002904D0044B1A691043186103E0024AE0
:10065000136983431361704700100240020993003D
:10066000D3185A000F2318401018C0B27047C04664
:10067000F8B5104B1A689702BF0E0F705604760E2D
:100680004E707F2515408D708023DB0313401B0CBB
:10069000CB7000280CD10C1C381CFFF7DFFF20703A
:1006A000301CFFF7DBFF6070281CFFF7D7FFA0703E
:1006B000F8BDC0460028004070B50F4B5B681A02B9
:1006C000120ECA70DE04F60E4E703F251D408D706E
:1006D0001B045B0F0B7000280CD10C1C101CFFF7C7
:1006E000BDFFE070301CFFF7B9FF6070281CFFF7FA
:1006F000B5FFA07070BDC04600280040F0B5068868
:10070000C1239B011E400C88CD89CB889C460A8959
:100710004B898F892C4365462C4322431A433B1C4B
:100720001343334303808288084B13408A88134362
:1007300083800B8A03820388042293434A881343ED
:100740000380828B024B13408383F0BDFFF0FFFFD9
:10075000FFF7FFFF002904D00288402313430380E2
:1007600003E003884022934303807047002904D0AC
:10077000828810231343838003E0838810229343ED
:1007800083807047002905D0028880239B01134392
:10079000038003E00288024B134003807047C04689
:1007A000FFDFFFFFF0B58DB0041C0D1C03680122B4
:1007B000934303604268284B13408A6813434360A5
:1007C0000268264B1A404B68C9680B4329690B43E2
:1007D000134303608268224B13406A6913438360AA
:1007E00003A8FFF75FFE1F4B9C4201D1099E05E065
:1007F0001D4B9C4201D10A9E00E0059E23681B040C
:100800000CD576002B68301C0193191C02F0E6F819
:10081000071C301C019902F067F90AE02B68301CB4
:100820000193191C02F0DAF8071C301C019902F040
:100830005BF92B685B088B4200D8013723681B04E7
:1008400005D53B075B0F094A3A401A43171CBBB258
:10085000A3810DB0F0BDC046FFCFFFFFF3E9FFFF5E
:10086000FFFCFFFF0038014000440040F0FF0000A3
:10087000002904D0026801231343036003E00368E6
:100880000122934303607047808CC005C00D704700
:10089000002A03D083681943816002E083688B4398
:1008A0008360704701627047FEE7C0460123036022
:1008B000014B0B607047C0461400002008B500F0E3
:1008C0005DF808BD08B500F08BF808BD82B00023C4
:1008D00001930093264A1368802149020B43136059
:1008E000234B1A6880239B0213400093019B013322
:1008F0000193009B002B04D1019AA023DB019A42B3
:10090000EED11B4B1B689B0302D50123009301E032
:1009100000230093009B012B28D11122154B1A6054
:10092000134B5A685A605A685A605968124A0A400A
:100930005A605A68A021C9020A435A601A68802185
:1009400049040A431A600A4B1B689B01FBD5084BFC
:100950005A6803218A435A60596802220A435A603E
:10096000034B5B680C221340082BF9D102B070478F
:100970000010024000200240FF7FC0FF08B5124B6C
:100980001A6801210A431A605868104A02405A60E6
:1009900018680F4A02401A6018680E4A02401A602E
:1009A00058680D4A02405A60DA6A0F208243DA62C0
:1009B000186B0A4A02401A635A6B8A435A63002230
:1009C0009A60FFF783FF08BD001002400CB8FF08D3
:1009D000FFFFF6FEFFFFFBFFFFFFC0FFACFEFFFFC8
:1009E00010B51E4B5B680C221340042B07D0082B5C
:1009F00009D0002B22D11A4A1A4B1A6021E01A4A58
:100A0000184B1A601DE0154B5C68A4025A68240F4D
:100A10000234C0235B021A4204D114484443114BF0
:100A20001C600EE00D4BDB6A0F21194001310E48AE
:100A300001F0D4FF44430B4B1C6002E0084A094B11
:100A40001A60064B5B681B061B0F094AD35CDBB2BE
:100A5000044A1168D940116010BDC0460010024020
:100A600000127A002C0000200024F40000093D0050
:100A70001C00002010B50B4C201CFFF7F7FC22686F
:100A8000802313432360084AC521890053581B0261
:100A90001B0AC02000060343535080231B0413602D
:100AA000002010BD0054004000E100E0294B2A4A1C
:100AB000D35C012B01D0D8B24AE0284B5A68920A85
:100AC00092025A605968C203D20F0A4350210A4366
:100AD0005A605968224A0A405A605A68802189023D
:100AE0000A435A6059681F4A0A405A605A6880216E
:100AF00089010A435A601C4B1A68643203E01A4B9E
:100B00001B6893421FD8154B9B699B07F7D50304BD
:100B10001B0E12498B6203E0134B1B68934214D8DF
:100B20000E4B9B699B07F7D5FF2318400B4B986230
:100B300003E00D4B1B68934209D8084B9B695B0689
:100B4000F7D5012004E0032002E0032000E00320A9
:100B500040B270470B020000140300200054004014
:100B6000FFFF00FFFFFBFFFC4800002070B5061CE4
:100B70000C1C1F4B1F4AD05C012801D0C0B234E0CE
:100B80001C4D02221A4BEA54281C311C221C01F075
:100B9000D3FFE3B282229200AB54174AAB548023B6
:100BA0005B00ED50154B1968193AFF3A0A431A6079
:100BB0005968134A0A405A605A68FF210C402404BD
:100BC00014435C6059680F4A0A405A605A68802191
:100BD00089040A435A6059680B4A0A405A605A68A5
:100BE000802189010A435A60002040B270BDC0468E
:100BF0000B020000140300200A0200000054004011
:100C0000FFFF00FFFFFFFFFEFFFBFFFF38B50D1CDE
:100C1000141CFFF74BFF031CC0B2064A0649885458
:100C2000012804D1281C211CFFF7A0FF031C58B287
:100C300038BDC0460B0200001403002008B50C4B61
:100C400000221A705A709A70082119728020800050
:100C500058600848D860084B1A705A709A70197218
:100C6000064A5A60C822D200DA60FFF703FF08BDC7
:100C7000400500206027000050050020003D0100D5
:100C800010B5041C40782378984204D1A278012A38
:100C900001D1013323702378E268934201D100230C
:100CA0002370227A504363689C46604492B2FFF7F7
:100CB000ADFF002810DB63780133DBB26370E268BC
:100CC000934201D100236370627823789A4205D160
:100CD0000123A370012002E0FF2000E0012040B2C8
:100CE00010BDC04600B583B000F06CFC009000233E
:100CF0000BE05900CA18D20008488218108A1A035B
:100D0000024369448A800133DBB2012BF1D90448E4
:100D10006946FFF7B5FF03B000BDC046800500205F
:100D20004005002000B58DB000230B930A93444A80
:100D30001368802149020B431360414B1A688023DA
:100D40009B0213400A930B9B01330B930A9B002BCE
:100D500004D10B9AA023DB019A42EED1384B1B68D9
:100D60009B0302D501230A9301E000230A930A9B07
:100D7000012B31D11122334B1A60314B59680320BA
:100D8000814359605A685A605A685A60DA6A024365
:100D9000DA6219682C4A0A401A601A6859682B4AA4
:100DA0000A405A605A68A021C9020A435A601A6868
:100DB000802149040A431A60214B1B689B01FBD523
:100DC0001F4A536802210B4353601D4B5B680C2282
:100DD0001340082BF9D101E000F0E6FA01A8FFF773
:100DE00061FB0298FA21890001F0F8FD0138184BE7
:100DF00098420DD8174A506017490B6A1B021B0A0C
:100E0000C020000603430B62002393600733136086
:100E1000114A136A1B021B0A1362802109060F4B39
:100E20001960136A1B021B0AC02109060B431362D7
:100E3000084A116804230B4313600DB000BDC0467F
:100E40000010024000200240FFFFFFFEFF7FC0FFB6
:100E5000FFFFFF0010E000E000ED00E000E100E037
:100E600008B5054B1B78002B04D001F0E3F90022F4
:100E7000014B1A7008BDC0463400002008B5FFF7CA
:100E800051FF00230A4A13600A4A13600A4A13609A
:100E9000FFF7D4FE01F012FC00F012FF01F08CF914
:100EA00000F0C6FB00F038FFFFF7DAFFF8E7C046B6
:100EB000380500202805002024050020FEE7C04654
:100EC000F8B5071C124B1D68002410E01148684358
:100ED0000730114901F008FE0D1C3E19081C3E2187
:100EE00001F002FE0D4B5B5C33700134E4B2132C55
:100EF000ECD906E0231C143B094AD35C3B55013472
:100F0000E4B2332CF6D93C1900232370F8BDC04657
:100F1000480000209573C248FFFFFF3F402D0008A6
:100F2000802D0008F0B54F464646C0B4674CA54436
:100F30008C4653AC664B221C32CB32C212CB12C24F
:100F4000002304E0C45C58AAD45401339BB2332B71
:100F5000F8D95A1C92B2802458A8C45404E0002046
:100F600058AB9854013292B23D2AF8D9531C9BB227
:100F700058A801248454A022C254002312E09A00ED
:100F800058ADA85C0406501C285C00042043941C47
:100F90002C5D24022043D41C2C5D204303AC105153
:100FA00001339BB20F2BEAD9102318E0D81E03AAF5
:100FB000800085581C1C083CA400A05868401C1CDC
:100FC0000E3CA400A45860401C1C103CA400A45873
:100FD00060401F24E0419C00A05001339BB24F2B86
:100FE000E4D900233B4A91463B4C3C4F3C493D4AA7
:100FF000904631E0132B06D8261C8E433A1C0A403B
:101000001643394D14E0272B04D80E1C7E40664051
:10101000364D0DE03B2B07D83E1C26430E40221CCC
:101020003A401643324D03E00E1C7E406640314D7F
:101030001B224046D041021C4A4452199D0003A87D
:101040002858121801339BB2A1463C1C0220C14112
:101050000F1C41469046B0444F2BCBD9539B434481
:101060005393549B5B185493559B9846474455970C
:10107000569B984644445694579B01934B44579330
:10108000002419E0A20053A810580722D21A920097
:10109000D0400F220240E00018186044092A01D80D
:1010A000303200E0573202700133DBB200E000233F
:1010B000072BE7D90134A4B2042CF8D9A9239B004B
:1010C0009D440CBC90469946F0BDC0465CFDFFFFB8
:1010D0002C2D0008F0E1D2C376543210FEDCBA9811
:1010E00089ABCDEF012345679979825AA1EBD96E7F
:1010F000DCBC1B8FD6C162CA10B500220C4B1A7023
:101100000C4C201CFFF7DCFE201C0B49FFF70AFFEC
:10111000201C142101F0FCF8C4B2002C03D1782269
:10112000064B1A6001E001F047F860B210BDC046FE
:10113000CE0500200C060020D40500206805002004
:1011400000230AE0C20702D5FF220A7001E0002254
:101150000A70013140080133DBB2072BF2D9704726
:10116000002300220AE052080178FF2903D18039C8
:10117000FF390A43D2B201300133DBB2072BF2D977
:10118000101C7047F0B54F464646C0B48DB0051CE4
:10119000344F381CFFF754F8334B0193334B9946C7
:1011A00002930024039404950594802398460693A3
:1011B0000794089409940A940B94381C01A9FFF72A
:1011C0009FF82B4E301CFFF73BF82A4B01934B4600
:1011D00002931023039304950594434606930794C2
:1011E000089409940A940B94301C01A9FFF788F81D
:1011F0003A6801231A433A603268134333601E4C45
:10120000201CA021FFF74EFB226A402313432362D8
:10121000201CC0210122FFF73BFB184B1C68F53452
:10122000FF3403E0154B1B68A34214D880208000D4
:10123000FFF792F80028F5D00D480021FFF77EF85F
:1012400008480021FFF77AF80B48C0210022FFF779
:101250001FFBE8B200E0FF2040B20DB00CBC90468E
:101260009946F0BD3000024024380140B00500200E
:101270001C0002402838014000380140480000208E
:1012800030B587B096239B0100930023019302930E
:10129000039305930C330493224C201C6946FFF7FB
:1012A00081FA201C0121FFF7E3FAF02323851D4B6F
:1012B000DB695B06FBD51B4A116A40230B431362B3
:1012C000194B1C68F534FF3405E0174B1B68A3422B
:1012D00001D9FFF7F3FD134BDB699B06F5D51148E8
:1012E000FFF7D2FAC4B20F4BDB699B06FBD4E123B4
:1012F0005B020093002301930293039305930C3345
:101300000493084D281C6946FFF74CFA281C01215C
:10131000FFF7AEFAF02C01D0002000E0022007B069
:1013200030BDC0460038014048000020F0B54746B7
:1013300080B40E1C141C984606AB1F7807AB1D78B2
:10134000012823D1FFF79CFF02281FD123E030782A
:101350001249FFF7F5FE0136013CE4B20820FFF721
:1013600011FF002816DB002D0CD1002F0AD00B48EE
:10137000FFF7F6FE4346187001239C46E044013F08
:10138000FFB203E0FF2D01D0013DEDB2002CDED114
:10139000002000E0FF2004BC9046F0BDB005002016
:1013A0007047C0467047C046FEE7C0467047C0461B
:1013B0007047C04608B5034A13680133136000F054
:1013C00011F908BD4800002080210905C0235B00F9
:1013D0000B4AD1500B4BDB699B0607D50A4A1378A1
:1013E0000849888C0949C85401331370054BDB69DF
:1013F0001B0603D5064A1378013313707047C046A5
:1014000000E100E00038014075050020B005002033
:10141000B80500200122014B1A7070474C000020D3
:101420007047C0467047C0467047C04608B500F0D8
:10143000BFFC08BD08B5084B5B69DB0705D5012279
:10144000054B5A610120FFF7F1FF2021C0235B000B
:10145000024AD15008BDC0460004014000E100E04E
:1014600070B586B003A9CC230B70883B4B7000236A
:101470000093FF330193012002220023FFF756FF60
:101480009024E405A3698025ED002B43A3612E4B36
:101490001B682360BE2000F007F92C4B1B682360FB
:1014A000238D1D432585002449E063001B19DB00C3
:1014B000274AD3181A685B68111C19433DD003A949
:1014C00055200870483868440270160A4670160C99
:1014D0008670120EC27003711A0A42711A0C827160
:1014E0001B0EC37100230093FF33019301200922D7
:1014F0000023FFF71BFF02280BD1154E63001A19BA
:10150000D200B218002000211060516002239373B2
:1015100013E003A9BE230B7002AEBC3B0093013B5A
:10152000019302200322331CFFF700FF338862007F
:101530001519ED00064A55192B820134E4B2012C2D
:10154000B3D906B070BDC0467805002070050020F4
:101550008005002070B54478651EC3785C1EE217D4
:10156000920F121992109C0703D1002B03D1114E38
:1015700002E0104E00E0104E6C00345F1219013A88
:101580006E24FF3463439B188078C3180B4A94463B
:1015900063440878E12212014243141C4878020196
:1015A000101A800000198A781218054843439818C9
:1015B00070BDC046BC2D0008A42D0008219CFFFF73
:1015C0008051010000B583B0002001A9FFF750F859
:1015D00000206946FFF770F8684601A9FFF7BAFFD7
:1015E00003B000BD0E4B1B68012B02D9013B0C4A16
:1015F00013600C4B1B68012B02D9013B094A136095
:10160000094B1B68012B02D9013B074A1360074BAA
:101610001B68012B02D9013B044A13607047C04686
:101620003805002028050020240500203C05002066
:1016300008B5154B1B68012B06D1144B1B680133F1
:10164000114A1360FFF74EFB114B1B68012B06D1AB
:10165000104A12689B180E4A1360FFF701FF0E4BE9
:101660001B68012B04D10D4A12689B180A4A1360AB
:101670000B4B1B68012B06D10A4A12689B18084ABB
:101680001360FFF78DFE08BD3805002030050020EF
:10169000280500202C05002024050020340500200A
:1016A0003C05002020050020034B1B681818024B46
:1016B0001B688342FBD3704748000020F0B58DB013
:1016C0000F1C0092019305AD287003AE301C002161
:1016D000072200F04BFF06AC201C0021182200F06E
:1016E00045FF3F2323804B336380A560893BE36044
:1016F000266106336361201C002100F0D5FB002821
:1017000011DB03AB187800280ED1039C220A3A8023
:10171000D9781A7912020A4300990A805B681B0A79
:10172000019A138000E0FF200DB0F0BDF0B595B038
:1017300000931AAB1F781BAB1E781DAB1C786B4651
:10174000D98001AB1A8033190E33282B4CD803AD46
:1017500028700D2068446B46991D022200F002FF9C
:101760000F20684401A9022200F0FCFE009B6B716F
:10177000AF71EE7105A81C99321C00F0F3FE08361B
:10178000F6B2AC550136F6B2A8191E99221C00F02B
:10179000E9FE3419E4B228191FA9022200F0E2FE82
:1017A000A01CC0B2281820A9022200F0DBFE0434DD
:1017B000E4B20EAE301C0021182200F0D7FE3F2309
:1017C000338044337380B560F4604C3B6B443361C9
:1017D00001237361301C002100F066FB002805DB4B
:1017E00037236B44187802E0422000E0FF2015B058
:1017F000F0BDC046F0B54F464646C0B48FB09946DE
:1018000016AB1B78984617AB1F78189C19AB1E783F
:1018100001AD287069706B46981D111C102200F0F4
:10182000A1FE4B46AB744346EB742F7519236B44F2
:101830001C70220A5A70220C9A70240EDC706E768C
:1018400008AC201C0021182200F090FE3F232380CA
:1018500047336380A5606C3BE3606B4603332361D1
:1018600001236361201C002100F01EFB002802DB25
:101870006B46D87800E0FF200FB00CBC904699462C
:10188000F0BDC04630B589B001AD6870297002ACBA
:10189000201C0021182200F069FE3F2323804D33D5
:1018A0006380A5608A3BE3606B46033323610123B9
:1018B0006361201C002100F0F7FA002802DB6B4670
:1018C000D87800E0FF2009B030BDC04630B589B0FF
:1018D00001AD2880A97002AC201C0021182200F064
:1018E00045FE3F23238054336380A560903BE36033
:1018F0000C3363606B460333236101236361201C57
:10190000002100F0D1FA002802DB6B46D87800E015
:10191000FF2009B030BDC04610B588B002AC201C15
:101920000021182200F022FE3F2323800223FF33F0
:1019300063806B460733236101236361201C002110
:1019400000F0B2FA002802DB6B46D87900E0FF20F5
:1019500008B010BD70B58CB0161C1D1C6B461870FD
:10196000012801D1022400E010246B46581C221CDF
:1019700000F0F8FD01346B461E550134E4B21D55EC
:101980000134E4B205AE301C0021032200F0EEFD6C
:1019900006AD281C0021182200F0E8FD3F232B8013
:1019A000C3336B806B46AB60EC602E6103236B61CD
:1019B000281C002100F078FA002808DB05AB187815
:1019C000002805D1059B1B0A109A138000E0FF2018
:1019D0000CB070BDF0B55F4656464D464446F0B477
:1019E00091B00C1C00929B461AAB1B789A461BAB1D
:1019F0001B7899461CAB1B7898461DAB1F781EAB15
:101A00001E786B46991D088002AD281C022200F04A
:101A1000A9FDAC70012C01D1013400E0102402AD0D
:101A20000B2068440099221C00F09CFD03345B46A7
:101A30002B550134E3B25246EA540133DBB24A4635
:101A4000EA540133DBB24246EA540133DBB2EF54CD
:101A50000133DBB2EE540133DCB209AF381C002194
:101A6000032200F083FD0AAE301C0021182200F092
:101A70007DFD3F233380C5337380B560F4603761EB
:101A8000023BFF3B7361301C002100F00DFA00287F
:101A900008DB09AB1878002805D1099B1B0A1F9A9F
:101AA000138000E0FF2011B03CBC90469946A2464E
:101AB000AB46F0BD70B5AAB0161C1C1C6B46D88096
:101AC00001AB1980A31D802B31DC03AD281C6B46B4
:101AD000991D022200F046FD0E20684401A9022251
:101AE00000F040FD2E716C71122068442E99221C6A
:101AF00000F038FD0634E4B224AE301C0021182278
:101B000000F034FD3F233380C7337380B560F46049
:101B1000773B6B44336101237361301C002100F07B
:101B2000C3F9002805DB8F236B44187802E04220BC
:101B300000E0FF202AB070BDF0B5ABB0171C1E1C32
:101B400030AB1C786B46D88001AB1980E31D802B2D
:101B500032DC03AD281C6B46991D022200F002FD09
:101B60000E20684401A9022200F0FCFC2F716E7166
:101B7000AC71132068443199221C00F0F3FC073447
:101B8000E4B224AE301C0021182200F0EFFC3F2309
:101B90003380E7337380B560F460973B6B44336107
:101BA00001237361301C002100F07EF9002805DB61
:101BB0008F236B44187802E0422000E0FF202BB016
:101BC000F0BDC04670B5A8B00C1C8B1C802B25DC6A
:101BD00001AD287069706B46981D111C221C00F025
:101BE000C1FC0234E4B222AE301C0021182200F005
:101BF000BDFC3F233380333B7380B560F4607B339F
:101C00006B44336101237361301C002100F04CF9F7
:101C1000002805DB87236B44187802E0422000E0AF
:101C2000FF2028B070BDC04630B589B001AD287026
:101C3000697002AC201C0021182200F097FC3F23A1
:101C40002380303B6380A5600D3BE3606B4603332C
:101C5000236101236361201C002100F025F9002885
:101C600002DB6B46D87800E0FF2009B030BDC046EB
:101C70004160024B1B6803607047C046480000206B
:101C8000044B1A680368D21A0132436893428041B8
:101C9000404270474800002030B583B0051C0C1C42
:101CA00007E0201C01A900F005FA281C019900F0AA
:101CB000F1F9201C00F0E0F90028F2D003B030BDAB
:101CC00010B50A4800F0D4F9094800F0D1F9002411
:101CD00008E08C216143074B5918044800F0DAF9F9
:101CE0000134E4B2042CF4D910BDC046BC05002078
:101CF000C405002050000020037A042B07D1827A0B
:101D00008433C35C033B9A4203D0022002E00120EB
:101D100000E000207047C04610B5A2B00023019338
:101D200000F028FD1A4800F0A7F913E0184C201C19
:101D300001A900F0BFF900F017FD0198083000F08C
:101D4000B7FB00F017FD1348019900F0A3F9201C20
:101D500000F092F90028E9D00F4B1B78002B0BD133
:101D600011E00E4802A9802200F084FDC0B20028D4
:101D700002D002A800F09CFB00F0ECFC0028F0D19F
:101D80000022054B1A7000F0EFFC22B010BDC046D7
:101D9000C4050020BC0500200C03002000300140D9
:101DA00008B5024800F068F908BDC046C405002027
:101DB00010B582B00023019300F0E4FC30E01B4832
:101DC00000F05AF9002823D1184801A900F072F94F
:101DD000019908311648802200F04CFDC0B200285D
:101DE00011D0019C8823E054201CFFF785FF0028B8
:101DF00004D11048211C00F04DF90FE00B48211CC4
:101E000000F040F90AE00948019900F03BF905E0CB
:101E10000122094B1A7000F0B5FC05E000F0B2FC9D
:101E200000F098FC0028CAD102B010BDBC0500200B
:101E300000300140C40500200C030020F0B585B03F
:101E4000061C0D1C03921C1C084B1F686437009471
:101E50000748311C2A1C039B00F068FD002803D0B2
:101E6000024B1B68BB42F2D905B0F0BD4800002010
:101E70000030014030B583B0141C1D1C8002890560
:101E8000890D084301A908808A7001236A461370EE
:101E9000501C032200F066FB6846291C0422231C08
:101EA000FFF7CCFF03B030BD70B586B0041C0E1C2C
:101EB000418803889A028B059B0D13439DB2002332
:101EC000039301A800F0D4F820886188227BA368DE
:101ED000FFF7D0FF002E00D084E004A86421FFF7B4
:101EE000C7FE04A8FFF7CCFE002872D1FFF758FF09
:101EF0000028F6D100F03EFC414803A900F0DAF8D2
:101F000003990B7A042B05D001A800F0C3F800F068
:101F10002BFCE6E70E1C0B368823CA5CD01E4B7ADE
:101F20000F2B08D002D80E2B1ED03FE0102B50D024
:101F30003E2B2CD03AE00B1C4A7B0B33DB781B0288
:101F40001343AB4245D163680F2B03D0CB7A002BF0
:101F50002CD03EE06269824200DD021C6261206991
:101F6000311C00F0FFFA3DE00B1C087B0B339B7823
:101F70001B020343AB422CD10E31931F62699A427C
:101F800000DD1A1C6261206900F0ECFA2AE0CB7ACD
:101F9000606883420AD1131F62699A4200DD1A1CED
:101FA00062610C31206900F0DDFA1BE001A800F04D
:101FB00071F8144800F060F8002807D0104869460E
:101FC00000F078F80F48009900F064F800F0CCFBBE
:101FD00087E70B4801A9FFF75FFE00F0C5FB012072
:101FE00040420AE00748039900F04CF8044801A970
:101FF000FFF752FE00F0B8FB002006B070BDC046EF
:10200000C4050020BC05002070B590B0041C0E1C57
:1020100002AD281C0021202200F0A8FA2C701F2CF1
:1020200001D8221C00E01F2209206844311C00F066
:1020300099FA0AAC201C0021182200F097FA082314
:1020400023800133638002ABA3602023E3606B46EF
:102050000733236101236361201C0021FFF724FF64
:10206000002802DB6B46D87900E0FF2010B070BD7D
:10207000006040607047C0460368181A42424241FF
:10208000D0B2704703680B60486001600B6859600C
:102090007047C046086043684B6041604B681960F8
:1020A0007047C046436802681A60036842685A6015
:1020B0007047C04610B50C1C03680B600068FFF742
:1020C000F1FF2268002313602268536010BDC046F0
:1020D00010B596B0334C12A8211C102200F02CFD34
:1020E000211C10310EA8102200F026FD211C2031E9
:1020F0000AA8102200F020FD211C303106A8102271
:1021000000F01AFD284B0093022012A901220D2392
:10211000FFF720FC00283CD1234B188812230093A2
:10212000002301930293103303930F3B04931F4B3F
:10213000059302210EAA3423FFF74CFC00282AD174
:10214000194B188812230093002301930293103334
:1021500003930F3B0493164B059302210AAA022313
:10216000FFF738FC002818D10F4B18880E23009376
:1021700000230193013302931022039204930D4B29
:102180000593022106AA3423FFF724FC002806D178
:1021900006E0472004E0472002E0472000E0472017
:1021A00016B010BDD42D000806060020D005002072
:1021B000040600200006002010B588B006A81949C2
:1021C0004031062200F0B8FC00F0B2FA00200621EF
:1021D00006AAFFF7F7FCFFF79FFB012016216944D1
:1021E00005AA12236B44FFF769FA0F4B1B68029391
:1021F0001023009300230193012403940120002164
:1022000000220733FFF7F6FAFFF762FF01200421EF
:10221000FFF70AFD054B1C7096229200044B1A80B2
:1022200008B010BDD42D000830000020340000207C
:102230006205002010B58EB00AAB00220C920D9200
:102240000921197040315970073999701231D970CC
:102250002739197105315971013999710339D971CA
:1022600008A90A704A708A70CA700A710B200A3273
:1022700000F05EFC06E008AB5A789A701A785A7043
:1022800030221A7008AB9B78002BF4D008A9542395
:10229000CB700AAC201C00F0D3FC00200021FFF71B
:1022A000B3FE00230093102201920294039304933F
:1022B00005930693002000210022FFF737FA0EB0A5
:1022C00010BDC0460378102B02D0112B02D006E0BF
:1022D000002007E04378012B03D8002002E0FE2015
:1022E00000E0F0207047C04600B585B00F236B4476
:1022F0001870054A1088054A1188009300220123AE
:10230000FFF7D8FB05B000BD06060020040600203C
:1023100000B583B00B1C054A128805490988009056
:10232000101C0022FFF7C6FB03B000BD060600200C
:10233000D00500200122024B1A60024B1980704721
:10234000100300200E03002008B500230F4A13607D
:102350000F4A13700F4A13700F4A13700F4A13601D
:1023600001210F4A11700F4A137004E000210E4A38
:10237000D1540133DBB2272BF8D90B482821FFF7C2
:10238000C7FF96229200094B1A8008BD1003002057
:1023900002060020CF050020CE05002068050020A1
:1023A000340000200D030020D40500206205002029
:1023B00070B51C4B1D78272D1ED86B18282B01DCFF
:1023C0000E1C00E02826002313E0EA18164CA45C3B
:1023D000C25C94420CD0FA204000FFF765F9134B21
:1023E000188880B21321FFF771FAFFF7ADFF17E0ED
:1023F0000133B342E9D300E000236A18282A02DC43
:10240000084B1A700CE00021094A11600131094A99
:102410001170C018FFF756FFFFF766FFFEF76CFE5E
:1024200070BDC046CE050020D40500200E0300205C
:10243000680500200206002008B5184B1B880133F0
:1024400098421FD1164B1B68002B0BD0022909D1D3
:102450001378A52B06D153785A2B03D10022104BA9
:102460001A601AE0022909D113785A2B06D1537841
:10247000A52B03D10B4A0A4B1A600EE0101CFFF784
:1024800097FF0AE0084B1B880233984205D1537826
:10249000DB0702D50122054B1A7008BD000600209B
:1024A0000806002088130000D00500200D0300203E
:1024B00030B583B00378042B4AD1041C43783E2BFB
:1024C0000AD0FF2B18D0052B42D1FFF73DFF00208B
:1024D0000021FFF7D7F93BE0C378012B38D1002268
:1024E0001C4B1A8009306379A17909021943FFF75F
:1024F00021FFFEF701FE2BE0C27803791B02134394
:10250000154A934203D0154A93420AD020E0021C98
:102510000A32C379007A00021843617AFFF78CFF10
:1025200016E00F4B188880B2221C0A32E379217A18
:1025300009021943637A009301920022FE23FFF7F8
:10254000FBFA617A201C0B300139C9B2FFF730FF6A
:1025500003B030BD62050020010C0000130C000028
:102560000E03002008B500F0E7FA08BD08B500F03A
:1025700021FB08BDF0B55F4656464D464446F0B4D3
:1025800085B0484B984200D084E0474B9A6980213F
:1025900049010A439A615A69802189020A435A61B2
:1025A0005A6901273A435A619A693A439A6102ACDF
:1025B0000223029327710026A671E7719025ED058D
:1025C000281C211CFDF70EFF66712B8D0222134380
:1025D0009BB22B8520239846029302239B462271AF
:1025E000A671E37103239A466371281C211CFDF731
:1025F000F9FE2B6B2D4A914613402B634023029327
:102600005B462371A671E67153466371281C211C39
:10261000FDF7E8FE2A6C264B13402B6480230293BF
:102620005B462371A671E67153466371281C211C19
:10263000FDF7D8FE2B6E1B011B092B66102302939E
:102640002771A671E77153466371281C211CFDF7A1
:10265000C9FE2B6B4A4613402B6302972671E67125
:10266000281C211CFDF7BEFE00976B461E71082337
:102670006A46537197716846FDF778FE0D4AC1218D
:10268000890050580C4B0340C020000203435350B4
:102690004346136005B03CBC90469946A246AB4603
:1026A000F0BDC0460030014000100240FFFF0FFFA8
:1026B000FFFFFFF000E100E0FF00FFFF30B587B053
:1026C00001AC00232380822252006280E022D200EB
:1026D000A280E3802381802292006281F93AFF3A4E
:1026E000A281E381073323820F4D281CFFF742FFAD
:1026F000281C211CFEF702F8281C0021FEF736F8E2
:10270000281C0021FEF73EF8AA88084B1340AB8036
:10271000AA8880235B011343AB80281C0121FEF7AC
:1027200019F807B030BDC04600300140FFEFFFFF91
:1027300010B59024E405228D022313432385052040
:10274000FEF7B2FFA26902231343A3610520FEF73F
:10275000ABFF10BD9023DB051B8ADB0701D50120F1
:1027600000E000207047C0462022014B1A607047ED
:1027700000E100E020218023014AD1507047C0468B
:1027800000E100E00122014B5A6170470004014062
:10279000F0B5474680B4069D344C2468A046A84452
:1027A000002958D0002A58D0002B58D0DBB2012B7A
:1027B00004D987882E4C3C40848004E0878880249C
:1027C00064013C4384800488640603D40788402461
:1027D0003C4304801F1C32E0002F0FD00489A40763
:1027E0000CD5012F05D90C8884810231023FFFB23C
:1027F00004E00C780473013FFFB20131002B18D0C4
:102800000489E40715D5012B0ED98489148002327E
:10281000023BDBB2012B0CD88488A44680246401DF
:1028200066463443848004E0047B1470013BDBB2D1
:102830000132002D03D00D4C2468444511D23C1CBC
:102840001C43E4B2002CC7D110230381028913403A
:102850000381032006E0032004E0032002E00320BC
:1028600000E0012004BC9046F0BDC04648000020B6
:10287000FFEFFFFFF0B58BB0051C03900F1C141C7D
:10288000FF221F2302A98C4663441A7008A90B2358
:102890000B7000234B708B70CB700B719022D205A4
:1028A000108D10330343138506AE0F230093281CAD
:1028B000321C0A3BFFF76CFF3378022B20D106AAAB
:1028C00013791B02D27813431CD0A5B29D4200D3CA
:1028D0001D1C002410E01E2602AB9C4666440F23FC
:1028E000009303981F216144321C0123FFF750FF1E
:1028F00033783B550134E4B2A3B2AB42EBD302E0F0
:10290000002400E000249022D205916910230B439B
:1029100093610023059303E0C046059B01330593B3
:10292000059B012BF8DD201C0BB0F0BDF0B5CBB042
:102930000390059104921E1C50AB1F7848AD0A23EA
:102940002B7000226A70AA70EA702A7146ACA0331C
:1029500023706270A270E2702271FFF70BFF90216A
:10296000C9050A8D10231A430A85013B0093039879
:10297000291C221C0A3BFFF70BFF2378022B1AD1DC
:1029800046AB5A78F3199A4218DB002E07D0B3B23F
:102990000F2200920398059906AAFFF7F9FE002F6F
:1029A0000FD0BBB20F2200920398049906AAFFF73A
:1029B000EFFE002406E00124644203E002246442A6
:1029C00000E000249022D205916910230B4393610B
:1029D000FFF7CAFE201C4BB0F0BDC04600224308E2
:1029E0008B4274D303098B425FD3030A8B4244D3D7
:1029F000030B8B4228D3030C8B420DD3FF22090219
:102A000012BA030C8B4202D31212090265D0030BD7
:102A10008B4219D300E0090AC30B8B4201D3CB03CD
:102A2000C01A5241830B8B4201D38B03C01A52410F
:102A3000430B8B4201D34B03C01A5241030B8B4211
:102A400001D30B03C01A5241C30A8B4201D3CB02FC
:102A5000C01A5241830A8B4201D38B02C01A5241E1
:102A6000430A8B4201D34B02C01A5241030A8B42E4
:102A700001D30B02C01A5241CDD2C3098B4201D3FC
:102A8000CB01C01A524183098B4201D38B01C01A7A
:102A9000524143098B4201D34B01C01A52410309F1
:102AA0008B4201D30B01C01A5241C3088B4201D3A0
:102AB000CB00C01A524183088B4201D38B00C01A4D
:102AC000524143088B4201D34B00C01A5241411A74
:102AD00000D20146524110467047FFE701B5002081
:102AE00000F00CF802BDC0460029F7D003B5FFF78F
:102AF00075FF0EBC4243891A1847C0467047C0464E
:102B0000931E10B5222B0FD80A2A06D000230C1CC6
:102B1000C91800F0C5F8201C10BD0028F6DA2D23D6
:102B200040420B702C3BF2E7002300200B70F3E7D0
:102B300008B5FFF7E5FF08BD70B50F2A32D9041CB0
:102B40000C430B1CA40731D1151C041C103D2D098E
:102B500001352D0149191E6826605E6866609E6811
:102B6000A660DE681033E66010349942F3D10F237B
:102B700045191340032B1BD91C1F0023A408013443
:102B8000A400CE58EE500433A342FAD1ED18C91870
:102B900003231A4005D00023CC5CEC54013393424C
:102BA000FAD170BD051C002AF5D1FAE7051CF2E741
:102BB0001A1CF8E770B583073FD0541E002A3BD09B
:102BC000CEB2031C032503E0621E002C34D0141C7B
:102BD00001335A1E16702B42F6D1032C24D9FF253F
:102BE0000D402A0215432A0415430F2C11D9261C27
:102BF000103E3609013636011A1C9B1915605560C6
:102C00009560D56010329342F8D10F221440032C06
:102C10000AD9261FB6080136B6001A1C9B1920C215
:102C20009342FCD103221440002C05D0C9B21C19D8
:102C300019700133A342FBD170BD141C031CCCE7F7
:102C400038B5051CAB0716D12A680F4B0F4CD318AB
:102C50009343234216D1043002680B4BD31893439D
:102C6000234208D104300268074BD3189343234210
:102C7000F1D000E001300378002BFBD100F008F820
:102C8000281C38BD281CF6E7FFFEFEFE80808080F1
:102C9000031C0A7801311A700133002AF9D17047F8
:102CA000F0B5574645464E46E0B48AB090466A466F
:102CB0001D4B0D1C061C13CB13C213CB13C213CB1D
:102CC00013C21B78EA4613704346023B2F1C0024B4
:102CD000222B01D924E04C46631C301C4146994606
:102CE000FFF702FF53465B5C301C3B704146FFF729
:102CF00075FE0137061EEED14B46E8540023002C2A
:102D000007D0EA5C295DE9542A550133013CA3420E
:102D1000F7DB281C0AB01CBC90469946A246F0BDC1
:102D20002C700020F6E7C0461C2E000801234567E2
:102D300089ABCDEFFEDCBA9876543210F0E1D2C305
:102D400030313233343536373839414243444546E1
:102D50004748494A4B4C4D4E4F505152535455568B
:102D60005758595A6162636465666768696A6B6C33
:102D70006D6E6F707172737475767778797A000002
:102D8000613636323766643934356231343235353E
:102D9000623832616236366465366531653138369F
:102DA0000000000000001F003C005B00790098005C
:102DB000B600D500F400120131014F0100001F00E0
:102DC0003B005A0078009700B500D400F3001101D1
:102DD00030014E01669A0C200008969EE2119EB1C9
:102DE000E0F273D9669A0C200008969EE2119EB11B
:102DF000E1F273D9669A0C200008969EE2119EB10A
:102E0000E3F273D9669A0C200008969EE2119EB1F7
:102E1000E2F273D90B0000E180020000303132335E
:102E20003435363738396162636465666768696A64
:102E30006B6C6D6E6F707172737475767778797A6A
:042E4000000000008E
:102E44007856341200000000010203040102030456
:102E540006070809440000200000000000000000EC
:102E6400000000000102030406070809006CDC02EC
:0C2E740040E2010001000000325476989A
:04000005080000C52A
:00000001FF
