:020000040800F2
:1000000000100020DD010008E10F0008E50F0008E6
:1000100000000000000000000000000000000000E0
:10002000000000000000000000000000E90F0008D0
:100030000000000000000000ED0F0008F10F0008B4
:100040001502000800000000150200081502000853
:100050001502000815020008150200081502000824
:100060000000000015020008150200081502000833
:100070001502000815020008150200080000000023
:1000800051100008000000000000000015020008E8
:100090001502000855100008591000081502000844
:1000A00015020008150200081502000805100008D6
:1000B0001502000800000000000000000000000021
:1000C0005FF808F130B583B000F006FB314B324ADF
:1000D0001360324A1360324B324A03E011681960F0
:1000E0000433043230498B42F8D32B4B1A682F4B20
:1000F0009A4204D1294B1A682D4B9A4200D0FEE750
:10010000244B2C4A13602C4A13602C4B02E0002233
:100110001A6004332A4A9342F9D3264B1B68002BFA
:1001200003D1254B1B68002B00D0FEE700F0D8FA66
:1001300001A8694600F0C8FA224C234B1C1BA410EE
:10014000002504E0AA001F4BD35898470135AC4264
:10015000F8DC1E4C1E4B1C1BA410002504E0AA005A
:100160001A4BD35898470135AC42F8DC01980099F6
:1001700000F05CFD051C174C174B1C1BA41004E081
:10018000013CA200134BD3589847002CF8DC281CE4
:1001900000F098FABABADECA000000203000002051
:1001A000000000206013000834000020785634124C
:1001B0003254769838000020D40200203800002005
:1001C000D802002040020008400200084002000857
:1001D00040020008400200084002000808B5FFF78E
:1001E00071FFC04600BEFEE704207146084202D0FF
:1001F000EFF3098001E0EFF308807146044A1047ED
:1002000000BEFEE700BEFEE700BEFEE7704700004E
:080210000102000800BEFEE738
:10021800601300080000002034000020601300086C
:10022800000000000000000038000020D802002074
:080238000000000000000000BE
:100240000268264B13400360002303604360836011
:10025000C360234B984205D1224A51680F230B43B8
:10026000536039E0204B984205D11E4A5168F02373
:100270000B43536030E01D4B984206D1194A536836
:10028000F02109010B43536026E0194B984206D137
:10029000144A5368F02109020B4353601CE0154BCC
:1002A000984206D10F4A5368F02109030B4353606B
:1002B00012E0114B984206D10A4A5368F021090412
:1002C0000B43536008E00D4B984205D1054A536833
:1002D000F02109050B4353607047C046FEFF000044
:1002E00008000240000002401C00024030000240B2
:1002F00044000240580002406C000240800002406E
:1003000010B502680C4B1A408B680C6A23430C69C9
:1003100023434C6923438C692343CC6923434C6AB0
:1003200023438C6A234313430360CB6843600B6809
:1003300083604B68C36010BD0F80FFFF002904D0AD
:10034000026801231343036003E00268014B13407A
:1003500003607047FEFF0000034B1B68184201D08A
:10036000012000E0002070470000024070B5041C2E
:100370005D4B5B680C221340042B0CD002D8002B81
:1003800005D028E0082B0AD00C2B20D023E0574BB7
:100390000360002022E0564B036000201EE0524B19
:1003A000586880025A68000F851CC0235B021A42FD
:1003B00002D15048684308E04B4BDB6A0F211940DB
:1003C00001314B4800F0DEFE6843206006E04A4BF6
:1003D0000360002002E0454B2360002042494B6847
:1003E0001B061B0F454DEB5CDBB22668321CDA4066
:1003F00062604B685B055B0FEB5CDBB2DA40131CA1
:10040000A2600A6BD20502D43D4AE26008E0364A97
:100410005268520402D45A08E26001E09A08E2608D
:10042000314A126B520602D4364A226102E080221F
:10043000120222612C4A126BD20602D42B4A62614C
:1004400000E06661284A126B920701D1A36119E0AE
:10045000254A126B03210A40012A01D1A66111E04D
:10046000214A126B03210A40022A03D18022120280
:10047000A26107E01C4A126B03210A40032A01D142
:100480001A4AA261184A116BC0229202114201D18C
:10049000E36120E0144B1A6BC0239B0213408022BF
:1004A0005202934201D1E66115E00F4B1A6BC02353
:1004B0009B02134080229202934203D180231B02AD
:1004C000E36108E0084B1B6BC02292021340934289
:1004D00001D1064BE361044B1B6B1B0602D4064B98
:1004E000236200E0206270BD0010024000127A001A
:1004F0000024F40000093D00006CDC020400002030
:10050000809FD5001280000002099300D3185A0082
:100510000F2318401018C0B27047C046F8B5104BF2
:100520001A689702BF0E0F705604760E4E707F2524
:1005300015408D708023DB0313401B0CCB7000280B
:100540000CD10C1C381CFFF7DFFF2070301CFFF7AC
:10055000DBFF6070281CFFF7D7FFA070F8BDC04616
:100560000028004070B50F4B5B681A02120ECA706B
:10057000DE04F60E4E703F251D408D701B045B0F90
:100580000B7000280CD10C1C101CFFF7BDFFE07095
:10059000301CFFF7B9FF6070281CFFF7B5FFA07093
:1005A00070BDC04600280040F0B58DB0041C0D1C85
:1005B000036801229343036042682C4B13408A680E
:1005C0001343436042682A4B1340436083682A22E6
:1005D000934383600268274B1A404B68C9680B43FA
:1005E00029690B43134303608268234B13406A69F4
:1005F0001343836003A8FFF7B9FE204B9C4201D14F
:10060000099E05E01E4B9C4201D10A9E00E0059E1A
:1006100023681B040CD576002B68301C0193191C31
:1006200000F0B0FD071C301C019900F031FE0AE01B
:100630002B68301C0193191C00F0A4FD071C301C12
:10064000019900F025FE2B685B088B4200D801372A
:1006500023681B0405D53B075B0F0A4A3A401A433F
:10066000171CBBB2A3810DB0F0BDC046FFCFFFFF8A
:10067000FFB7FFFFF3E9FFFFFFFCFFFF003801407A
:1006800000440040F0FF0000002904D0026801236C
:100690001343036003E00368012293430360704740
:1006A000808CC005C00D7047002A03D083681943B1
:1006B000816002E083688B4383607047036A19435B
:1006C00001627047FEE7C04601230360014B0B60E7
:1006D0007047C0461400002008B500F05DF808BD62
:1006E00008B500F08BF808BD82B000230193009399
:1006F000264A1368802149020B431360234B1A6872
:1007000080239B0213400093019B01330193009BC4
:10071000002B04D1019AA023DB019A42EED11B4B9E
:100720001B689B0302D50123009301E00023009383
:10073000009B012B28D11122154B1A60134B5A68CC
:100740005A605A685A605968124A0A405A605A6890
:10075000A021C9020A435A601A68802149040A4349
:100760001A600A4B1B689B01FBD5084B5A68032192
:100770008A435A60596802220A435A60034B5B68F5
:100780000C221340082BF9D102B070470010024030
:1007900000200240FF7FC0FF08B5124B1A680121FC
:1007A0000A431A605868104A02405A6018680F4A93
:1007B00002401A6018680E4A02401A6058680D4AD2
:1007C00002405A60DA6A0F208243DA62186B0A4AE2
:1007D00002401A635A6B8A435A6300229A60FFF7F9
:1007E00083FF08BD001002400CB8FF08FFFFF6FEB3
:1007F000FFFFFBFFFFFFC0FFACFEFFFF10B51E4B6E
:100800005B680C221340042B07D0082B09D0002B67
:1008100022D11A4A1A4B1A6021E01A4A184B1A6060
:100820001DE0154B5C68A4025A68240F0234C023F3
:100830005B021A4204D114484443114B1C600EE081
:100840000D4BDB6A0F21194001310E4800F09AFC74
:1008500044430B4B1C6002E0084A094B1A60064BEC
:100860005B681B061B0F094AD35CDBB2044A1168A4
:10087000D940116010BDC0460010024000127A003D
:100880002C0000200024F40000093D001C00002082
:100890002D4B2E4AD35C012B01D0D8B252E02C4B09
:1008A0005A68920A92025A605968C203D20F0A43E8
:1008B000A0210A435A605968264A0A405A605A6879
:1008C000802189020A435A605968234A0A405A60C3
:1008D0005968224A0A405A605968214A0A405A60B7
:1008E0005A68802189010A435A601E4B1A68643293
:1008F00003E01C4B1B6893421FD8154B9B699B0759
:10090000F7D503041B0E12498B6203E0154B1B68DD
:10091000934214D80E4B9B699B07F7D5FF231840D1
:100920000B4B986203E00F4B1B68934209D8084BAE
:100930009B695B06F7D5012004E0032002E0032059
:1009400000E0032040B270470B020000440000208A
:1009500000540040FFFF00FFFFFFFFFEFFFFFFFD11
:10096000FFFBFFFF4000002070B5061C0C1C1F4B56
:100970001F4AD05C012801D0C0B234E01C4D0222D5
:100980001A4BEA54281C311C221C00F08DFCE3B2E7
:1009900082229200AB54174AAB5480235B00ED5087
:1009A000154B1968193AFF3A0A431A605968134AF5
:1009B0000A405A605A68FF210C40240414435C60CA
:1009C00059680F4A0A405A605A68802189040A43CC
:1009D0005A6059680B4A0A405A605A688021890156
:1009E0000A435A60002040B270BDC0460B020000AE
:1009F000440000200A02000000540040FFFF00FFF6
:100A0000FFFFFFFEFFFBFFFF38B50D1C141CFFF7B7
:100A10003FFF031CC0B2064A06498854012804D18E
:100A2000281C211CFFF7A0FF031C58B238BDC0468C
:100A30000B02000044000020034B1B681818024BF7
:100A40001B688342FBD370474000002010B5041C94
:100A500040782378984204D1A278012A01D1013349
:100A600023702378E268934201D100232370227A15
:100A7000504363689C46604492B2FFF7C5FF00286C
:100A800010DB63780133DBB26370E268934201D11B
:100A900000236370627823789A4205D10123A37002
:100AA000012002E0FF2000E0012040B210BDC0465E
:100AB00000B583B000F00AFB009000230BE0590062
:100AC000CA18D20008488218108A1A0302436944DF
:100AD0008A800133DBB2012BF1D904486946FFF764
:100AE000B5FF03B000BDC046980200207002002090
:100AF00000B58DB000230B930A93444A13688021FC
:100B000049020B431360414B1A6880239B02134038
:100B10000A930B9B01330B930A9B002B04D10B9A76
:100B2000A023DB019A42EED1384B1B689B0302D510
:100B300001230A9301E000230A930A9B012B31D180
:100B40001122334B1A60314B59680320814359609D
:100B50005A685A605A685A60DA6A0243DA62196857
:100B60002C4A0A401A601A6859682B4A0A405A608F
:100B70005A68A021C9020A435A601A6880214904B0
:100B80000A431A60214B1B689B01FBD51F4A53681F
:100B900002210B4353601D4B5B680C221340082B52
:100BA000F9D101E000F01EFA01A8FFF7DFFB02987F
:100BB000FA21890000F0E6FA0138184B98420DD866
:100BC000174A506017490B6A1B021B0AC020000617
:100BD00003430B620023936007331360114A136AC7
:100BE0001B021B0A1362802109060F4B1960136A4E
:100BF0001B021B0AC02109060B431362084A116835
:100C000004230B4313600DB000BDC046001002402A
:100C100000200240FFFFFFFEFF7FC0FFFFFFFF003D
:100C200010E000E000ED00E000E100E030B5A7B02A
:100C3000FFF75EFF23A818490A2200F035FB00F0F9
:100C400025F900241FE023AD44236B70002300939B
:100C5000FF3301930120291C0222002300F082F9B6
:100C6000FA208000FFF7E8FEBE236B7003AB1B1970
:100C700008220092063A01920120291C083200F055
:100C800071F90934E4B263B2002BDCDAFA20800097
:100C9000FFF7D2FED5E7C04624130008FEE7C046A2
:100CA00000230AE0C20702D5FF220A7001E00022F9
:100CB0000A70013140080133DBB2072BF2D97047CB
:100CC000002300220AE052080178FF2903D180396D
:100CD000FF390A43D2B201300133DBB2072BF2D91C
:100CE000101C7047F0B54F464646C0B48DB0051C89
:100CF000344F381CFFF7A4FA334B0193334B99461A
:100D00000293002403940495059480239846069347
:100D10000794089409940A940B94381C01A9FFF7CE
:100D2000EFFA2B4E301CFFF78BFA2A4B01934B4600
:100D30000293102303930495059443460693079466
:100D4000089409940A940B94301C01A9FFF7D8FA6F
:100D50003A6801231A433A603268134333601E4CE9
:100D6000201CA021FFF7AAFC226A40231343236220
:100D7000201CC0210122FFF797FC184B1C68F5349A
:100D8000FF3403E0154B1B68A34214D88020800079
:100D9000FFF7E2FA0028F5D00D480021FFF7CEFA60
:100DA00008480021FFF7CAFA0B48C0210022FFF7CC
:100DB0007BFCE8B200E0FF2040B20DB00CBC9046D6
:100DC0009946F0BD3000024024380140C80200209E
:100DD0001C0002402838014000380140400000203B
:100DE00030B587B096239B010093002301930293B3
:100DF000039305930C330493224C201C6946FFF7A0
:100E0000D3FB201C0121FFF73FFCF02323851D4B62
:100E1000DB695B06FBD51B4A116A40230B43136257
:100E2000194B1C68F534FF3405E0174B1B68A342CF
:100E300001D9FFF733FF134BDB699B06F5D511484A
:100E4000FFF72EFCC4B20F4BDB699B06FBD4E123FA
:100E50005B020093002301930293039305930C33E9
:100E60000493084D281C6946FFF79EFB281C0121AE
:100E7000FFF70AFCF02C01D0002000E0022007B0B0
:100E800030BDC046003801404000002010B586B09B
:100E90002E4B9A698021C9010A439A615A698021BF
:100EA00089020A435A6159690122114359619969BA
:100EB0000A439A619023DB051A68802109030A43DB
:100EC0001A609988224A0A409A80D968214A1140BA
:100ED000D960D9688020C0020143D96099680A406E
:100EE0009A60596A10220A435A621A68802189035B
:100EF0000A431A609988184A0A409A80D968174AA2
:100F00001140D960D968802040030143D9609968B5
:100F10000A409A605A6A802149000A435A62E123D2
:100F20005B020093002301930293039305930C3318
:100F300004930B4C201C6946FFF736FB201C012153
:100F4000FFF7A2FB002006B010BDC0460010024013
:100F5000FFFDFFFFFFFFF3FFFFFBFFFFFFFFCFFFE3
:100F600000380140F0B5474680B40E1C141C98466A
:100F700006AB1F7807AB1D78012823D1FFF730FFA0
:100F800002281FD123E030781249FFF789FE01368D
:100F9000013CE4B20820FFF7A5FE002816DB002D77
:100FA0000CD1002F0AD00B48FFF78AFE4346187079
:100FB00001239C46E044013FFFB203E0FF2D01D036
:100FC000013DEDB2002CDED1002000E0FF2004BC8A
:100FD0009046F0BDC80200207047C0467047C0462A
:100FE0007047C046FEE7C0467047C0467047C046DF
:100FF00008B5034A13680133136000F077F808BDA1
:101000004000002080210905C0235B000B4AD1501D
:101010000B4BDB699B0607D50A4A13780849888C75
:101020000949C85401331370054BDB691B0603D50E
:10103000064A1378013313707047C04600E100E0A0
:101040000038014091020020C8020020D002002098
:101050007047C0467047C0467047C04670B5447878
:10106000651EC3785C1EE217920F121992109C073E
:1010700003D1002B03D1114E02E0104E00E0104EC0
:101080006C00345F1219013A6E24FF3463439B18DD
:101090008078C3180B4A944663440878E122120111
:1010A0004243141C48780201101A800000198A7803
:1010B000121805484343981870BDC04648130008ED
:1010C00030130008219CFFFF8051010000B583B060
:1010D000002001A9FFF722FA00206946FFF742FA33
:1010E000684601A9FFF7BAFF03B000BD08B51D4B64
:1010F0001B68012B0AD9013B1A4A1360002B05D14A
:10110000194B1A68174B1A60FFF7D2FC174B1B6874
:10111000012B0AD9013B154A1360002B05D1144B52
:101120001A68124B1A60FFF757FF124B1B68012B0E
:1011300008D9013B0F4A1360002B03D10E4B1A68EC
:101140000C4B1A600D4B1B68012B0AD9013B0B4A53
:101150001360002B05D10A4B1A68084B1A60FFF781
:101160003DFF08BD640200205802002060020020FC
:10117000540200206C0200205C0200206802002063
:1011800050020020002243088B4274D303098B4293
:101190005FD3030A8B4244D3030B8B4228D3030C47
:1011A0008B420DD3FF22090212BA030C8B4202D3E9
:1011B0001212090265D0030B8B4219D300E0090A11
:1011C000C30B8B4201D3CB03C01A5241830B8B421A
:1011D00001D38B03C01A5241430B8B4201D34B0303
:1011E000C01A5241030B8B4201D30B03C01A524168
:1011F000C30A8B4201D3CB02C01A5241830A8B42ED
:1012000001D38B02C01A5241430A8B4201D34B02D5
:10121000C01A5241030A8B4201D30B02C01A524139
:10122000CDD2C3098B4201D3CB01C01A52418309ED
:101230008B4201D38B01C01A524143098B4201D327
:101240004B01C01A524103098B4201D30B01C01A52
:101250005241C3088B4201D3CB00C01A52418308CC
:101260008B4201D38B00C01A524143088B4201D3F9
:101270004B00C01A5241411A00D201465241104659
:101280007047FFE701B5002000F00CF802BDC04632
:101290000029F7D003B5FFF775FF0EBC4243891A4A
:1012A0001847C0467047C04670B50F2A32D9041C93
:1012B0000C430B1CA40731D1151C041C103D2D0937
:1012C00001352D0149191E6826605E6866609E68BA
:1012D000A660DE681033E66010349942F3D10F2324
:1012E00045191340032B1BD91C1F0023A4080134EC
:1012F000A400CE58EE500433A342FAD1ED18C91819
:1013000003231A4005D00023CC5CEC5401339342F4
:10131000FAD170BD051C002AF5D1FAE7051CF2E7E9
:101320001A1CF8E7CC00FFFFFFFFFFFFFFFF0000E4
:1013300000001F003C005B0079009800B600D5005B
:10134000F400120131014F0100001F003B005A0060
:1013500078009700B500D400F300110130014E0170
:101360007856341200000000010203040102030455
:10137000060708093C0000200000000000000000F3
:10138000000000000102030406070809006CDC02EB
:0413900032547698C5
:04000005080000C52A
:00000001FF
