:020000040800F2
:1000000000100020DD010008190F00081D0F000876
:1000100000000000000000000000000000000000E0
:10002000000000000000000000000000210F000898
:100030000000000000000000250F0008290F000844
:100040001502000800000000150200081502000853
:10005000150200083D0F000815020008590F00089E
:100060000000000015020008150200081502000833
:100070001502000815020008150200080000000023
:10008000710F0008000000000000000015020008C9
:10009000150200086D100008711000081502000814
:1000A000150200081502000815020008550F000887
:1000B0001502000800000000000000000000000021
:1000C0005FF808F130B583B000F0C4F8314B324A24
:1000D0001360324A1360324B324A03E011681960F0
:1000E0000433043230498B42F8D32B4B1A682F4B20
:1000F0009A4204D1294B1A682D4B9A4200D0FEE750
:10010000244B2C4A13602C4A13602C4B02E0002233
:100110001A6004332A4A9342F9D3264B1B68002BFA
:1001200003D1254B1B68002B00D0FEE700F096F8AA
:1001300001A8694600F086F8224C234B1C1BA41032
:10014000002504E0AA001F4BD35898470135AC4264
:10015000F8DC1E4C1E4B1C1BA410002504E0AA005A
:100160001A4BD35898470135AC42F8DC01980099F6
:1001700000F0B6FA051C174C174B1C1BA41004E02A
:10018000013CA200134BD3589847002CF8DC281CE4
:1001900000F056F8BABADECA00000020380000208D
:1001A00000000020083100083C000020785634127E
:1001B000325476983C000020B40500203C0000201A
:1001C000B805002040020008400200084002000874
:1001D00040020008400200084002000808B5FFF78E
:1001E00071FFC04600BEFEE704207146084202D0FF
:1001F000EFF3098001E0EFF308807146044A1047ED
:1002000000BEFEE700BEFEE700BEFEE7704700004E
:080210000102000800BEFEE738
:1002180008310008000000203C00002008310008D8
:1002280000000000000000003C000020B80500208D
:080238000000000000000000BE
:10024000FEE7C04601230360014B0B607047C046C8
:100250000400002008B500F05DF808BD08B500F006
:100260008BF808BD82B0002301930093264A1368DF
:10027000802149020B431360234B1A6880239B02A1
:1002800013400093019B01330193009B002B04D189
:10029000019AA023DB019A42EED11B4B1B689B0302
:1002A00002D50123009301E000230093009B012B62
:1002B00028D11122154B1A60134B5A685A605A689C
:1002C0005A605968124A0A405A605A68882149039C
:1002D0000A435A601A68802149040A431A600A4B8B
:1002E0001B689B01FBD5084B5A6803218A435A605F
:1002F000596802220A435A60034B5B680C22134080
:10030000082BF9D102B070470010024000200240D3
:10031000FF7FC0FF08B5124B1A6801210A431A601B
:100320005868104A02405A6018680F4A02401A6022
:1003300018680E4A02401A6058680D4A02405A6016
:10034000DA6A0F208243DA62186B0A4A02401A63A3
:100350005A6B8A435A6300229A60FFF783FF08BDF5
:10036000001002400CB8FF08FFFFF6FEFFFFFBFF86
:10037000FFFFC0FFACFEFFFF10B51E4B5B680C22F9
:100380001340042B07D0082B09D0002B22D11A4A86
:100390001A4B1A6021E0184A184B1A601DE0154BE1
:1003A0005C68A4025A68240F0234C0235B021A421C
:1003B00004D113484443114B1C600EE00D4BDB6A23
:1003C0000F21194001310C4802F002FD44430B4B50
:1003D0001C6002E0084A094B1A60064B5B681B066A
:1003E0001B0F084AD35CDBB2044A1168D940116084
:1003F00010BDC0460010024000127A001C00002010
:1004000000093D000C00002008B501F0ADF908BD61
:1004100000B589B000280AD0134A51698023DB0255
:1004200019435161526913400193019B09E00E4A3F
:1004300051698023DB0219435161526913400293D1
:10044000029B4200094BD35A0393022304930122D7
:1004500007920022059206938000054BC05803A91D
:1004600001F076FD09B000BD00100240FC2F00082D
:100470002000002008B58200044BD25843000449F4
:10048000595A101C01F02CFE08BDC0462000002067
:10049000FC2F000800B589B000280AD0124A516923
:1004A00080239B0219435161526913400193019BC0
:1004B00009E00D4A516980239B0219435161526939
:1004C00013400293029B4200084BD35A039301232B
:1004D00004930593013306938000054BC05803A98C
:1004E00001F036FD09B000BD0010024000300008E8
:1004F0002800002008B501F0B3FC08BD08B5104B7A
:100500001B68012B12D10F4B188880B2132100F009
:10051000B9FEFA20C00001F0A9FCBFF34F8F0A4AD0
:100520000A4BDA60BFF34F8FC046FDE7084B1B78DC
:10053000002B04D000F054FB0022054B1A7008BDBC
:1005400004050020420000200400FA0500ED00E050
:100550003400002030B593B00124059406940225A0
:100560000E9580235B020F938023DB02109311947E
:1005700005A801F0CFFD0194029500230393049395
:1005800001A8012102F02CF802F05EF9FA2189009D
:1005900002F01EFC01380E4B98420DD80D4A5060F7
:1005A0000D490B6A1B021B0AC020000603430B62A5
:1005B0000023936007331360074A136A1B021B0A68
:1005C0001362044A116804230B43136013B030BD57
:1005D000FFFFFF0010E000E000ED00E030B5364B1B
:1005E000C42080001A58FF218A437F390A431A50D9
:1005F000802252021A603149CB6902221343CB6137
:100600002F4B19687024A14319602E49D9622E49D5
:100610009962186A012108431862186A80256D00E2
:1006200028431862186A80256D01284318621D6AE4
:100630002648284018621D6A254828401862986993
:10064000A0439861D869A043D861DC692148204063
:10065000D861DC6940202043D861D8698024E40156
:100660002043D861D8690824A043D861DD691A48BD
:100670002840D86198690325A8439861D869A843A0
:10068000D861DD6915482840D861FA2040005863D8
:10069000D8631864D8689043D860D868A043D860FD
:1006A000D8680834A043D860D8680243DA601A6872
:1006B0001143196030BDC04600E100E00010024067
:1006C00000040040FFFF00007FBB0000FFFDFFFFB4
:1006D000FFDFFFFFFF8FFFFFFFF7FFFFFFFCFFFFC5
:1006E00008B501F0A5FBFFF735FFFFF777FF002006
:1006F000FFF78EFE0120FFF78BFE0020FFF7CAFEFA
:100700000120FFF7C7FE01F059FA00F0B5FF00F035
:1007100029FA00F0DDFFFFF7F1FEFAE7F8B5071C54
:1007200001F09EFB051C002410E0104868430730D0
:100730000F4902F0D3FB0D1C3E19081C3E2102F0AC
:10074000CDFB0C4B5B5C33700134E4B2132CECD961
:1007500006E0231C143B084AD35C3B550134E4B249
:10076000332CF6D93C1900232370F8BD9573C24889
:10077000FFFFFF3F1C3000085C300008F0B54F461B
:100780004646C0B4674CA5448C4653AC664B221C0D
:1007900032CB32C212CB12C2002304E0C45C58AA8E
:1007A000D45401339BB2332BF8D95A1C92B2802413
:1007B00058A8C45404E0002058AB9854013292B2B7
:1007C0003D2AF8D9531C9BB258A801248454A02276
:1007D000C254002312E09A0058ADA85C0406501CD5
:1007E000285C00042043941C2C5D24022043D41C6C
:1007F0002C5D204303AC105101339BB20F2BEAD97F
:10080000102318E0D81E03AA800085581C1C083C41
:10081000A400A05868401C1C0E3CA400A4586040D2
:100820001C1C103CA400A45860401F24E0419C0004
:10083000A05001339BB24F2BE4D900233B4A914691
:100840003B4C3C4F3C493D4A904631E0132B06D887
:10085000261C8E433A1C0A401643394D14E0272BC0
:1008600004D80E1C7E406640364D0DE03B2B07D869
:100870003E1C26430E40221C3A401643324D03E0F4
:100880000E1C7E406640314D1B224046D041021C6A
:100890004A4452199D0003A82858121801339BB2EC
:1008A000A1463C1C0220C1410F1C41469046B04469
:1008B0004F2BCBD9539B43445393549B5B18549376
:1008C000559B984647445597569B984644445694A2
:1008D000579B01934B445793002419E0A20053A85F
:1008E00010580722D21A9200D0400F220240E00096
:1008F00018186044092A01D8303200E057320270DB
:100900000133DBB200E00023072BE7D90134A4B2A6
:10091000042CF8D9A9239B009D440CBC9046994611
:10092000F0BDC0465CFDFFFF08300008F0E1D2C317
:1009300076543210FEDCBA9889ABCDEF01234567BF
:100940009979825AA1EBD96EDCBC1B8FD6C162CAE1
:1009500010B500220B4B1A700B4C201CFFF7DEFE6B
:10096000201C0A49FFF70AFF201C142100F08AF915
:10097000041E03D17822064B1A6001E000F0F2F861
:10098000201C10BDCA04002008050020D00400204F
:10099000C004002010B5041CFFF76CFD00282AD10C
:1009A000002C13D1174BDA6970218A43DA61D969B7
:1009B00030220A43DA615A6A0132DA63196908227D
:1009C00091431961D9680A43DA6019E00D4BD9697E
:1009D0000D4A0A40DA61DA69C02189010A43DA6105
:1009E0005A6A01321A641969102291431961D9684F
:1009F0000A43DA6004E0002C01D0F12000E0F2208C
:100A000010BDC04600040040FF8FFFFF08B5154B26
:100A10001B68002B0BD0134A1368013B1360002B9B
:100A200005D1114B188880B2132100F02BFC0F4B1D
:100A30001B889BB2002B13D00C4A1388013B9BB23E
:100A40001380002B0CD10A4B1B68002B08D1BFF37D
:100A50004F8F084A084BDA60BFF34F8FC046FDE75F
:100A600008BDC046C004002042000020B804002099
:100A7000440000200400FA0500ED00E010B596B037
:100A8000334C12A8211C102202F034FA211C103120
:100A90000EA8102202F02EFA211C20310AA81022E2
:100AA00002F028FA211C303106A8102202F022FAA6
:100AB000284B0093022012A901220D2300F026FCEE
:100AC00000283CD1234B1888122300930023019364
:100AD0000293103303930F3B04931F4B05930221A2
:100AE0000EAA342300F052FC00282AD1194B188892
:100AF00012230093002301930293103303930F3BBF
:100B00000493164B059302210AAA022300F03EFC2F
:100B1000002818D10F4B18880E230093002301934F
:100B2000013302931022039204930D4B059302218B
:100B300006AA342300F02AFC002806D106E047204C
:100B400004E0472002E0472000E0472016B010BD37
:100B50008030000802050020CC04002000050020A1
:100B6000FC04002010B588B006A8194940310622BF
:100B700002F0C0F901F042F80020062106AA00F0B8
:100B8000FDFC00F0A5FB01201621694405AA1223F3
:100B90006B4400F06FFA0F4B1B6802931023009315
:100BA0000023019301240394012000210022073334
:100BB00000F0FCFAFFF762FF0120042100F010FDB5
:100BC000054B1C7096229200044B1A8008B010BD91
:100BD000803000083000002034000020B8040020DD
:100BE00010B58CB008AC201C0C4948310D2202F025
:100BF00081F90020002100F0D7FE002300930D2290
:100C0000019202940393049305930693002000211C
:100C1000002200F067FA0CB010BDC046803000081A
:100C200010B50378102B07D0112B13D14078012871
:100C300012D8FFF7AFFE10E00020FFF71BFC041CEA
:100C40000120FFF717FC40002043C0B2032804D95D
:100C5000F42002E0FE2000E0F02010BD00B585B0D9
:100C60000F236B441870054A1088054A11880093B9
:100C70000022012300F0FAFB05B000BD02050020B0
:100C80000005002000B583B00B1C054A12880549F9
:100C900009880090101C002200F0E8FB03B000BDA2
:100CA00002050020CC0400200122024B1A60024BF6
:100CB00019807047440000204200002008B500233E
:100CC000124A1360124A1370124A1370124A1370B8
:100CD000124A13600121124A1170124A137004E083
:100CE0000021114AD1540133DBB2272BF8D90E4829
:100CF0002821FFF7C7FF9020C0050421002201F042
:100D0000F7F996229200094B1A8008BD4400002092
:100D1000FE040020CB040020CA040020C0040020F0
:100D20003400002041000020D0040020B80400203E
:100D300070B51C4B1D78272D1ED86B18282B01DC95
:100D40000E1C00E02826002313E0EA18164CA45CD1
:100D5000C25C94420CD0FA20400001F087F8134B9B
:100D6000188880B2132100F08DFAFFF7A7FF17E073
:100D70000133B342E9D300E000236A18282A02DCD9
:100D8000084B1A700CE00021094A11600131094A30
:100D90001170C018FFF744FFFFF760FFFFF7D8FDA1
:100DA00070BDC046CA040020D004002042000020CC
:100DB000C0040020FE04002008B5184B1B88013336
:100DC00098421FD1164B1B68002B0BD0022909D16A
:100DD0001378A52B06D153785A2B03D10022104B40
:100DE0001A601AE0022909D113785A2B06D15378D8
:100DF000A52B03D10B4A0A4B1A600EE0101CFFF71B
:100E000097FF0AE0084B1B880233984205D15378BC
:100E1000DB0702D50122054B1A7008BDFC04002037
:100E20000405002088130000CC04002041000020AD
:100E300030B583B00378042B50D1041C43783E2B8B
:100E40000AD0FF2B1ED0052B48D1FFF737FF00201B
:100E5000002100F0F3F941E0C378012B3ED10022DC
:100E60001F4B1A8009306379A17909021943FFF7F2
:100E70001BFF9020C0050421012201F039F9FFF782
:100E800067FD2BE0C27803791B021343154A934296
:100E900003D0154A93420AD020E0021C0A32C379DB
:100EA000007A00021843617AFFF786FF16E00F4BC5
:100EB000188880B2221C0A32E379217A0902194388
:100EC000637A009301920022FE2300F011FB201CA4
:100ED0000B30617A0139C9B2FFF72AFF03B030BD88
:100EE000B8040020010C0000130C00004200002098
:100EF00000B583B0074A916901200143916193696C
:100F000003400193019B02380021002200F0BCFF46
:100F100003B000BD001002407047C046FEE7C04667
:100F20007047C0467047C04608B500F091FF024ABE
:100F300013680133136008BD4800002008B5012084
:100F400001F0DCF82021C0235B00014AD15008BD2C
:100F500000E100E07047C04608B58020800101F044
:100F6000CDF80122014B1A7008BDC0464C0000208C
:100F700008B53B4B1B699B070FD5394BDB689B07BB
:100F80000BD5374B1A6902218A431A615A6AF53226
:100F9000FF325A63FFF73AFD60E0314B1B691B07D4
:100FA0002BD52F4BDB681B0727D52D4A136908214A
:100FB0008B4313612B4B1B69DB070AD59020C005BF
:100FC000012201F095F8264A536AF533FF33D363C3
:100FD00044E09020C0050821002201F089F8204B50
:100FE000DA6808218A43DA60DA6968318A43DA61AB
:100FF000D96940220A43DA6130E0194B1B69DB06EC
:101000002CD5174BDB68DB0628D5154A1369102150
:101010008B431361134B1B699B070BD59020C005B5
:101020000839012201F064F80D4A536AF533FF33A1
:10103000136413E09020C0050821002201F058F845
:10104000074BDA6810218A43DA60D969064A0A40F8
:10105000DA61DA698021C9010A43DA6108BDC04654
:101060000004004000040048FF8FFFFF7047C046A7
:101070007047C046F0B58DB00F1C0092019305ADCE
:10108000287003AE301C0021072200F0F5FC06ACEE
:10109000201C0021182200F0EFFC3F2323804B335B
:1010A0006380A560893BE360266106336361201C91
:1010B000002100F0BFFB002811DB03AB18780028EB
:1010C0000ED1039C220A3A80D9781A7912020A4377
:1010D00000990A805B681B0A019A138000E0FF20D8
:1010E0000DB0F0BDF0B595B000931AAB1F781BABF7
:1010F0001E781DAB1C786B46D98001AB1A80331962
:101100000E33282B4CD803AD28700D2068446B4655
:10111000991D022200F0ACFC0F20684401A90222B4
:1011200000F0A6FC009B6B71AF71EE7105A81C99D5
:10113000321C00F09DFC0836F6B2AC550136F6B212
:10114000A8191E99221C00F093FC3419E4B2281946
:101150001FA9022200F08CFCA01CC0B2281820A9F4
:10116000022200F085FC0434E4B20EAE301C0021F3
:10117000182200F081FC3F23338044337380B56034
:10118000F4604C3B6B44336101237361301C0021DC
:1011900000F050FB002805DB37236B44187802E091
:1011A000422000E0FF2015B0F0BDC046F0B54F462C
:1011B0004646C0B48FB0994616AB1B78984617AB1D
:1011C0001F78189C19AB1E7801AD287069706B46AA
:1011D000981D111C102200F04BFC4B46AB7443468B
:1011E000EB742F7519236B441C70220A5A70220C61
:1011F0009A70240EDC706E7608AC201C0021182238
:1012000000F03AFC3F23238047336380A5606C3BAA
:10121000E3606B460333236101236361201C0021DB
:1012200000F008FB002802DB6B46D87800E0FF20C6
:101230000FB00CBC90469946F0BDC04630B589B0A1
:1012400001AD6870297002AC201C0021182200F04A
:1012500013FC3F2323804D336380A5608A3BE3600A
:101260006B460333236101236361201C002100F0DE
:10127000E1FA002802DB6B46D87800E0FF2009B0D5
:1012800030BDC04630B589B001AD2880A97002AC30
:10129000201C0021182200F0EFFB3F232380543351
:1012A0006380A560903BE3600C3363606B4603335F
:1012B000236101236361201C002100F0BBFA002898
:1012C00002DB6B46D87800E0FF2009B030BDC04695
:1012D00010B588B002AC201C0021182200F0CCFB15
:1012E0003F2323800223FF3363806B460733236150
:1012F00001236361201C002100F09CFA002802DB1E
:101300006B46D87900E0FF2008B010BD70B58CB0F6
:10131000161C1D1C6B461870012801D1022400E028
:1013200010246B46581C221C00F0A2FB01346B46B3
:101330001E550134E4B21D550134E4B205AE301C33
:101340000021032200F098FB06AD281C0021182282
:1013500000F092FB3F232B80C3336B806B46AB6066
:10136000EC602E6103236B61281C002100F062FAFF
:10137000002808DB05AB1878002805D1059B1B0A5F
:10138000109A138000E0FF200CB070BDF0B55F46EE
:1013900056464D464446F0B491B00C1C00929B4614
:1013A0001AAB1B789A461BAB1B7899461CAB1B7873
:1013B00098461DAB1F781EAB1E786B46991D0880A2
:1013C00002AD281C022200F053FBAC70012C01D1AD
:1013D000013400E0102402AD0B2068440099221C67
:1013E00000F046FB03345B462B550134E3B2524612
:1013F000EA540133DBB24A46EA540133DBB24246D7
:10140000EA540133DBB2EF540133DBB2EE54013363
:10141000DCB209AF381C0021032200F02DFB0AAE1C
:10142000301C0021182200F027FB3F233380C533F6
:101430007380B560F4603761023BFF3B7361301C21
:10144000002100F0F7F9002808DB09AB1878002824
:1014500005D1099B1B0A1F9A138000E0FF2011B0E1
:101460003CBC90469946A246AB46F0BD70B5AAB0CA
:10147000161C1C1C6B46D88001AB1980A31D802B49
:1014800031DC03AD281C6B46991D022200F0F0FAF6
:101490000E20684401A9022200F0EAFA2E716C7154
:1014A000122068442E99221C00F0E2FA0634E4B2BD
:1014B00024AE301C0021182200F0DEFA3F233380D6
:1014C000C7337380B560F460773B6B4433610123AD
:1014D0007361301C002100F0ADF9002805DB8F237B
:1014E0006B44187802E0422000E0FF202AB070BD73
:1014F000F0B5ABB0171C1E1C30AB1C786B46D88007
:1015000001AB1980E31D802B32DC03AD281C6B4638
:10151000991D022200F0ACFA0E20684401A90222B3
:1015200000F0A6FA2F716E71AC71132068443199E6
:10153000221C00F09DFA0734E4B224AE301C0021D6
:10154000182200F099FA3F233380E7337380B560A7
:10155000F460973B6B44336101237361301C0021BD
:1015600000F068F9002805DB8F236B44187802E04F
:10157000422000E0FF202BB0F0BDC04670B5A8B0FF
:101580000C1C8B1C802B25DC01AD287069706B4610
:10159000981D111C221C00F06BFA0234E4B222AE3A
:1015A000301C0021182200F067FA3F233380333BC0
:1015B0007380B560F4607B336B44336101237361E6
:1015C000301C002100F036F9002805DB87236B442E
:1015D000187802E0422000E0FF2028B070BDC0462D
:1015E00030B589B001AD2870697002AC201C0021B3
:1015F000182200F041FA3F232380303B6380A5602E
:101600000D3BE3606B460333236101236361201CC0
:10161000002100F00FF9002802DB6B46D87800E0CB
:10162000FF2009B030BDC04610B5041C4160FEF774
:1016300061FF206010BDC04610B5041CFEF75AFFC4
:101640002368C01A0130636883428041404210BD64
:1016500030B583B0051C0C1C07E0201C01A900F06C
:10166000F9F9281C019900F0E5F9201C00F0D4F9E3
:101670000028F2D003B030BD10B50A4800F0C8F918
:10168000094800F0C5F9002408E08C216143074BAC
:101690005918044800F0CEF90134E4B2042CF4D90E
:1016A00010BDC04640050020480500205000002025
:1016B000037A042B07D1827A8433C35C033B9A42BA
:1016C00003D0022002E0012000E000207047C04665
:1016D00010B5A2B00023019300F010FB1A4800F0EF
:1016E0009BF913E0184C201C01A900F0B3F900F09D
:1016F000FFFA01980830FFF79BFB00F0FFFA134850
:10170000019900F097F9201C00F086F90028E9D033
:101710000F4B1B78002B0BD111E00E4802A9802241
:1017200000F08AFAC0B2002802D002A8FFF780FBBE
:1017300000F078FA0028F0D10022054B1A7000F072
:10174000D7FA22B010BDC046480500204005002051
:101750000C0300205005002008B5024800F05CF999
:1017600008BDC0464805002010B582B00023019393
:1017700000F046FB30E01B4800F04EF9002823D172
:10178000184801A900F066F901990831164880222D
:1017900000F052FAC0B2002811D0019C8823E05416
:1017A000201CFFF785FF002804D11048211C00F001
:1017B00041F90FE00B48211C00F034F90AE0094818
:1017C000019900F02FF905E00122094B1A7000F091
:1017D00017FB05E000F014FB00F024FA0028CAD142
:1017E00002B010BD40050020500500204805002033
:1017F0000C03002008B592B29BB200F0DDFA08BDE0
:1018000030B583B0141C1D1C80028905890D084366
:1018100001A908808A7001236A461370501C0322B4
:1018200000F026F96846291C0422231CFFF7E2FF7A
:1018300003B030BDF0B587B0041C0E1C418803888E
:101840009A028B059B0D13439DB2544B18680A21D5
:1018500001F0BEFA071C0023039301A800F0D8F89A
:1018600020886188227BA368FFF7CAFF002E00D082
:1018700087E0002F00D1013704A8391CFFF7D4FE00
:1018800004A8FFF7D9FE002872D1FFF765FF0028F2
:10189000F6D100F033FA424803A900F0DBF80399CF
:1018A0000B7A042B05D001A800F0C4F800F020FA50
:1018B000E6E70E1C0B368823CA5CD01E4B7A0F2B32
:1018C00008D002D80E2B1ED03FE0102B50D03E2B5C
:1018D0002CD03AE00B1C4A7B0B33DB781B02134302
:1018E000AB4245D163680F2B03D0CB7A002B2CD0B1
:1018F0003EE06269824200DD021C62612069311CA7
:1019000000F0B6F83DE00B1C087B0B339B781B0204
:101910000343AB422CD10E31931F62699A4200DD22
:101920001A1C6261206900F0A3F82AE0CB7A606893
:1019300083420AD1131F62699A4200DD1A1C626158
:101940000C31206900F094F81BE001A800F072F857
:10195000144800F061F8002807D01148694600F0EB
:1019600079F81048009900F065F800F0C1F987E7B0
:101970000B4801A9FFF76CFE00F0BAF901204042C4
:101980000AE00848039900F04DF8054801A9FFF75F
:101990005FFE00F0ADF9002007B0F0BD0430000894
:1019A000480500204005002070B590B0041C0E1CB6
:1019B00002AD281C0021202200F05EF82C701F2CA4
:1019C00001D8221C00E01F2209206844311C00F0CD
:1019D0004FF80AAC201C0021182200F04DF8082313
:1019E00023800133638002ABA3602023E3606B4656
:1019F0000733236101236361201C0021FFF71AFFD5
:101A0000002802DB6B46D87900E0FF2010B070BDE3
:101A1000006040607047C0460368181A4242424165
:101A2000D0B2704703680B60486001600B68596072
:101A30007047C046086043684B6041604B6819605E
:101A40007047C046436802681A60036842685A607B
:101A50007047C04610B50C1C03680B600068FFF7A8
:101A6000F1FF2268002313602268536010BDC04656
:101A700008B501F03FFA08BD08B501F079FA08BDD4
:101A8000F0B58DB002684A4B9A4200D08EE0494BC7
:101A9000596980229202114359615969114000919C
:101AA000009959691143596159691140019101998E
:101AB0005969114359615969114002910299596953
:101AC00011435961596911400391039959691143AF
:101AD0005961596911400491049959691143596137
:101AE00059690A400592059A996980225201114369
:101AF00099619B691A400692069B0225079501276A
:101B00000897099700240A940B949020C00507A910
:101B100000F01EFA9020C0050221002200F0E8FA31
:101B2000202307930895099503260A960B94902085
:101B3000C00507A900F00CFA402307930895099403
:101B40000A960B949020C00507A900F001FA8023A3
:101B50000793089509940A960B949020C00507A94D
:101B600000F0F6F910230793089709970A960B944B
:101B70009020C00507A900F0EBF99020C0051021C6
:101B8000012200F0B5FA07970B4B089309940A96C7
:101B90000B949020C00507A900F0DAF90520032175
:101BA000002200F071F9052000F0A0F90DB0F0BDA1
:101BB00000300140001002400000111008B50D482F
:101BC0000D4B036082235B00436000238360E022AF
:101BD000D200C2600361436180229200826103628D
:101BE0004362FA3AFF3AC2620132C261836200F094
:101BF0000DFF08BD500500200030014010B59024B5
:101C0000E405201C0221002200F072FA052000F0F9
:101C10002DF9201C0221012200F06AFA052000F0B3
:101C200025F910BD08B59020C005012100F058FA33
:101C3000012800D0002008BDF0B58BB003900F1C28
:101C4000161CFF221F2302A98C4663441A7008AC9D
:101C50000B23237000236370A370E3702371902023
:101C6000C0051021002200F043FA06AD0F230093B7
:101C70000398211C2A1C0A3B00F038FF2B78022B0A
:101C800020D106AA13791B02D27813431CD0B5B217
:101C90009D4200D31D1C002410E01E2602AB9C4672
:101CA00066440F23009303981F216144321C0123D3
:101CB00000F01CFF33783B550134E4B2A3B2AB42D1
:101CC000EBD302E0002400E000249020C0051021A6
:101CD000012200F00DFA0023059303E0C046059BA6
:101CE00001330593059B012BF8DD201C0BB0F0BDE3
:101CF00008B5052000F0FAF808BDC04608B5052073
:101D000000F0FEF808BDC046F0B5CBB003900591D9
:101D100004921E1C50AB1F7848AD0A232B70002282
:101D20006A70AA70EA702A7146ACA03323706270A0
:101D3000A270E2702271FFF7E1FF9020C005102130
:101D4000002200F0D5F90F2300930398291C221CD0
:101D50000A3B00F0CBFE2378022B1AD146AB5A780F
:101D6000F3199A4218DB002E07D0B3B20F2200926B
:101D70000398059906AA00F0B9FE002F0FD0BBB258
:101D80000F2200920398049906AA00F0AFFE0024E7
:101D900006E00124644203E00224644200E00024DF
:101DA0009020C0051021012200F0A2F9FFF7A0FF4A
:101DB000201C4BB0F0BDC046F0B585B0071C0E1C12
:101DC000151C1C1C0C4B18680A2101F001F8011CA1
:101DD00002A8FFF729FCEBB2E2B200920748391CD7
:101DE000321CFFF791FF002804D002A8FFF724FC63
:101DF0000028F0D005B0F0BD0430000850050020E8
:101E00000122014B5A6170470004014010B5041CC7
:101E100000F01AFDFA21890000F0DAFF00F07CF8EA
:101E200001204042211C002200F02EF8002010BDAD
:101E300008B5064A116810230B4313600020FFF712
:101E4000E5FFFFF755F8002008BDC046002002401E
:101E5000024A1368013313607047C0461003002024
:101E6000014B18687047C0461003002010B582B0BF
:101E70000190FFF7F5FF041CFFF7F2FF001B019B29
:101E80009842F9D302B010BD70B5002816DAC0B27E
:101E90000F230340083B9B089B00124A944663446F
:101EA0005A6803242040C000FC34251C8540AA4306
:101EB0008901214081400A435A6011E083080A4C9D
:101EC000C0339B001A5903252840C000FC352E1C46
:101ED0008640B243890129408140081C10431851B3
:101EE00070BDC04618ED00E000E100E01F2318407F
:101EF0001E3B8340181C014B1860704700E100E056
:101F00001F2318401E3B8340181C8023014AD050D9
:101F10007047C04600E100E001380A4B98420FD8F4
:101F2000094A506009490B6A1B021B0AC0200006BF
:101F300003430B620023936007331360002000E02B
:101F400001207047FFFFFF0010E000E000ED00E01F
:101F5000F0B5474680B484B00023AAE001249C4039
:101F6000224000D1A4E04C68022C01D0122C0ED1EA
:101F7000DF080837BF003E5807241C40A4000F2587
:101F8000A540AE430D69A5402C1C34433C50066867
:101F90005C00A4460324A0466746BC40E4432640B8
:101FA000371C46464D682E406546AE403E430660AF
:101FB0004E68771E012F03D9112E01D0122E13D196
:101FC00086682640CF686546AF403E4386604768D6
:101FD0000126019DAE40B7434D68EE06F60F351C55
:101FE000019EB5403D434560C5682C408D686646FE
:101FF000B5402C43C4604C68E40059D5324DAE69FD
:1020000001273E43AE61AC693C400394039C9C08AD
:10201000A51CAD002D4EAE5903251D40AD000E3759
:10202000AF40BE439027FF05B84210D0284FB842BA
:102030000BD0284FB84206D0274FB84201D1032712
:1020400006E0052704E0022702E0012700E0002760
:10205000AF403D1C35430234A4001C4EA5511F4C1B
:102060002568D4432E1C26404F68FF0301D5154335
:102070002E1C1A4D2E606D682E1C26404F68BF0323
:1020800001D515432E1C154D6E60AD682E1C2640E3
:102090004F68FF0201D515432E1C104DAE60ED6850
:1020A0002C404E68B60201D52A43141C0B4AD4605A
:1020B00001330A680193141CDC4000D04EE704B0E1
:1020C00004BC9046F0BDC046001002400000014034
:1020D0000004004800080048000C004800040140CB
:1020E0000369194201D0012000E000207047C0467A
:1020F000002A01D0816100E08162704708B5044B7D
:102100005B69184203D0024B5861FEF77DF908BDA8
:102110000004014030B583B0041C0368DB077DD5A3
:10212000BC4B5B680C221340042B08D0B94B5B6896
:102130001340082B0BD1B74B5B68DB0307D5B54BBE
:102140001B689B036AD56368002B67D117E2B14B0C
:102150001968B14A0A401A601968B04A0A401A6000
:10216000FFF77EFE051C06E0FFF77AFE401BAC4B36
:10217000984200D905E2A74B1B689B03F4D463681F
:10218000012B06D1A34A1368802149020B43136037
:1021900022E0002B09D19F4B19689F4A0A401A6020
:1021A00019689E4A0A401A6016E0052B0BD1994B1C
:1021B0001A688021C9020A431A601A6880214902FC
:1021C0000A431A6008E0934B1968934A0A401A6060
:1021D0001968924A0A401A606368002B0FD0FFF713
:1021E0003FFE051C06E0FFF73BFE401B8C4B984270
:1021F00000D9C8E1874B1B689B03F4D50EE0FFF7BD
:102200002FFE051C06E0FFF72BFE401B844B984277
:1022100000D9BAE17F4B1B689B03F4D423689B076A
:1022200050D57C4B5B680C221A4208D0794B5B6816
:102230001340082B14D1774B5B68DB0310D4754B2C
:102240001B689B0703D5E368012B00D09FE1714910
:102250000B68F82293432269D20013430B6031E0EC
:10226000E368002B1BD06B4A116801230B431360FA
:10227000FFF7F6FD051C05E0FFF7F2FD401B6428A3
:1022800000D986E1634B1B689B07F5D561490B6854
:10229000F82293432269D20013430B6012E05D4A97
:1022A000136801218B431360FFF7DAFD051C05E07D
:1022B000FFF7D6FD401B642800D96CE1554B1B6825
:1022C0009B07F5D423681B0729D5236A002B13D05D
:1022D000504A516A01230B435362FFF7C1FD051CAD
:1022E00005E0FFF7BDFD401B642800D955E1494BCF
:1022F0005B6A9B07F5D512E0464A536A01218B437E
:102300005362FFF7ADFD051C05E0FFF7A9FD401B7B
:10231000642800D943E13F4B5B6A9B07F5D42368EF
:102320005B0700D48BE03B4AD16980235B051943EE
:10233000D161D26913400193019B3A4A136880210D
:1023400049000B431360FFF78BFD051C05E0FFF709
:1023500087FD401B642800D923E1324B1B68DB0555
:10236000F5D52C4B1A6A01218A431A621A6A033185
:102370008A431A62FFF774FD051C06E0FFF770FD43
:10238000401B274B984200D90DE1224B1B6A9B074B
:10239000F4D4A368012B04D11E4A116A0B431362C3
:1023A00020E0002B09D11B4B1A6A01218A431A62D3
:1023B0001A6A03318A431A6214E0052B09D1154BBE
:1023C000196A04220A431A62196A01220A431A622C
:1023D00008E0104B1A6A01218A431A621A6A033113
:1023E0008A431A62A368002B0FD0FFF739FD051C42
:1023F00006E0FFF735FD401B094B984200D9D4E0B9
:10240000044B1B6A9B07F4D519E0FFF729FD051C57
:1024100011E0C04600100240FFFFFEFFFFFFFBFF80
:102420008813000000700040FFF71AFD401B684B46
:10243000984200D9BBE0674B1B6A9B07F4D4236822
:10244000DB0648D56369012B20D1624B596B04220E
:102450000A435A63596B01220A435A63FFF700FD8E
:10246000051C05E0FFF7FCFC401B642800D9A0E038
:10247000584B5B6B9B07F5D556494B6BF822934342
:102480001A1CA369DB0013434B6324E005330CD112
:1024900050494B6B042293434B634B6BF432934391
:1024A000A269D20013434B6315E04A4B596B0422D7
:1024B0000A435A635A6B01218A435A63FFF7D0FCDF
:1024C000051C04E0FFF7CCFC401B642873D8414B8B
:1024D0005B6B9B07F6D4636A002B6ED03D4A526853
:1024E0000C210A40082A6AD0022B34D1394A1168DB
:1024F000394B0B401360FFF7B3FC051C04E0FFF7FA
:10250000AFFC401B64285CD8324B1B689B01F6D49F
:10251000304BDA6A0F218A43216B0A43DA6258682A
:102520002E4A1040E26AA16A0A4302435A601A68BE
:10253000802149040A431A60FFF792FC041C04E05E
:10254000FFF78EFC001B64283DD8224B1B689B01C3
:10255000F6D500203AE01F4A11681F4B0B4013606C
:10256000FFF77EFC041C04E0FFF77AFC001B6428E4
:102570002BD8184B1B689B01F6D4002026E00120C5
:1025800024E0032022E0032020E003201EE00120BD
:102590001CE003201AE0032018E0032016E00320CB
:1025A00014E0032012E0032010E003200EE00320DB
:1025B0000CE003200AE0032008E0002006E00120F0
:1025C00004E0032002E0032000E0032003B030BD5C
:1025D0008813000000100240FFFFFFFEFFFFC2FF54
:1025E00070B5051C0C1C7A4B1B68012213408B42F2
:1025F00064D2774A136801218B4323431360136825
:102600000B40A34200D0C7E003689B0706D5714A80
:102610005368EF318B4381680B4353602B68DB07B2
:1026200000D4AAE06A68012A04D16A4B1B689B03A4
:102630000CD4B3E0022A04D1664B1B689B0105D47D
:10264000AEE0644B1B689B0700D4ABE061494B686C
:102650000320834313434B60FFF702FC041C6B68A9
:10266000012B0ED106E0FFF7FBFB001B5A4B9842F3
:1026700000D999E0574B5B680C221340042BF2D130
:102680007BE0022B14D106E0FFF7EAFB001B524B64
:10269000984200D98AE04F4B5B680C221340082B0C
:1026A000F2D16AE0FFF7DCFB001B4B4B98427FD86E
:1026B000484B5B680C221A42F4D15EE003689B072A
:1026C00006D5444A5368F0218B4381680B4353601D
:1026D0002B68DB0747D56A68012A04D13D4B1B688C
:1026E0009B030BD466E0022A04D13A4B1B689B0182
:1026F00004D461E0374B1B689B075FD535494B68B5
:102700000320834313434B60FFF7AAFB061C6B684F
:10271000012B0DD105E0FFF7A3FB801B2E4B984248
:102720004ED82C4B5B680C221340042BF3D11AE0DB
:10273000022B13D105E0FFF793FB801B264B984239
:1027400040D8244B5B680C221340082BF3D10AE0DD
:10275000FFF786FB801B204B984235D81D4B5B68EA
:102760000C221A42F4D11A4A136801218B432343E5
:10277000136013680B40A34228D12B685B0706D572
:1027800014494A68154B1340EA6813434B60002014
:10279000FFF73CFB00201AE0012018E0012016E0C2
:1027A000012014E0012012E0032010E003200EE0DD
:1027B00003200CE001200AE0012008E0012006E0EF
:1027C000032004E0032002E0032000E0012070BDAC
:1027D000002002400010024088130000FFF8FFFFB5
:1027E00010B588B0144C04A8211C102200F082FB04
:1027F000211C10316846102200F07CFB0F4B5A68F8
:102800000C231340082B13D193021B0F04A9CC5C9B
:102810000A4BDB6A0F210B406946C95CD30304D520
:10282000074800F0D5FA604303E00648604300E043
:10283000034808B010BDC046D83000080010024060
:1028400000127A0000093D0008B5FFF7C9FF054BEB
:102850005B681B061B0F044AD35CD840034B18600F
:1028600008BDC04600100240F83000081C000020DF
:10287000F0B5474680B482B0071C0C1C151C1E1C0A
:10288000FFF7EEFA804644E0C023DB009C4206D10D
:10289000002D04D1137BDBB26A46D371D379731C4C
:1028A00037D0002E05D0FFF7DBFA4346C01AB042FE
:1028B0002FD33A685368E0218B43536082235B0037
:1028C0007A689A420DD1BB6880221202934203D0EB
:1028D0008022D200934204D13A68136840218B438E
:1028E000136080239B01BA6A9A420AD13A68116840
:1028F0000D4B0B4013603A681368802189010B432C
:10290000136001225D23FA540022013BFA54032094
:1029100005E03A6893682340AB42B5D1002002B08D
:1029200004BC9046F0BDC046FFDF0000F0B547464E
:1029300080B4051C0F1C161C1C1CFFF791FA804666
:1029400039E0631C37D0002C05D0FFF789FA4346E5
:10295000C01AA0422FD32A685368E0218B435360EA
:1029600082235B006A689A420DD1AB688022120212
:10297000934203D08022D200934204D12A68136884
:1029800040218B43136080239B01AA6A9A420AD19B
:102990002A6811680C4B0B4013602A681368802169
:1029A00089010B43136001225D23EA540022013B9D
:1029B000EA54032005E02B689B683B40B342C0D13A
:1029C000002004BC9046F0BDFFDF000038B5041CB9
:1029D0000D1CC021490100222B1CFFF749FF0028D4
:1029E00005D02023226E1343236603200CE0201C15
:1029F000802100222B1CFFF799FF002804D0202300
:102A0000226E13432366032038BDC04638B5002824
:102A100068D0041C5D23C35C002B04D100225C330E
:102A2000C254FFF72DF802225D23E2542268136896
:102A300040218B431360E368E022D200934201D926
:102A4000002101E080214901F0221201934205D0CA
:102A5000E022D200934201D00022A262226B002A1F
:102A600008D1E022D200934202D90223236301E07D
:102A70000123236320686368A26813432269134318
:102A80006269134380229200A5692A401343E269D8
:102A90001343226A1343A26A13430360236B022B7E
:102AA00005D1226813688020000103431360226867
:102AB000638B04200340606A0343606B0343E06858
:102AC00003430B4353602368E26A1A612268D169A9
:102AD000054B0B40D3610023236601225D33E25492
:102AE000002000E0012038BDFFF70000F0B585B000
:102AF000071C0D1C00921C1C0A9EFFF7B1F90190E7
:102B00005C23FB5C012B00D158E101225C23FA54C9
:102B10000133FB5C012B00D03BE1002D00D13AE1F9
:102B2000009B002B00D138E1002C00D137E10432AA
:102B30005D23FA5400233B66009B3B644623FC5212
:102B4000023BFC52BD63FC87BC8780239B01BA6AB1
:102B50009A420AD13A6811689A4B0B4013603A685E
:102B60001368802189010B431360E023DB00FA68BE
:102B70009A4203D84623FB5A012B05D93A6851687B
:102B8000914B0B40536005E03A685368802149013E
:102B90000B4353603B681A68520603D419684022FD
:102BA0000A431A60E023DB00FA689A4238D896E0BC
:102BB000002B1AD03B689A68920716D5BA6B128818
:102BC000DA60BB6B0233BB63FB8F013B9BB2FB87BD
:102BD000002B0AD180239B01BA6A9A4205D13A6838
:102BE0001368802149010B4313604623FB5A002BD5
:102BF0000DD03B689A68D20709D5DB683A6C138020
:102C00003B6C02333B644622BB5A013BBB52731CF4
:102C100006D0FFF725F9019BC01AB04200D3C0E0EF
:102C2000FB8F002BC4D14622BA5A002AC0D15DE0E6
:102C3000002B25D03A689168890721D5012B09D945
:102C4000BB6B1B88D360BB6B0233BB63FB8F023B48
:102C5000FB8707E0BB6B591CB9631B781373FB8FB1
:102C6000013BFB87FB8F002B0AD180239B01BA6AB3
:102C70009A4205D13A681368802149010B431360D9
:102C80004623FB5A002B22D03A689168C9071ED50B
:102C9000012B13D9D3683A6C13803B6C02333B642D
:102CA0004622BB5A023B9BB2BB52012B0FD83A685B
:102CB0005368802149010B43536008E03B6C591C69
:102CC0003964127B1A704622BB5A013BBB52731CFB
:102CD00005D0FFF7C5F8019BC01AB04263D2FB8F45
:102CE000002BA5D14622BA5A002AA1D180239B01EC
:102CF000BA6A9A4234D1381C01210122331CFFF7F1
:102D000015FE002805D002233A6E13433B660324C8
:102D10004CE0F0231B01FA689A4206D13B68DB685D
:102D20009BB202AAD380D3881AE03B681B7B02AA1D
:102D3000D380D3883B6B022B12D1381C01210A1C93
:102D4000331CFFF7F3FD002805D002233A6E13432E
:102D50003B6603242AE03B681B7B02AAD380D3880E
:102D60003B689A68D20607D50222396E0A433A6652
:102D7000164A9A60012400E00024381C311CFFF739
:102D800025FE002801D020233B663B6E002B0CD192
:102D90000CE002240AE0012408E0012406E00124FA
:102DA00004E0032402E0032400E0012401225D2367
:102DB000FA540022013BFA54201C00E0022005B026
:102DC000F0BDC046FFDF0000FFEFFFFFEFFF000098
:102DD000002243088B4274D303098B425FD3030A5A
:102DE0008B4244D3030B8B4228D3030C8B420DD36D
:102DF000FF22090212BA030C8B4202D312120902FB
:102E000065D0030B8B4219D300E0090AC30B8B4238
:102E100001D3CB03C01A5241830B8B4201D38B03E6
:102E2000C01A5241430B8B4201D34B03C01A52418B
:102E3000030B8B4201D30B03C01A5241C30A8B42CE
:102E400001D3CB02C01A5241830A8B4201D38B02B9
:102E5000C01A5241430A8B4201D34B02C01A52415D
:102E6000030A8B4201D30B02C01A5241CDD2C309CF
:102E70008B4201D3CB01C01A524183098B4201D34B
:102E80008B01C01A524143098B4201D34B01C01A36
:102E9000524103098B4201D30B01C01A5241C308AE
:102EA0008B4201D3CB00C01A524183088B4201D31D
:102EB0008B00C01A524143088B4201D34B00C01A09
:102EC0005241411A00D20146524110467047FFE775
:102ED00001B5002000F00CF802BDC0460029F7D073
:102EE00003B5FFF775FF0EBC4243891A1847C04669
:102EF0007047C04670B50F2A32D9041C0C430B1C16
:102F0000A40731D1151C041C103D2D0901352D01DC
:102F100049191E6826605E6866609E68A660DE6865
:102F20001033E66010349942F3D10F234519134052
:102F3000032B1BD91C1F0023A4080134A400CE5866
:102F4000EE500433A342FAD1ED18C91803231A40F6
:102F500005D00023CC5CEC5401339342FAD170BD10
:102F6000051C002AF5D1FAE7051CF2E71A1CF8E760
:102F700070B583073FD0541E002A3BD0CEB2031C4D
:102F8000032503E0621E002C34D0141C01335A1EAA
:102F900016702B42F6D1032C24D9FF250D402A02AE
:102FA00015432A0415430F2C11D9261C103E36094F
:102FB000013636011A1C9B19156055609560D56065
:102FC00010329342F8D10F221440032C0AD9261F45
:102FD000B6080136B6001A1C9B1920C29342FCD1D8
:102FE00003221440002C05D0C9B21C1919700133FA
:102FF000A342FBD170BD141C031CCCE701000200EE
:1030000004000800E80300000123456789ABCDEF09
:10301000FEDCBA9876543210F0E1D2C3303132334C
:103020003435363738394142434445464748494AA2
:103030004B4C4D4E4F505152535455565758595A68
:103040006162636465666768696A6B6C6D6E6F70F8
:103050007172737475767778797A0000356165637B
:103060003430623431333866343130663962343367
:10307000356331306166636562326631000000009D
:10308000669A0C200008969EE2119EB1E0F273D978
:10309000669A0C200008969EE2119EB1E1F273D967
:1030A000669A0C200008969EE2119EB1E3F273D955
:1030B000669A0C200008969EE2119EB1E2F273D946
:1030C000020000E18002000009496E6469676F2D0B
:1030D000546F6F74680000000203040506070809B6
:1030E0000A0B0C0D0E0F1010010203040506070851
:1030F000090A0B0C0D0E0F10000000000102030462
:0831000001020304060708099F
:103108007856341240000020000000000000000043
:10311800000000000102030406070809006CDC0235
:10312800000400480004004800000048000000486F
:0C31380040E201000100000032547698D3
:04000005080000C52A
:00000001FF
